:0400000011EF01F00B
:10000800D9CF8AF0DACF8BF0F6CF8CF0DCEF56F050
:10001800D8CF79F0E8CF7AF0E0CF7BF0D9CF7CF079
:10002800DACF7DF0F3CF7EF0F4CF7FF0F6CF80F01B
:10003800F7CF81F0F8CF82F0F5CF83F0B7A405D0E1
:10004800B7940301844B852BD0D0B7A805D0B798B7
:100058000301824B832BC9D0F2A4B4D01D0EF66ED7
:10006800F90EF76E000EF86E0900F5CF01F00A00E0
:10007800F5CF02F0BDEC5EF00001C04BC12B0301CF
:100088002F4B302B2D4B2E2BF64BF72B4A2A000EDD
:100098004B224C224D2204015E4B5F2B03016C2B3B
:1000A8006D2B7B2B000E7C237D237E23FD2B5A2B6F
:1000B800742B334B342B354B362B7B0E016E030ED2
:1000C800026EBDEC5CF0645103E0FCEC30F002D051
:1000D8000FEC34F02FEC53F00301645103E07EEC95
:1000E80035F002D004EC23F0F2940301345103E11B
:1000F8000A0E335D4EE3C00E0001756F030E766F76
:10010800755103018203F3CF77F0F4CF78F08303BE
:10011800F350000178277651030182030001F35060
:10012800782777C001F078C002F033C303F034C3F6
:1001380004F005EC59F001C029F302C02AF3C00EFF
:10014800756F030E766F755103018403F3CF77F053
:10015800F4CF78F08503F350000178277651030136
:1001680084030001F350782777C001F078C002F0CB
:1001780033C303F034C304F005EC59F001C054F460
:1001880002C055F40301826B836B846B856B336B00
:10019800346B770E5A6508D0880E016E030E026E16
:1001A800F4EC5DF0596F5A6B3B0E74651ED0E2ECAF
:1001B8003FF03BC04FF43CC050F43DC051F4030144
:1001C800746B13D0BAB0B9A010D0BA90010E82A245
:1001D800000EA6EC5CF0880E066E030E076E000E8D
:1001E80080B8010E086EFFEC5CF0040083C0F5FFD8
:1001F80082C0F8FF81C0F7FF80C0F6FF7FC0F4FF20
:100208007EC0F3FF7DC0DAFF7CC0D9FF7BC0E0FF72
:100218007AC0E8FF79C0D8FF1000FFEF47F0F2EC92
:100228005EF090C031F191C032F10101336B346B53
:1002380005EF09F02D0E0001906F010E916F31C18D
:10024800D9FF32C1DAFFDECF2BF1DDCF2CF1D89008
:1002580001013335D96E3435DA6E2B51D9262C513C
:10026800DA22DECF92F0DDCF93F00001956B020E1B
:10027800946F1CEC58F02DC130F17EEF08F020EEA1
:1002880002F03151D9263251DA22DECF2BF1DDCFFF
:100298002CF1D8903335D96E3435DA6E2B51D926F6
:1002A8002C51DA22DECF93F0DDCF94F08EEC4BF0B8
:1002B80093C09AF094C09BF075EC5BF09AC00CF375
:1002C8009BC00DF39CC00EF302EF09F020EE02F084
:1002D8003151D9263251DA22DECF2BF1DDCF2CF184
:1002E800D8903335D96E3435DA6E2B51D9262C5146
:1002F800DA22DECF93F0DDCF94F08EEC4BF093C092
:100308009AF094C09BF075EC5BF09AC012F39BC016
:1003180013F39CC014F302EF09F0A40E0001906FD0
:10032800FE0E916F010120EE02F03151D9263251B3
:10033800DA22DECF2BF1DDCF2CF1D8903335D96E10
:100348003435DA6E2B51D9262C51DA22DECF92F0D1
:10035800DDCF93F016EC46F0905191110BE1010EB0
:100368000301666F0401C86B800EC96F3F0ECA6F28
:1003780002EF09F00301666B0401C86BC96BCA6B15
:1003880002EF09F020EE02F03151D9263251DA227B
:10039800DECF2BF1DDCF2CF1D8903335D96E343543
:1003A800DA6E2B51D9262C51DA22DECF93F0DDCF2D
:1003B80094F08EEC4BF093C09AF094C09BF075ECDF
:1003C8005BF09AC040F49BC041F49CC042F402EF39
:1003D80009F020EE02F03151D9263251DA22DECF6F
:1003E8002BF1DDCF2CF1D8903335D96E3435DA6E58
:1003F8002B51D9262C51DA22DECF93F0DDCF94F0A1
:100408008EEC4BF093C09AF094C09BF075EC5BF0C7
:100418009AC006F39BC007F39CC008F302EF09F0EB
:1004280020EE02F03151D9263251DA22DECF2BF1FB
:10043800DDCF2CF1D8903335D96E3435DA6E2B51A7
:10044800D9262C51DA22DECF93F0DDCF94F08EEC52
:100458004BF093C0F8F394C0F9F302EF09F0A40E3F
:100468000001906FFE0E916F010120EE02F03151F4
:10047800D9263251DA22DECF2BF1DDCF2CF1D890FC
:100488003335D96E3435DA6E2B51D9262C51DA2210
:10049800DECF92F0DDCF93F016EC46F0905191113B
:1004A80002E002EF09F0060E0101FB19FC1102E15E
:1004B80002EF09F04A6A4B6A4C6A4D6A03012F6BD6
:1004C800306B2D6B2E6B0101FC6B060EFB6F640EFF
:1004D800526E02EF09F0A40E0001906FFE0E916FAC
:1004E800010120EE02F03151D9263251DA22DECF55
:1004F8002BF1DDCF2CF1D8903335D96E3435DA6E47
:100508002B51D9262C51DA22DECF92F0DDCF93F091
:1005180016EC46F09051911102E002EF09F0030E3B
:100528000101FB19FC1102E002EF09F04A6A4B6A6B
:100538004C6A4D6A03012F6B306B2D6B2E6B0101DA
:10054800FB6BFC6B02EF09F020EE02F03151D9266B
:100558003251DA22DECF2BF1DDCF2CF1D8903335B2
:10056800D96E3435DA6E2B51D9262C51DA22DECFEA
:1005780093F0DDCF94F08EEC4BF093C0DDF494C093
:10058800DEF402EF09F0A40E0001906FFE0E916FE9
:10059800010120EE02F03151D9263251DA22DECFA4
:1005A8002BF1DDCF2CF1D8903335D96E3435DA6E96
:1005B8002B51D9262C51DA22DECF92F0DDCF93F0E1
:1005C80016EC46F09051911106E103012C6B010ED7
:1005D8002B6F02EF09F003012B6B2C6B02EF09F074
:1005E800A40E0001906FFE0E916F010120EE02F043
:1005F8003151D9263251DA22DECF2BF1DDCF2CF161
:10060800D8903335D96E3435DA6E2B51D9262C5122
:10061800DA22DECF92F0DDCF93F016EC46F090515F
:1006280091110AE10301326B010E316F0101FC6B7C
:10063800050EFB6F02EF09F0F50E906FFF0E916F3C
:10064800010120EE02F03151D9263251DA22DECFF3
:100658002BF1DDCF2CF1D8903335D96E3435DA6EE5
:100668002B51D9262C51DA22DECF92F0DDCF93F030
:1006780016EC46F09051911102E002EF09F00301E7
:10068800316B326B02EF09F0A40E0001906FFE0E81
:10069800916F010120EE02F03151D9263251DA2250
:1006A800DECF2BF1DDCF2CF1D8903335D96E343530
:1006B800DA6E2B51D9262C51DA22DECF92F0DDCF1B
:1006C80093F016EC46F09051911102E002EF09F018
:1006D8000101FB05FC1102E102EF09F0FC6B010EC0
:1006E800FB6F4A6A4B6A4C6A4D6A02EF09F0020EC8
:1006F80018EC3FF002EF09F0030E18EC3FF002EFA0
:1007080009F0040E18EC3FF002EF09F0A40E000106
:10071800906FFE0E916F010120EE02F03151D92643
:100728003251DA22DECF2BF1DDCF2CF1D8903335E0
:10073800D96E3435DA6E2B51D9262C51DA22DECF18
:1007480092F0DDCF93F016EC46F09051911102E053
:1007580002EF09F00101FC6B030EFB6F03017B6BD9
:100768007C6B7D6B7E6B0001CD6BCE6BCF6BCA6BE8
:10077800CB6BCC6BC76BC86BC96B0301126B136B6C
:10078800146B0C6B0D6B0E6B066B076B086B666B53
:10079800909E8D840001C06BC16B03012F6B306B81
:1007A8002D6B2E6BF66BF76B4A6A4B6A4C6A4D6A77
:1007B80004015E6B5F6B03016C6B6D6B7B6B7C6B19
:1007C8007D6B7E6BFD6B04015A6B5B6B0001C26B2A
:1007D8006AD1A40E0001906FFE0E916F010120EE08
:1007E80002F03151D9263251DA22DECF2BF1DDCF9A
:1007F8002CF1D8903335D96E3435DA6E2B51D92691
:100808002C51DA22DECF92F0DDCF93F016EC46F0D1
:100818009051911104E1010E03015B6F02D00301B5
:100828005B6B5C5102E102EF09F05C6B02EF09F0CF
:10083800A40E0001906FFE0E916F010120EE02F0F0
:100848003151D9263251DA22DECF2BF1DDCF2CF10E
:10085800D8903335D96E3435DA6E2B51D9262C51D0
:10086800DA22DECF92F0DDCF93F016EC46F090510D
:10087800911104E1010E0301456F02D00301456B9C
:10088800465102E102EF09F0466B02EF09F0A40EAF
:100898000001906FFE0E916F010120EE02F03151C0
:1008A800D9263251DA22DECF2BF1DDCF2CF1D890C8
:1008B8003335D96E3435DA6E2B51D9262C51DA22DC
:1008C800DECF92F0DDCF93F016EC46F09051911107
:1008D80005E1010E0301536F02EF09F00301536BA9
:1008E80002EF09F0A40E0001906FFE0E916F010156
:1008F80020EE02F03151D9263251DA22DECF2BF127
:10090800DDCF2CF1D8903335D96E3435DA6E2B51D2
:10091800D9262C51DA22DECF92F0DDCF93F016ECF7
:1009280046F09051911104E1010E03013F6F02D08E
:1009380003013F6B635102E102EF09F0636B02EFC1
:1009480009F020EE02F03151D9263251DA22DECFF9
:100958002BF1DDCF2CF1D8903335D96E3435DA6EE2
:100968002B51D9262C51DA22DECF93F0DDCF94F02B
:100978008EEC4BF093C09AF094C09BF075EC5BF052
:100988009AC010F49BC011F49CC012F402EF09F055
:10099800A40E0001906FFE0E916F010120EE02F08F
:1009A8003151D9263251DA22DECF2BF1DDCF2CF1AD
:1009B800D8903335D96E3435DA6E2B51D9262C516F
:1009C800DA22DECF92F0DDCF93F016EC46F09051AC
:1009D800911104E1010E03015E6F02D003015E6B09
:1009E800605102E102EF09F0606B02EF09F020EEBE
:1009F80002F03151D9263251DA22DECF2BF1DDCF88
:100A08002CF1D8903335D96E3435DA6E2B51D9267E
:100A18002C51DA22DECF93F0DDCF94F08EEC4BF040
:100A2800935103015F6FEAD320EE02F03151D926CA
:100A38003251DA22DECF2BF1DDCF2CF1D8903335CD
:100A4800D96E3435DA6E2B51D9262C51DA22DECF05
:100A580093F0DDCF94F08EEC4BF093510301576F78
:100A6800CDD3A40E0001906FFE0E916F010120EE10
:100A780002F03151D9263251DA22DECF2BF1DDCF07
:100A88002CF1D8903335D96E3435DA6E2B51D926FE
:100A98002C51DA22DECF92F0DDCF93F016EC46F03F
:100AA8009051911104E1010E0301FC6FA7D30301DA
:100AB800FC6B0B0E526EBAC015F3BBC016F3BCC06C
:100AC80017F3BAC00FF3BBC010F3BCC011F396D331
:100AD800A40E0001906FFE0E916F010120EE02F04E
:100AE8003151D9263251DA22DECF2BF1DDCF2CF16C
:100AF800D8903335D96E3435DA6E2B51D9262C512E
:100B0800DA22DECF92F0DDCF93F016EC46F090516A
:100B1800911102E1010E23D0AB0E906FFF0E916F81
:100B2800010120EE02F03151D9263251DA22DECF0E
:100B38002BF1DDCF2CF1D8903335D96E3435DA6E00
:100B48002B51D9262C51DA22DECF92F0DDCF93F04B
:100B580016EC46F09051911101E050D3020EC36F8C
:100B68004DD320EE02F03151D9263251DA22DECFB0
:100B78002BF1DDCF2CF1D8903335D96E3435DA6EC0
:100B88002B51D9262C51DA22DECF93F0DDCF94F009
:100B98008EEC4BF093510301726F720503E1010E65
:100BA800556F09D0725104E1550505E1556B03D025
:100BB800630E0001C26F0301565101E11FD3566B4A
:100BC8001DD3A40E0001906FFE0E916F010120EE5F
:100BD80002F03151D9263251DA22DECF2BF1DDCFA6
:100BE8002CF1D8903335D96E3435DA6E2B51D9269D
:100BF8002C51DA22DECF92F0DDCF93F016EC46F0DE
:100C08009051911107E1516A020EC36F010E030161
:100C1800646F4BD1AB0E906FFF0E916F010120EE08
:100C280002F03151D9263251DA22DECF2BF1DDCF55
:100C38002CF1D8903335D96E3435DA6E2B51D9264C
:100C48002C51DA22DECF92F0DDCF93F016EC46F08D
:100C58009051911121E0F70E906FFF0E916F0101F5
:100C680020EE02F03151D9263251DA22DECF2BF1B3
:100C7800DDCF2CF1D8903335D96E3435DA6E2B515F
:100C8800D9262C51DA22DECF92F0DDCF93F016EC84
:100C980046F09051911102E1516A44D0E00E906FF4
:100CA800FF0E916F010120EE02F03151D926325129
:100CB800DA22DECF2BF1DDCF2CF1D8903335D96E87
:100CC8003435DA6E2B51D9262C51DA22DECF92F048
:100CD800DDCF93F016EC46F09051911121E0FD0E16
:100CE800906FFF0E916F010120EE02F03151D9266D
:100CF8003251DA22DECF2BF1DDCF2CF1D89033350B
:100D0800D96E3435DA6E2B51D9262C51DA22DECF42
:100D180092F0DDCF93F016EC46F09051911104E17A
:100D2800010E516E010E45D0E30E906FFF0E916FCC
:100D3800010120EE02F03151D9263251DA22DECFFC
:100D48002BF1DDCF2CF1D8903335D96E3435DA6EEE
:100D58002B51D9262C51DA22DECF92F0DDCF93F039
:100D680016EC46F09051911121E0F90E906FFF0EAC
:100D7800916F010120EE02F03151D9263251DA2269
:100D8800DECF2BF1DDCF2CF1D8903335D96E343549
:100D9800DA6E2B51D9262C51DA22DECF92F0DDCF34
:100DA80093F016EC46F09051911105E1010E516E49
:100DB800020EC36F7AD0E20E906FFF0E916F0101A1
:100DC80020EE02F03151D9263251DA22DECF2BF152
:100DD800DDCF2CF1D8903335D96E3435DA6E2B51FE
:100DE800D9262C51DA22DECF92F0DDCF93F016EC23
:100DF80046F0905191110CE1010E516E020EC36F35
:100E0800010E03014D6F030EF96F200EF86F4DD0E0
:100E1800DF0E906FFF0E916F010120EE02F031514D
:100E2800D9263251DA22DECF2BF1DDCF2CF1D89042
:100E38003335D96E3435DA6E2B51D9262C51DA2256
:100E4800DECF92F0DDCF93F016EC46F09051911181
:100E580006E1010E516EC36F0301676F26D0FB0ECA
:100E6800906FFF0E916F010120EE02F03151D926EB
:100E78003251DA22DECF2BF1DDCF2CF1D890333589
:100E8800D96E3435DA6E2B51D9262C51DA22DECFC1
:100E980092F0DDCF93F016EC46F09051911105E1F8
:100EA800010E516EC36F03016E6F020E0001C3196C
:100EB80005E1890E0301216F080E04D0890E030194
:100EC800216F880E226F3C0E236F98D120EE02F01E
:100ED8003151D9263251DA22DECF2BF1DDCF2CF178
:100EE800D8903335D96E3435DA6E2B51D9262C513A
:100EF800DA22DECF93F0DDCF94F08EEC4BF093C086
:100F08009AF094C09BF075EC5BF09AC046F49BC0D5
:100F180047F49CC048F472D120EE02F03151D92632
:100F28003251DA22DECF2BF1DDCF2CF1D8903335D8
:100F3800D96E3435DA6E2B51D9262C51DA22DECF10
:100F480093F0DDCF94F08EEC4BF093C09AF094C000
:100F58009BF075EC5BF09AC049F49BC04AF49CC0C6
:100F68004BF44CD120EE02F03151D9263251DA221D
:100F7800DECF2BF1DDCF2CF1D8903335D96E343557
:100F8800DA6E2B51D9262C51DA22DECF93F0DDCF41
:100F980094F08EEC4BF093C09AF094C09BF075ECF3
:100FA8005BF09AC04CF49BC04DF49CC04EF426D123
:100FB80020EE02F03151D9263251DA22DECF2BF160
:100FC800DDCF2CF1D8903335D96E3435DA6E2B510C
:100FD800D9262C51DA22DECF93F0DDCF94F08EECB7
:100FE8004BF093C09AF094C09BF075EC5BF09AC0FC
:100FF8000DF19BC00EF19CC00FF130EC4BF00DC110
:1010080064F40EC165F4FAD020EE02F03151D9260D
:101018003251DA22DECF2BF1DDCF2CF1D8903335E7
:10102800D96E3435DA6E2B51D9262C51DA22DECF1F
:1010380093F0DDCF94F08EEC4BF093C09AF094C00F
:101048009BF075EC5BF09AC00DF19BC00EF19CC053
:101058000FF130EC4BF00DC166F40EC167F4CED041
:10106800A40E0001906FFE0E916F010120EE02F0B8
:101078003151D9263251DA22DECF2BF1DDCF2CF1D6
:10108800D8903335D96E3435DA6E2B51D9262C5198
:10109800DA22DECF92F0DDCF93F016EC46F09051D5
:1010A800911104E1010E03016A6FA8D003016A6B74
:1010B800A5D020EE02F03151D9263251DA22DECF06
:1010C8002BF1DDCF2CF1D8903335D96E3435DA6E6B
:1010D8002B51D9262C51DA22DECF93F0DDCF94F0B4
:1010E8008EEC4BF0935103016B6F88D0060E18EC11
:1010F8003FF084D001013051280A02E143EF01F0AA
:10110800010A02E16AEF01F0060A02E191EF01F03B
:101118006D0A02E1C6EF01F0010A02E1EDEF01F00C
:101128000A0A02E133EF02F0030A02E16FEF02F06C
:10113800010A02E1F4EF02F0070A02E148EF03F0C6
:10114800020A02E114EF02F0010A02E1A8EF02F03C
:101158001F0A02E1C7EF02F0010A02E17BEF03F088
:10116800030A02E180EF03F0010A02E185EF03F0D0
:10117800070A02E18AEF03F0010A02E1EDEF03F04A
:10118800030A02E11CEF04F0010A02E14BEF04F04C
:101198000F0A02E176EF04F0010A02E1A5EF04F07C
:1011A800030A01E141D4010A01E192D4070A01E1ED
:1011B8001ED4010A02E1CCEF04F0020A01E1D1D405
:1011C8003F0A01E14ED4050A01E1FBD4030A01E11B
:1011D8007DD6010A01E1A0D60F0A01E1C3D6010AB2
:1011E80001E1E6D6030A01E10FD7040A01E161D75C
:1011F800010A01E135D71F0A01E178D70101334B14
:10120800342B04015C510101335D3451800A2B6F8A
:1012180004015D51800A01012B59D8B012001EEF5C
:1012280001F0470E01011C5D010E1D5914E21CC19D
:1012380098F01DC199F063EC5DF098C0ABF099C0CF
:10124800ACF09AC0ADF0AE6BAF6B3E0EB06F92ECE7
:1012580046F0C0EF10F0470E1C5D010E1D591BE350
:10126800660E1C5D010E1D5916E21CC198F01DC1C9
:1012780099F063EC5DF098C0ABF099C0ACF09AC0FF
:10128800ADF00C0EAE6F020EAF6F3E0EB06F92EC6B
:1012980046F0C0EF10F0660E1C5D010E1D591BE3F1
:1012A8007A0E1C5D010E1D5916E21CC198F01DC175
:1012B80099F063EC5DF098C0ABF099C0ACF09AC0BF
:1012C800ADF0120EAE6F030EAF6F3E0EB06F92EC24
:1012D80046F0C0EF10F07A0E1C5D010E1D591BE39D
:1012E800870E1C5D010E1D5916E21CC198F01DC128
:1012F80099F063EC5DF098C0ABF099C0ACF09AC07F
:10130800ADF0190EAE6F040EAF6F3E0EB06F92ECDB
:1013180046F0C0EF10F0870E1C5D010E1D591BE34F
:10132800960E1C5D010E1D5916E21CC198F01DC1D8
:1013380099F063EC5DF098C0ABF099C0ACF09AC03E
:10134800ADF01F0EAE6F050EAF6F3E0EB06F92EC94
:1013580046F0C0EF10F0960E1C5D010E1D591BE300
:101368009F0E1C5D010E1D5916E21CC198F01DC18F
:1013780099F063EC5DF098C0ABF099C0ACF09AC0FE
:10138800ADF0250EAE6F060EAF6F3E0EB06F92EC4D
:1013980046F0C0EF10F09F0E1C5D010E1D591BE3B7
:1013A800A80E1C5D010E1D5916E21CC198F01DC146
:1013B80099F063EC5DF098C0ABF099C0ACF09AC0BE
:1013C800ADF02B0EAE6F070EAF6F3E0EB06F92EC06
:1013D80046F0C0EF10F0A80E1C5D010E1D591BE36E
:1013E800B30E1C5D010E1D5916E21CC198F01DC1FB
:1013F80099F063EC5DF098C0ABF099C0ACF09AC07E
:10140800ADF0310EAE6F080EAF6F3E0EB06F92ECBE
:1014180046F0C0EF10F0B30E1C5D010E1D591BE322
:10142800BB0E1C5D010E1D5916E21CC198F01DC1B2
:1014380099F063EC5DF098C0ABF099C0ACF09AC03D
:10144800ADF0370EAE6F090EAF6F3E0EB06F92EC77
:1014580046F0C0EF10F0BB0E1C5D010E1D591BE3DA
:10146800C00E1C5D010E1D5916E21CC198F01DC16D
:1014780099F063EC5DF098C0ABF099C0ACF09AC0FD
:10148800ADF03D0EAE6F0A0EAF6F3E0EB06F92EC30
:1014980046F0C0EF10F0C00E1C5D010E1D591BE395
:1014A800C80E1C5D010E1D5916E21CC198F01DC125
:1014B80099F063EC5DF098C0ABF099C0ACF09AC0BD
:1014C800ADF0440EAE6F0B0EAF6F3E0EB06F92ECE8
:1014D80046F0C0EF10F0C80E1C5D010E1D591BE34D
:1014E800CF0E1C5D010E1D5916E21CC198F01DC1DE
:1014F80099F063EC5DF098C0ABF099C0ACF09AC07D
:10150800ADF04A0EAE6F0C0EAF6F3E0EB06F92ECA0
:1015180046F0C0EF10F0CF0E1C5D010E1D591BE305
:10152800D40E1C5D010E1D5916E21CC198F01DC198
:1015380099F063EC5DF098C0ABF099C0ACF09AC03C
:10154800ADF0500EAE6F0D0EAF6F3E0EB06F92EC59
:1015580046F0C0EF10F0D40E1C5D010E1D591BE3C0
:10156800DF0E1C5D010E1D5916E21CC198F01DC14D
:1015780099F063EC5DF098C0ABF099C0ACF09AC0FC
:10158800ADF0560EAE6F0E0EAF6F3E0EB06F92EC12
:1015980046F0C0EF10F0DF0E1C5D010E1D591BE375
:1015A800E10E1C5D010E1D5916E21CC198F01DC10B
:1015B80099F063EC5DF098C0ABF099C0ACF09AC0BC
:1015C800ADF05C0EAE6F0F0EAF6F3E0EB06F92ECCB
:1015D80046F0C0EF10F0E10E1C5D010E1D591BE333
:1015E800E30E1C5D010E1D5916E21CC198F01DC1C9
:1015F80099F063EC5DF098C0ABF099C0ACF09AC07C
:10160800ADF0620EAE6F100EAF6F3E0EB06F92EC83
:1016180046F0C0EF10F0E30E1C5D010E1D591BE3F0
:10162800EA0E1C5D010E1D5916E21CC198F01DC181
:1016380099F063EC5DF098C0ABF099C0ACF09AC03B
:10164800ADF0680EAE6F110EAF6F3E0EB06F92EC3C
:1016580046F0C0EF10F0EA0E1C5D010E1D591BE3A9
:10166800EE0E1C5D010E1D5916E21CC198F01DC13D
:1016780099F063EC5DF098C0ABF099C0ACF09AC0FB
:10168800ADF06F0EAE6F120EAF6F3E0EB06F92ECF4
:1016980046F0C0EF10F0EE0E1C5D010E1D591BE365
:1016A800F20E1C5D010E1D5916E21CC198F01DC1F9
:1016B80099F063EC5DF098C0ABF099C0ACF09AC0BB
:1016C800ADF0750EAE6F130EAF6F3E0EB06F92ECAD
:1016D80046F0C0EF10F0F20E1C5D010E1D591BE321
:1016E800F70E1C5D010E1D5916E21CC198F01DC1B4
:1016F80099F063EC5DF098C0ABF099C0ACF09AC07B
:10170800ADF07B0EAE6F140EAF6F3E0EB06F92EC65
:1017180046F0C0EF10F0F70E1C5D010E1D591BE3DB
:10172800FB0E1C5D010E1D5916E21CC198F01DC16F
:1017380099F063EC5DF098C0ABF099C0ACF09AC03A
:10174800ADF0810EAE6F150EAF6F3E0EB06F92EC1E
:1017580046F0C0EF10F0FB0E1C5D010E1D591BE397
:10176800FE0E1C5D010E1D5916E21CC198F01DC12C
:1017780099F063EC5DF098C0ABF099C0ACF09AC0FA
:10178800ADF0870EAE6F160EAF6F3E0EB06F92ECD7
:1017980046F0C0EF10F0FE0E1C5D010E1D591BE354
:1017A800020E1C5D020E1D5916E21CC198F01DC1E7
:1017B80099F063EC5DF098C0ABF099C0ACF09AC0BA
:1017C800ADF08D0EAE6F170EAF6F3E0EB06F92EC90
:1017D80046F0C0EF10F0020E1C5D020E1D591BE30F
:1017E800050E1C5D020E1D5916E21CC198F01DC1A4
:1017F80099F063EC5DF098C0ABF099C0ACF09AC07A
:10180800ADF0930EAE6F180EAF6F3E0EB06F92EC48
:1018180046F0C0EF10F0050E1C5D020E1D591BE3CB
:10182800080E1C5D020E1D5916E21CC198F01DC160
:1018380099F063EC5DF098C0ABF099C0ACF09AC039
:10184800ADF09A0EAE6F190EAF6F3E0EB06F92EC00
:1018580046F0C0EF10F0080E1C5D020E1D591BE388
:101868000B0E1C5D020E1D5916E21CC198F01DC11D
:1018780099F063EC5DF098C0ABF099C0ACF09AC0F9
:10188800ADF0A00EAE6F1A0EAF6F3E0EB06F92ECB9
:1018980046F0C0EF10F00B0E1C5D020E1D591BE345
:1018A8000E0E1C5D020E1D5916E21CC198F01DC1DA
:1018B80099F063EC5DF098C0ABF099C0ACF09AC0B9
:1018C800ADF0A60EAE6F1B0EAF6F3E0EB06F92EC72
:1018D80046F0C0EF10F00E0E1C5D020E1D591BE302
:1018E800110E1C5D020E1D5916E21CC198F01DC197
:1018F80099F063EC5DF098C0ABF099C0ACF09AC079
:10190800ADF0AC0EAE6F1C0EAF6F3E0EB06F92EC2A
:1019180046F0C0EF10F0110E1C5D020E1D591BE3BE
:10192800150E1C5D020E1D5916E21CC198F01DC152
:1019380099F063EC5DF098C0ABF099C0ACF09AC038
:10194800ADF0B20EAE6F1D0EAF6F3E0EB06F92ECE3
:1019580046F0C0EF10F0150E1C5D020E1D591AE37B
:10196800170E1C5D020E1D5915E21CC198F01DC111
:1019780099F063EC5DF098C0ABF099C0ACF09AC0F8
:10198800ADF0B80EAE6F1E0EAF6F3E0EB06F92EC9C
:1019980046F0F2D3170E1C5D020E1D591AE31A0EFB
:1019A8001C5D020E1D5915E21CC198F01DC199F06D
:1019B80063EC5DF098C0ABF099C0ACF09AC0ADF0A4
:1019C800BE0EAE6F1F0EAF6F3E0EB06F92EC46F0BC
:1019D800D3D31A0E1C5D020E1D591AE31E0E1C5D90
:1019E800020E1D5915E21CC198F01DC199F063EC57
:1019F8005DF098C0ABF099C0ACF09AC0ADF0C50EE0
:101A0800AE6F200EAF6F3E0EB06F92EC46F0B4D3BF
:101A18001E0E1C5D020E1D591AE3200E1C5D020EDF
:101A28001D5915E21CC198F01DC199F063EC5DF0D9
:101A380098C0ABF099C0ACF09AC0ADF0CB0EAE6FC9
:101A4800210EAF6F3E0EB06F92EC46F095D3200E8C
:101A58001C5D020E1D591AE3230E1C5D020E1D5952
:101A680015E21CC198F01DC199F063EC5DF098C0B7
:101A7800ABF099C0ACF09AC0ADF0D10EAE6F220EAB
:101A8800AF6F3E0EB06F92EC46F076D3230E1C5D1E
:101A9800020E1D591AE3260E1C5D020E1D5915E291
:101AA8001CC198F01DC199F063EC5DF098C0ABF0D3
:101AB80099C0ACF09AC0ADF0D70EAE6F230EAF6FE1
:101AC8003E0EB06F92EC46F057D3260E1C5D020E08
:101AD8001D591AE3270E1C5D020E1D5915E21CC183
:101AE80098F01DC199F063EC5DF098C0ABF099C017
:101AF800ACF09AC0ADF0DD0EAE6F240EAF6F3E0EA7
:101B0800B06F92EC46F038D3270E1C5D020E1D59BB
:101B18001AE3290E1C5D020E1D5915E21CC198F02E
:101B28001DC199F063EC5DF098C0ABF099C0ACF0C2
:101B38009AC0ADF0E30EAE6F250EAF6F3E0EB06FDC
:101B480092EC46F019D3290E1C5D020E1D591AE3BA
:101B58002B0E1C5D020E1D5915E21CC198F01DC10B
:101B680099F063EC5DF098C0ABF099C0ACF09AC006
:101B7800ADF0E90EAE6F260EAF6F3E0EB06F92EC71
:101B880046F0FAD22B0E1C5D020E1D591AE32D0EDB
:101B98001C5D020E1D5915E21CC198F01DC199F07B
:101BA80063EC5DF098C0ABF099C0ACF09AC0ADF0B2
:101BB800F00EAE6F270EAF6F3E0EB06F92EC46F090
:101BC800DBD22D0E1C5D020E1D591AE32F0E1C5D73
:101BD800020E1D5915E21CC198F01DC199F063EC65
:101BE8005DF098C0ABF099C0ACF09AC0ADF0F60EBD
:101BF800AE6F280EAF6F3E0EB06F92EC46F0BCD2BF
:101C08002F0E1C5D020E1D591AE3300E1C5D020ECC
:101C18001D5915E21CC198F01DC199F063EC5DF0E7
:101C280098C0ABF099C0ACF09AC0ADF0FC0EAE6FA6
:101C3800290EAF6F3E0EB06F92EC46F09DD2300E7B
:101C48001C5D020E1D591AE3320E1C5D020E1D5951
:101C580015E21CC198F01DC199F063EC5DF098C0C5
:101C6800ABF099C0ACF09AC0ADF0020EAE6F2B0E7F
:101C7800AF6F3E0EB06F92EC46F07ED2320E1C5D16
:101C8800020E1D591AE3340E1C5D020E1D5915E291
:101C98001CC198F01DC199F063EC5DF098C0ABF0E1
:101CA80099C0ACF09AC0ADF0080EAE6F2C0EAF6FB5
:101CB8003E0EB06F92EC46F05FD2340E1C5D020E01
:101CC8001D591AE3350E1C5D020E1D5915E21CC183
:101CD80098F01DC199F063EC5DF098C0ABF099C025
:101CE800ACF09AC0ADF00E0EAE6F2D0EAF6F3E0E7B
:101CF800B06F92EC46F040D2350E1C5D020E1D59B5
:101D08001AE3370E1C5D020E1D5915E21CC198F02E
:101D18001DC199F063EC5DF098C0ABF099C0ACF0D0
:101D28009AC0ADF0140EAE6F2E0EAF6F3E0EB06FB0
:101D380092EC46F021D2370E1C5D020E1D591AE3B3
:101D4800390E1C5D020E1D5915E21CC198F01DC10B
:101D580099F063EC5DF098C0ABF099C0ACF09AC014
:101D6800ADF01B0EAE6F2F0EAF6F3E0EB06F92EC44
:101D780046F002D2390E1C5D020E1D591AE33A0EC6
:101D88001C5D020E1D5915E21CC198F01DC199F089
:101D980063EC5DF098C0ABF099C0ACF09AC0ADF0C0
:101DA800210EAE6F300EAF6F3E0EB06F92EC46F064
:101DB800E3D13A0E1C5D020E1D591AE33C0E1C5D60
:101DC800020E1D5915E21CC198F01DC199F063EC73
:101DD8005DF098C0ABF099C0ACF09AC0ADF0270E9A
:101DE800AE6F310EAF6F3E0EB06F92EC46F0C4D1BD
:101DF8003C0E1C5D020E1D591AE33D0E1C5D020EC1
:101E08001D5915E21CC198F01DC199F063EC5DF0F5
:101E180098C0ABF099C0ACF09AC0ADF02D0EAE6F83
:101E2800320EAF6F3E0EB06F92EC46F0A5D13D0E6C
:101E38001C5D020E1D5919E33F0E1C5D020E1D5953
:101E480014E21CC198F01DC199F063EC5DF098C0D4
:101E5800ABF099C0ACF09AC0ADF0330EAE6FAF6F77
:101E68003E0EB06F92EC46F087D13F0E1C5D020E1D
:101E78001D591AE3400E1C5D020E1D5915E21CC1C6
:101E880098F01DC199F063EC5DF098C0ABF099C073
:101E9800ACF09AC0ADF0390EAE6F340EAF6F3E0E97
:101EA800B06F92EC46F068D1400E1C5D020E1D59D1
:101EB8001AE3410E1C5D020E1D5915E21CC198F073
:101EC8001DC199F063EC5DF098C0ABF099C0ACF01F
:101ED8009AC0ADF03F0EAE6F350EAF6F3E0EB06FCD
:101EE80092EC46F049D1410E1C5D020E1D591AE3D1
:101EF800420E1C5D020E1D5915E21CC198F01DC151
:101F080099F063EC5DF098C0ABF099C0ACF09AC062
:101F1800ADF0460EAE6F360EAF6F3E0EB06F92EC60
:101F280046F02AD1420E1C5D020E1D591AE3430EDB
:101F38001C5D020E1D5915E21CC198F01DC199F0D7
:101F480063EC5DF098C0ABF099C0ACF09AC0ADF00E
:101F58004C0EAE6F370EAF6F3E0EB06F92EC46F080
:101F68000BD1430E1C5D020E1D591AE3440E1C5D75
:101F7800020E1D5915E21CC198F01DC199F063ECC1
:101F88005DF098C0ABF099C0ACF09AC0ADF0520EBD
:101F9800AE6F380EAF6F3E0EB06F92EC46F0ECD0DD
:101FA800440E1C5D020E1D591AE3460E1C5D020EFE
:101FB8001D5915E21CC198F01DC199F063EC5DF044
:101FC80098C0ABF099C0ACF09AC0ADF0580EAE6FA7
:101FD800390EAF6F3E0EB06F92EC46F0CDD0460E84
:101FE8001C5D020E1D591AE3470E1C5D020E1D5999
:101FF80015E21CC198F01DC199F063EC5DF098C022
:10200800ABF099C0ACF09AC0ADF05E0EAE6F3A0E70
:10201800AF6F3E0EB06F92EC46F0AED0470E1C5D2F
:10202800020E1D591AE3480E1C5D020E1D5915E2D9
:102038001CC198F01DC199F063EC5DF098C0ABF03D
:1020480099C0ACF09AC0ADF0640EAE6F3B0EAF6FA6
:102058003E0EB06F92EC46F08FD0480E1C5D020E1B
:102068001D591AE3490E1C5D020E1D5915E21CC1CB
:1020780098F01DC199F063EC5DF098C0ABF099C081
:10208800ACF09AC0ADF06A0EAE6F3C0EAF6F3E0E6C
:10209800B06F92EC46F070D0490E1C5D020E1D59CF
:1020A8001AE34A0E1C5D020E1D5915E21CC198F078
:1020B8001DC199F063EC5DF098C0ABF099C0ACF02D
:1020C8009AC0ADF0710EAE6F3D0EAF6F3E0EB06FA1
:1020D80092EC46F051D04A0E1C5D020E1D5919E3D0
:1020E8004B0E1C5D020E1D5914E21CC198F01DC157
:1020F80099F063EC5DF098C0ABF099C0ACF09AC071
:10210800ADF0770EAE6F3E0EAF6FB06F92EC46F04B
:1021180033D04B0E1C5D020E1D591AE34C0E1C5D8C
:10212800020E1D5915E21CC198F01DC199F063EC0F
:102138005DF098C0ABF099C0ACF09AC0ADF07D0EE0
:10214800AE6F3F0EAF6F3E0EB06F92EC46F014D0FC
:102158001CC198F01DC199F063EC5DF098C0ABF01C
:1021680099C0ACF09AC0ADF07D0EAE6F3F0EAF6F68
:102178003E0EB06F92EC46F0ABC01EF1ACC01FF142
:10218800ADC020F11EC10DF11FC10EF120C10FF12C
:1021980030EC4BF00DC11CF10EC11DF1120008C14D
:1021A8009DF009C19EF00AC19FF0060E0001A06FC4
:1021B800020EA26F820EA16FA46B010EA36FA66B15
:1021C800800EA56F020EA76F15C1A8F016C1A9F061
:1021D80017C1AAF018C1ABF097EC45F008C191F00F
:1021E80009C192F0080E936F29EC52F0530E0101C9
:1021F800196FCA0EE82EFED7192FFCD708C19DF01B
:1022080009C19EF00AC19FF0060E0001A06F020EE0
:10221800A26F830EA16FA46B010EA36FA66BA56FAF
:10222800020EA76F15C1A8F016C1A9F017C1AAF030
:1022380018C1ABF097EC45F008C191F009C192F0D4
:10224800080E936F29EC52F0530E0101196FCA0E54
:10225800E82EFED7192FFCD708C19DF009C19EF0C2
:102268000AC19FF0060E0001A06F020EA26F5C0E5D
:10227800A16FA46B010EA36FA66BA56B020EA76FCF
:1022880015C1A8F016C1A9F017C1AAF018C1ABF082
:1022980097EC45F008C191F009C192F0080E936FD0
:1022A80029EC52F0530E0101196FCA0EE82EFED721
:1022B800192FFCD708C100F109C101F10AC102F1C7
:1022C80015C103F116C104F117C105F118C106F1D2
:1022D800D6EC48F008C19DF009C19EF00AC19FF0F4
:1022E800060EA06F040EA26F670EA16FA46B010EFD
:1022F800A36FA66B030EA56F020EA76F15C1A8F0FA
:1023080016C1A9F017C1AAF018C1ABF097EC45F0B7
:1023180008C191F009C192F0080E936F29EC52F0B0
:10232800530E0101196FCA0EE82EFED7192FFCD7DC
:1023380008C100F109C101F10AC102F115C103F197
:1023480016C104F117C105F118C106F1D6EC48F021
:1023580008C19DF009C19EF00AC19FF0060EA06F4A
:10236800A26BD30EA16FA46B010EA36FA66BA56F12
:10237800020EA76F15C1A8F016C1A9F017C1AAF0DF
:1023880018C1ABF097EC45F008C191F009C192F083
:10239800080E936F29EC52F0530E0101196FCA0E03
:1023A800E82EFED7192FFCD708C100F109C101F1A9
:1023B8000AC102F115C103F116C104F117C105F1F3
:1023C80018C106F1D6EC48F008C19DF009C19EF08D
:1023D8000AC19FF0060EA06FA26BD40EA16FA46B6A
:1023E800010EA36FA66BA56F020EA76F15C1A8F00B
:1023F80016C1A9F017C1AAF018C1ABF097EC45F0C7
:1024080008C191F009C192F0080E936F29EC52F0BF
:10241800530E0101196FCA0EE82EFED7192FFCD7EB
:1024280008C100F109C101F10AC102F115C103F1A6
:1024380016C104F117C105F118C106F1D6EC48F030
:1024480008C19DF009C19EF00AC19FF0060EA06F59
:10245800A26BD50EA16FA46B010EA36FA66BA56F1F
:10246800020EA76F15C1A8F016C1A9F017C1AAF0EE
:1024780018C1ABF097EC45F008C191F009C192F092
:10248800080E936F29EC52F0530E0101196FCA0E12
:10249800E82EFED7192FFCD708C100F109C101F1B8
:1024A8000AC102F115C103F116C104F117C105F102
:1024B80018C106F1D6EC48F008C19DF009C19EF09C
:1024C8000AC19FF0060EA06FA26BD60EA16FA46B77
:1024D800010EA36FA66BA56F020EA76F15C1A8F01A
:1024E80016C1A9F017C1AAF018C1ABF097EC45F0D6
:1024F80008C191F009C192F0080E936F29EC52F0CF
:10250800530E0101196FCA0EE82EFED7192FFCD7FA
:1025180008C100F109C101F10AC102F115C103F1B5
:1025280016C104F117C105F118C106F1D6EC48F03F
:1025380008C19DF009C19EF00AC19FF0060EA06F68
:10254800A26BD70EA16FA46B010EA36FA66BA56F2C
:10255800020EA76F15C1A8F016C1A9F017C1AAF0FD
:1025680018C1ABF097EC45F008C191F009C192F0A1
:10257800080E936F29EC52F0530E0101196FCA0E21
:10258800E82EFED7192FFCD708C100F109C101F1C7
:102598000AC102F115C103F116C104F117C105F111
:1025A80018C106F1D6EC48F0040008C19DF009C135
:1025B8009EF00AC19FF0060E0001A06FA26BD80E14
:1025C800A16FA46B010EA36FA66BA56F020EA76F78
:1025D80015C1A8F016C1A9F017C1AAF018C1ABF02F
:1025E80097EC45F008C191F009C192F0080E936F7D
:1025F80029EC52F0530E0101196FCA0EE82EFED7CE
:10260800192FFCD708C100F109C101F10AC102F173
:1026180015C103F116C104F117C105F118C106F17E
:10262800D6EC48F008C19DF009C19EF00AC19FF0A0
:10263800060EA06FA26BD90EA16FA46B010EA36F3B
:10264800A66BA56F020EA76F15C1A8F016C1A9F059
:1026580017C1AAF018C1ABF097EC45F008C191F08A
:1026680009C192F0080E936F29EC52F0530E010144
:10267800196FCA0EE82EFED7192FFCD708C100F132
:1026880009C101F10AC102F115C103F116C104F132
:1026980017C105F118C106F1D6EC48F008C19DF044
:1026A80009C19EF00AC19FF0060EA06FA26BDA0E58
:1026B800A16FA46B010EA36FA66BA56F020EA76F87
:1026C80015C1A8F016C1A9F017C1AAF018C1ABF03E
:1026D80097EC45F008C191F009C192F0080E936F8C
:1026E80029EC52F0530E0101196FCA0EE82EFED7DD
:1026F800192FFCD708C100F109C101F10AC102F183
:1027080015C103F116C104F117C105F118C106F18D
:10271800D6EC48F008C19DF009C19EF00AC19FF0AF
:10272800060EA06FA26BDD0EA16FA46B010EA36F46
:10273800A66BA56F020EA76F15C1A8F016C1A9F068
:1027480017C1AAF018C1ABF097EC45F008C191F099
:1027580009C192F0080E936F29EC52F0530E010153
:10276800196FCA0EE82EFED7192FFCD708C100F141
:1027780009C101F10AC102F115C103F116C104F141
:1027880017C105F118C106F1D6EC48F008C19DF053
:1027980009C19EF00AC19FF0060EA06FA26BDE0E63
:1027A800A16FA46B010EA36FA66BA56F020EA76F96
:1027B80015C1A8F016C1A9F017C1AAF018C1ABF04D
:1027C80097EC45F008C191F009C192F0080E936F9B
:1027D80029EC52F0530E0101196FCA0EE82EFED7EC
:1027E800192FFCD708C100F109C101F10AC102F192
:1027F80015C103F116C104F117C105F118C106F19D
:10280800D6EC48F008C19DF009C19EF00AC19FF0BE
:10281800060EA06FA26BDF0EA16FA46B010EA36F53
:10282800A66BA56F020EA76F15C1A8F016C1A9F077
:1028380017C1AAF018C1ABF097EC45F008C191F0A8
:1028480009C192F0080E936F29EC52F0530E010162
:10285800196FCA0EE82EFED7192FFCD708C100F150
:1028680009C101F10AC102F115C103F116C104F150
:1028780017C105F118C106F1D6EC48F008C19DF062
:1028880009C19EF00AC19FF0060EA06FA26BE00E70
:10289800A16FA46B010EA36FA66BA56F020EA76FA5
:1028A80015C1A8F016C1A9F017C1AAF018C1ABF05C
:1028B80097EC45F008C191F009C192F0080E936FAA
:1028C80029EC52F0530E0101196FCA0EE82EFED7FB
:1028D800192FFCD708C100F109C101F10AC102F1A1
:1028E80015C103F116C104F117C105F118C106F1AC
:1028F800D6EC48F0040008C19DF009C19EF00AC159
:102908009FF0060E0001A06FA26BE10EA16FA46BF1
:10291800010EA36FA66BA56F020EA76F15C1A8F0D5
:1029280016C1A9F017C1AAF018C1ABF097EC45F091
:1029380008C191F009C192F0080E936F29EC52F08A
:10294800530E0101196FCA0EE82EFED7192FFCD7B6
:1029580008C100F109C101F10AC102F115C103F171
:1029680016C104F117C105F118C106F1D6EC48F0FB
:1029780008C19DF009C19EF00AC19FF0060EA06F24
:10298800A26BE20EA16FA46B010EA36FA66BA56FDD
:10299800020EA76F15C1A8F016C1A9F017C1AAF0B9
:1029A80018C1ABF097EC45F008C191F009C192F05D
:1029B800080E936F29EC52F0530E0101196FCA0EDD
:1029C800E82EFED7192FFCD708C100F109C101F183
:1029D8000AC102F115C103F116C104F117C105F1CD
:1029E80018C106F1D6EC48F008C19DF009C19EF067
:1029F8000AC19FF0060EA06FA26BE30EA16FA46B35
:102A0800010EA36FA66BA56F020EA76F15C1A8F0E4
:102A180016C1A9F017C1AAF018C1ABF097EC45F0A0
:102A280008C191F009C192F0080E936F29EC52F099
:102A3800530E0101196FCA0EE82EFED7192FFCD7C5
:102A480008C100F109C101F10AC102F115C103F180
:102A580016C104F117C105F118C106F1D6EC48F00A
:102A680008C19DF009C19EF00AC19FF0060EA06F33
:102A7800A26BE40EA16FA46B010EA36FA66BA56FEA
:102A8800020EA76F15C1A8F016C1A9F017C1AAF0C8
:102A980018C1ABF097EC45F008C191F009C192F06C
:102AA800080E936F29EC52F0530E0101196FCA0EEC
:102AB800E82EFED7192FFCD708C100F109C101F192
:102AC8000AC102F115C103F116C104F117C105F1DC
:102AD80018C106F1D6EC48F008C19DF009C19EF076
:102AE8000AC19FF0060EA06F010EA26FFA0EA16F29
:102AF800A46B010EA36F11C1A5F012C1A6F0020EBE
:102B0800A76F15C1A8F016C1A9F017C1AAF018C17E
:102B1800ABF097EC45F008C191F009C192F0080EAE
:102B2800936F29EC52F0530E0101196FCA0EE82E6B
:102B3800FED7192FFCD708C100F109C101F10AC15C
:102B480002F115C103F116C104F117C105F118C14D
:102B580006F1D6EC48F008C19DF009C19EF00AC103
:102B68009FF0060EA06F010EA26FFB0EA16FA46B63
:102B7800010EA36F0BC1A5F00CC1A6F0020EA76F42
:102B880015C1A8F016C1A9F017C1AAF018C1ABF079
:102B980097EC45F008C191F009C192F0080E936FC7
:102BA80029EC52F0530E0101196FCA0EE82EFED718
:102BB800192FFCD708C100F109C101F10AC102F1BE
:102BC80015C103F116C104F117C105F118C106F1C9
:102BD800D6EC48F008C19DF009C19EF00AC19FF0EB
:102BE800060EA06F010EA26FFC0EA16FA46B010E62
:102BF800A36F0DC1A5F00EC1A6F0020EA76F15C1F7
:102C0800A8F016C1A9F017C1AAF018C1ABF097EC4B
:102C180045F008C191F009C192F0080E936F29ECB4
:102C280052F0530E0101196FCA0EE82EFED7192F64
:102C3800FCD708C100F109C101F10AC102F115C1AF
:102C480003F116C104F117C105F118C106F1D6EC5C
:102C580048F0040008C19DF009C19EF00AC19FF028
:102C6800060E0001A06F010EA26FFD0EA16FA46BEE
:102C7800010EA36F0FC1A5F010C1A6F0020EA76F39
:102C880015C1A8F016C1A9F017C1AAF018C1ABF078
:102C980097EC45F008C191F009C192F0080E936FC6
:102CA80029EC52F0530E0101196FCA0EE82EFED717
:102CB800192FFCD708C100F109C101F10AC102F1BD
:102CC80015C103F116C104F117C105F118C106F1C8
:102CD800D6EC48F008C19DF009C19EF00AC19FF0EA
:102CE800060EA06F010EA26FFE0EA16FA46B010E5F
:102CF800A36F13C1A5F014C1A6F0020EA76F15C1EA
:102D0800A8F016C1A9F017C1AAF018C1ABF097EC4A
:102D180045F008C191F009C192F0080E936F29ECB3
:102D280052F0530E0101196FCA0EE82EFED7192F63
:102D3800FCD708C100F109C101F10AC102F115C1AE
:102D480003F116C104F117C105F118C106F1D6EC5B
:102D580048F008C100F109C101F10AC102F1020EEF
:102D68000101036F15C104F116C105F117C106F180
:102D780018C107F1ACEC55F008C19DF009C19EF0EF
:102D88000AC19FF0060EA06F020EA26F820EA16FFD
:102D9800A46B010EA36FA66B810EA56F020EA76F21
:102DA80015C1A8F016C1A9F017C1AAF018C1ABF057
:102DB80097EC45F001011A6F08C191F009C192F032
:102DC800080E0001936F29EC52F001011A6F530E9F
:102DD800196FCA0EE82EFED7192FFCD7040001017F
:102DE8001A511200CBC4FAF2CCC4FBF2CDC4FCF2E7
:102DF800CEC4FDF2CFC4FEF2D0C4FFF2D1C4BDF3FD
:102E0800D2C4BEF3D3C4BFF3D4C4C0F3D5C4C1F392
:102E1800D6C4C2F3D7C4C3F3D8C4C4F3D9C4C5F362
:102E2800DAC4C6F3DBC4C7F3DCC4C8F3040E030179
:102E3800FD65040CFD6B0001C25101E016D1D8906C
:102E48000101FB35F66EFC35F76E0F0EF626F90E0E
:102E5800F722F86A000EF8220900F5CF90F00A0070
:102E6800F5CF91F072EC59F091511EE1370E905D5B
:102E7800D8B01AD0B00E906F050E916FD89001019E
:102E8800FB35F66EFC35F76E0F0EF626F90EF722B7
:102E9800F86A000EF8220900F5CF92F00A00F5CF83
:102EA80093F0FCEC5BF00AD0B00E906F050E916FBA
:102EB800D60E926FFF0E936FFCEC5BF0B00E000124
:102EC800946F050E956FEB0E966FFF0E976FB00E11
:102ED800906F050E916F72EC59F090513808986F09
:102EE8009151D8A0E82A0008996FACEC56F0000E72
:102EF80078EC5CF0040E0101FB19FC1101E0D9D05B
:102F08000301FC510CE0B00E0001906F050E916FAB
:102F1800970E926FFF0E936FFCEC5BF0CAD0B00E69
:102F28000001906F050E916F8F0E926FFF0E936FD9
:102F3800FCEC5BF0BED0B00E906F050E916F430EA7
:102F4800926FFF0E936FFCEC5BF0AFD0B00E906FFA
:102F5800050E916FF30E926FFE0E936FFCEC5BF013
:102F6800A4D0B00E906F050E916FA60E926FFF0E53
:102F7800936FFCEC5BF099D0B00E906F050E916FDB
:102F8800670E926FFD0E936FFCEC5BF08ED0B00E67
:102F9800906F050E916F4C0E926FFF0E936FFCECC5
:102FA8005BF083D0B00E906F050E916FEB0E926FB1
:102FB800FD0E936FFCEC5BF078D0B00E906F050EB1
:102FC800916FFD0E926FFE0E936FFCEC5BF06DD06F
:102FD800B00E906F050E916F070E926FFF0E936FF4
:102FE800FCEC5BF062D0B00E906F050E916F110E85
:102FF800926FFF0E936FFCEC5BF057D0B00E906FA2
:10300800050E916FF80E926FFD0E936FFCEC5BF05E
:103018004CD0B00E906F050E916F050E926FFE0E9C
:10302800936FFCEC5BF041D0B00E906F050E916F82
:10303800760E926FFD0E936FFCEC5BF036D0B00EFF
:10304800906F050E916F120E926FFE0E936FFCEC4F
:103058005BF02BD0B00E906F050E916F670E926FDC
:10306800FF0E936FFCEC5BF020D0C251010A01E126
:1030780062D7030A01E16AD7010A01E172D7070A98
:1030880001E17AD7010A83E0030A8CE0010A95E09E
:103098000F0A9EE0010AA7E0030AB0E0010AB9E0BE
:1030A800070AC2E0010ACBE0D5D7010E78EC5CF044
:1030B800C26B7BC3A6F07CC3A7F07DC3A8F07EC318
:1030C800A9F0C90E0001AA6F030EAB6FCB0EAC6F4F
:1030D800030EAD6FCD0EAE6F030EAF6FB7EC4DF0B4
:1030E80088A21AD068C460F469C461F437C362F472
:1030F80038C363F4B7C03AF4B8C03BF4B9C03CF481
:10310800BAC037F4BBC038F4BCC039F4BDC03DF414
:10311800BEC03EF4BFC03FF4000E01011E6F020E98
:103128001F6F850E206FFD0E216FC9C322F1CAC320
:1031380023F1CBC324F1CCC325F1CDC326F1CEC3F3
:1031480027F105EC1DF07E0E1E6F010E1F6FC20EDB
:10315800206FFF0E216F09C322F10AC323F10BC3AD
:1031680024F105EC1DF0650E1E6F010E1F6FCC0ECD
:10317800206FFF0E216F3AC422F13BC423F13CC4F7
:1031880024F105EC1DF0970E1E6F010E1F6FCC0E7B
:10319800206FFF0E216F37C422F138C423F139C4E0
:1031A80024F105EC1DF0E20E1E6F010E1F6FD10E0B
:1031B800206FFF0E216F60C422F161C423F105EC7A
:1031C8001DF0C90E1E6F010E1F6FD10E206FFF0E6E
:1031D800216F62C422F163C423F105EC1DF0B00E27
:1031E8001E6F010E1F6FCC0E206FFF0E216F3DC4A6
:1031F80022F13EC423F13FC424F105EC1DF04C0E2E
:103208001E6F010E1F6FE80E206FFF0E216F66C341
:1032180022F1236B05EC1DF0190E1E6F020E1F6FB5
:10322800C70E206FFF0E216F12C322F113C323F1C3
:1032380014C324F105EC1DF0320E1E6F020E1F6F31
:10324800C70E206FFF0E216F0CC322F10DC323F1AF
:103258000EC324F105EC1DF04B0E1E6F020E1F6FFE
:10326800C70E206FFF0E216F06C322F107C323F19B
:1032780008C324F105EC1DF0640E1E6F020E1F6FCB
:10328800AD0E206FFF0E216FCDC022F1CEC023F10D
:10329800CFC024F105EC1DF07D0E1E6F020E1F6FCE
:1032A800AD0E206FFF0E216FCAC022F1CBC023F1F3
:1032B800CCC024F105EC1DF0960E1E6F020E1F6F98
:1032C800AD0E206FFF0E216FC7C022F1C8C023F1D9
:1032D800C9C024F105EC1DF0E10E1E6F020E1F6F30
:1032E800E80E206FFF0E216F29C322F12AC323F1B4
:1032F80005EC1DF0DF0E1E6F040E1F6FE80E206F29
:10330800FF0E216F54C422F155C423F105EC1DF0C2
:10331800C80E1E6F020E1F6FC20E206FFF0E216FA8
:103328004FC422F150C423F151C424F105EC1DF01F
:10333800AF0E1E6F020E1F6FE80E206FFF0E216F7B
:1033480059C322F1236B05EC1DF0000E1E6F0A0E07
:103358001F6FE80E206FFF0E216F6FC322F1236BE2
:1033680005EC1DF0A40E1E6F030E1F6FC70E206F15
:10337800FF0E216FC4C022F1C5C023F1C6C024F1DD
:1033880005EC1DF08B0E1E6F030E1F6FC70E206F0E
:10339800FF0E216F7FC322F180C323F181C324F183
:1033A80005EC1DF00C0E0001A66F050EA76F5E0E52
:1033B800A86FFF0EA96F650EAA6F010EAB6FA8EC80
:1033C80049F00C0EA66F050EA76F390EA86FFE0EFA
:1033D800A96F970EAA6F010EAB6FA8EC49F00C0EFF
:1033E800A66F050EA76F2F0EA86FFF0EA96FB00E60
:1033F800AA6F010EAB6FA8EC49F00C0EA66F050E74
:10340800A76F770EA86FFE0EA96FE20EAA6F010EC6
:10341800AB6FA8EC49F00C0EA66F050EA76F460E11
:10342800A86FFE0EA96FC90EAA6F010EAB6FA8ECAC
:1034380049F00C0EA66F050EA76FBC0EA86FFE0E06
:10344800A96FA40EAA6FFE0EAB6FA8EC49F00C0E84
:10345800A66F050EA76FBB0EA86FFF0EA96FB00E63
:10346800AA6F050EAB6FA8EC49F00C0EA66F050EFF
:10347800A76F6F0EA86FFF0EA96F000EAA6F020E3E
:10348800AB6FA8EC49F00C0EA66F050EA76F770E70
:10349800A86FFF0EA96F7E0EAA6F010EAB6FA8EC86
:1034A80049F00C0EA66F050EA76F7F0EA86FFF0ED2
:1034B800A96FE10EAA6F020EAB6FA8EC49F00C0ED3
:1034C800A66F050EA76FB40EA86FFF0EA96FDF0ECB
:1034D800AA6F040EAB6FA8EC49F00C0EA66F050E90
:1034E800A76FE80EA86FFE0EA96FC80EAA6F020E8E
:1034F800AB6FA8EC49F00C0EA66F050EA76F550E22
:10350800A86FFF0EA96FAF0EAA6F020EAB6FA8ECE3
:1035180049F0190E01011E6F0A0E1F6FC70E206FAA
:10352800FF0E216F1BC322F11CC323F11DC324F11D
:1035380005EC1DF00C0E0001A66F050EA76F870E97
:10354800A86FFF0EA96F190EAA6F0A0EAB6FA8EC31
:1035580049F00C0EA66F050EA76F470EA86FFD0E5B
:10356800A96F9B0EAA6FFE0EAB6FA8EC49F00C0E6C
:10357800A66F050EA76FEA0EA86FFC0EA96F190EAD
:10358800AA6F020EAB6FA8EC49F00C0EA66F050EE1
:10359800A76F130EA86FFD0EA96F320EAA6F020E49
:1035A800AB6FA8EC49F00C0EA66F050EA76FA70E1F
:1035B800A86FFC0EA96F4B0EAA6F020EAB6FA8EC9A
:1035C80049F00C0EA66F050EA76FA60EA86FFE0E8B
:1035D800A96F7D0EAA6F020EAB6FA8EC49F00C0E16
:1035E800A66F050EA76F1F0EA86FFE0EA96F640EBB
:1035F800AA6F020EAB6FA8EC49F00C0EA66F050E71
:10360800A76F570EA86FFD0EA96F960EAA6F020E30
:10361800AB6FA8EC49F00C0EA66F050EA76FDD0E78
:10362800A86FFE0EA96FA40EAA6F030EAB6FA8ECCD
:1036380049F00C0EA66F050EA76FC70EA86FFE0EF9
:10364800A96F000EAA6F0A0EAB6FA8EC49F00C0E1A
:10365800A66F050EA76FD20EA86FFE0EA96F8B0E70
:10366800AA6F030EAB6FA8EC49F00301465144E181
:10367800560E0201FA6F030145511EE00C0E0001BF
:10368800A66F050EA76FFA0EA86F020EA96FA40EFB
:10369800AA6FFE0EAB6FA8EC49F00C0EA66F050ED4
:1036A800A76F250EA86FFF0EA96FA40EAA6FFE0EB6
:1036B800AB6FA8EC49F01DD00C0E0001A66F050EEB
:1036C800A76FFA0EA86F020EA96FF50EAA6FFF0E6C
:1036D800AB6FA8EC49F00C0EA66F050EA76F250E70
:1036E800A86FFF0EA96FF50EAA6FFF0EAB6FA8ECBF
:1036F80049F0010E0301466F5C5144E1550E020189
:10370800FD6F03015B511EE00C0E0001A66F050E54
:10371800A76FFD0EA86F020EA96FA40EAA6FFE0E6A
:10372800AB6FA8EC49F00C0EA66F050EA76FB10E93
:10373800A86FFE0EA96FA40EAA6FFE0EAB6FA8ECC1
:1037480049F01DD00C0E0001A66F050EA76FFD0EE7
:10375800A86F020EA96FF50EAA6FFF0EAB6FA8EC4B
:1037680049F00C0EA66F050EA76FB10EA86FFE0EDE
:10377800A96FF50EAA6FFF0EAB6FA8EC49F0010E0A
:1037880003015C6F545142E1570EBD6F53511EE067
:103798000C0E0001A66F050EA76FBD0EA86F030ED5
:1037A800A96FA40EAA6FFE0EAB6FA8EC49F00C0E21
:1037B800A66F050EA76FD00EA86FFD0EA96FA40EF9
:1037C800AA6FFE0EAB6FA8EC49F01DD00C0E0001DD
:1037D800A66F050EA76FBD0EA86F030EA96FF50E95
:1037E800AA6FFF0EAB6FA8EC49F00C0EA66F050E82
:1037F800A76FD00EA86FFD0EA96FF50EAA6FFF0E6A
:10380800AB6FA8EC49F0010E0301546F635142E11C
:10381800580EC06F3F511EE00C0E0001A66F050E3A
:10382800A76FC00EA86F030EA96FA40EAA6FFE0E95
:10383800AB6FA8EC49F00C0EA66F050EA76F5F0ED4
:10384800A86FFE0EA96FA40EAA6FFE0EAB6FA8ECB0
:1038580049F01DD00C0E0001A66F050EA76FC00E13
:10386800A86F030EA96FF50EAA6FFF0EAB6FA8EC39
:1038780049F00C0EA66F050EA76F5F0EA86FFE0E1F
:10388800A96FF50EAA6FFF0EAB6FA8EC49F0010EF9
:103898000301636F605142E15D0EC36F5E511EE02C
:1038A8000C0E0001A66F050EA76FC30EA86F030EBE
:1038B800A96FA40EAA6FFE0EAB6FA8EC49F00C0E10
:1038C800A66F050EA76F6B0EA86FFE0EA96FA40E4C
:1038D800AA6FFE0EAB6FA8EC49F01DD00C0E0001CC
:1038E800A66F050EA76FC30EA86F030EA96FF50E7E
:1038F800AA6FFF0EAB6FA8EC49F00C0EA66F050E71
:10390800A76F6B0EA86FFE0EA96FF50EAA6FFF0EBC
:10391800AB6FA8EC49F0010E0301606F565142E10C
:103928005F0EC66F55511EE00C0E0001A66F050E06
:10393800A76FC60EA86F030EA96FA40EAA6FFE0E7E
:10394800AB6FA8EC49F00C0EA66F050EA76F2C0EF6
:10395800A86FFE0EA96FA40EAA6FFE0EAB6FA8EC9F
:1039680049F01DD00C0E0001A66F050EA76FC60EFC
:10397800A86F030EA96FF50EAA6FFF0EAB6FA8EC28
:1039880049F00C0EA66F050EA76F2C0EA86FFE0E41
:10399800A96FF50EAA6FFF0EAB6FA8EC49F0010EE8
:1039A8000301566FAE0E0001906F060E916F72EC18
:1039B80059F0915103E1020E905D0EE30C0EA66FD3
:1039C800050EA76F1B0EA86FFF0EA96FAE0EAA6F8C
:1039D800060EAB6FA8EC49F08A0EAD6F0D0EAE6FF8
:1039E8000C0EAF6F050EB06F95EC5EF0AE0E0001D9
:1039F800906F060E916FA60E926FFC0E936FFCEF00
:103A08005BF0220E346F010E356FEFEF22F0250EBA
:103A18004B190AE01EC1D9FF1FC1DAFF4BC1DFFFF6
:103A28001E4B1F2BEFEF22F0476B486B456B466B25
:103A380003D04585204B212B20C1F6FF21C1F7FF7C
:103A4800F86A0800F550300AF4E020C1F6FF21C1F9
:103A5800F7FFF86A0800F55004EC5EF032E3010164
:103A6800476B486B47C190F048C191F00001936BD8
:103A78000A0E926F89EC5DF090C047F191C048F151
:103A8800D00E0101286F296920C1F6FF21C1F7FF77
:103A9800F86A0800F5502A6F2B6B28512A272951FC
:103AA8002B232A5147272B514823204B212B20C158
:103AB800F6FF21C1F7FFF86A0800F55004EC5EF044
:103AC800D1E220C1F6FF21C1F7FFF86A0800F550DE
:103AD8002E0A2FE10101468D204B212B496B4A6BA1
:103AE8001CD00A0E01014903F3CF28F1F4CF29F1C4
:103AF8004A03F350292720C1F6FF21C1F7FFF86ACE
:103B08000800F5502827000E2923D00E2825496FD4
:103B1800FF0E29214A6F204B212B20C1F6FF21C11E
:103B2800F7FFF86A0800F55004EC5EF001E28ED069
:103B3800D8D70101496B4A6B468988D04685A6D0FB
:103B4800458FA4D034C1D9FF35C1DAFFDECF32F1B9
:103B5800DDCF33F1020E3427000E352332513311F5
:103B680004E19F0E326FFF0E336F366B376B03D055
:103B78000101364B372B36513225286F3751332107
:103B8800296F28C1F6FF29C1F7FF000EF86E0F0E46
:103B9800F76403D00800F55005D0F6CFE9FFF7CF5A
:103BA800EAFFEF500009E4E1010149514A1109E037
:103BB8003651495D37514A5904E249C136F14AC183
:103BC80037F14751365D4851375905E23651475F5D
:103BD8003751485B0BD0476B486B08D01EC1D9FFE3
:103BE8001FC1DAFF200EDF6E1E4B1F2B4707D8A020
:103BF80048074729F3E148291CE0F0D732C1F6FF0E
:103C080033C1F7FF000EF86E1EC1D9FF1FC1DAFFDE
:103C18000F0EF76403D00800F55005D0F6CFE9FF82
:103C2800F7CFEAFFEF50DF6E0101324B332B1E4B0B
:103C38001F2B3607D8A037073629E0E1372902E1DC
:103C4800EFEF22F0DBD7C00E451320D020C1F6FFDE
:103C580021C1F7FF0101204B212BF86A0800F5CF9D
:103C68004BF14B5102E1FDEF22F0640A0FE0020A2A
:103C780001E164D70F0A0AE01A0A01E163D7060ACC
:103C8800E2E00D0A01E15CD7EFEF22F0070E4615DE
:103C980001E104D346A903D04A6B060E496F34C12B
:103CA800D9FF35C1DAFFDECF42F1DECF43F1DDCFF8
:103CB80044F1030E3427000E352344AF11D042C11E
:103CC80090F043C191F044C192F02FEC5EF090C0A7
:103CD80042F191C043F192C044F1030E0101451332
:103CE8003C6B3D6B42514311441101E180D0820E7F
:103CF800286F296942C12AF143C12BF144C12CF133
:103D080045C12DF1100E05D0D8902D332C332B330F
:103D18002A33E82EF9D72A5128253C6F000E29218D
:103D28003D6F3C07D8A03D073CC190F03DC191F0E4
:103D38000001936B030E926F89EC5DF090C03CF12B
:103D480091C03DF13CC196F03DC197F0996B0A0EC8
:103D5800986FE9EC53F096C03CF197C03DF1010132
:103D68003DAF03D03C07D8A03D073C510008B0EC5C
:103D78002EF0B4C038F1B5C039F1B6C03AF138C147
:103D8800ABF039C1ACF03AC1ADF042C1AEF043C1BD
:103D9800AFF044C1B0F092EC46F0ABC038F1ACC023
:103DA80039F1ADC03AF138C190F039C191F03AC15A
:103DB80092F0936B800E946F3F0E956F69EC57F0FD
:103DC80005E201013C07D8A03D0711D038C190F0A9
:103DD80039C191F03AC192F0936B200E946F410E65
:103DE800956F69EC57F003E301013C4B3D2B010152
:103DF8004ABF06D04A511BE10D0E495DD8B017D015
:103E080042C10CF143C10DF144C10EF149511DEC01
:103E18003EF0B4C00FF1B5C010F1B6C011F154ECCA
:103E280041F00CC142F10DC143F10EC144F1010151
:103E38003DBF06D03D511CE10A0E3C5DD8B018D0FC
:103E480042514311441150E042C10DF143C10EF1FA
:103E580044C10FF130EC4BF00D510E110F11101140
:103E6800D8B43DBF41D03D5103E1020E3C5D3CE377
:103E780038C190F039C191F03AC192F0700E00014A
:103E8800936F890E946F400E956F69EC57F003E2BB
:103E98000101F70E02D00101F80E3C27FF0E3D2369
:103EA8003C51B0EC2EF0B4C038F1B5C039F1B6C011
:103EB8003AF142C190F043C191F044C192F038C147
:103EC80093F039C194F03AC195F03FEC49F090C0B5
:103ED8003EF191C03FF192C040F193C041F1010120
:103EE800426B436B446B31D042C10DF143C10EF1BB
:103EF80044C10FF130EC4BF00DC13EF10EC13FF162
:103F08000FC140F110C141F142C118F143C119F18B
:103F180044C11AF13EC198F03FC199F040C19AF0EE
:103F280041C19BF048EC58F098C01BF199C01CF1B6
:103F38009AC01DF107EC5BF018C142F119C143F1B9
:103F48001AC144F101013C6B3D6B010E4B6F4B51A3
:103F5800040D1F0EF324F66EFB0EF420F76EF86ABC
:103F6800000EF8220900F5503E5D0900F5503F5952
:103F78000900F55040590900F550415904E34B2B0D
:103F88000A0E4B19E4E14BC128F1296B28BF290718
:103F9800495128274A5129233C5128273D51292393
:103FA8002851475F2951485B49514A1103E04707A7
:103FB800D8A0480745C128F1030E281703E0470792
:103FC800D8A0480745A52BD045C128F1030E2817CE
:103FD80014E01EC1D9FF1FC1DAFF2D0EDF6E1E4B84
:103FE8001F2B0BD01EC1D9FF1FC1DAFF300EDF6EA9
:103FF8001E4B1F2B4707D8A0480748BF6DD0485114
:10400800F1E1470569E3EED71EC1D9FF1FC1DAFF09
:10401800200EDF6E1E4B1F2B4707D8A0480748BF4E
:1040280005D04851F1E14705D8B0EED745C128F190
:10403800030E281751E01EC1D9FF1FC1DAFF2D0E4C
:10404800DF6E1E4B1F2B48D03EC190F03FC191F050
:1040580040C192F041C193F04B51040D1F0EF3245F
:10406800F66EFB0EF420F76EF86A000EF8220900CF
:10407800F5CF94F00900F5CF95F00900F5CF96F04B
:104088000A00F5CF97F025EC54F090C038F191C0B4
:1040980039F192C03AF193C03BF138C19DF039C172
:1040A8009EF03AC19FF03BC1A0F00A0EA16FA26B2F
:1040B800A36BA46B7AEC56F09DC038F19EC039F121
:1040C8009FC03AF1A0C03BF101013851300F1EC129
:1040D800D9FF1FC1DAFFB4D74B074B290CE0B4D77F
:1040E8001EC1D9FF1FC1DAFF300EDF6E1E4B1F2B1A
:1040F8003C07D8A03D073DBF05D03D51F1E13C0547
:10410800D8B0EED74ABF08D04A5103E1090E495D3D
:1041180003E3080E4B6F02D049C14BF14B51495F85
:10412800000E4BBFFF0E4A5B4B5108E01EC1D9FF82
:104138001FC1DAFF2E0EDF6E1E4B1F2B4B51B0EC4A
:104148002EF0B4C02EF1B5C02FF1B6C030F142C187
:10415800AEF043C1AFF044C1B0F02EC1ABF02FC1F7
:10416800ACF030C1ADF092EC46F0ABC00DF1ACC094
:104178000EF1ADC00FF130EC4BF00DC13EF10EC1A8
:104188003FF10FC140F110C141F173D03EC190F031
:104198003FC191F040C192F041C193F04B51040DE1
:1041A8001F0EF324F66EFB0EF420F76EF86A000E6D
:1041B800F8220900F5CF94F00900F5CF95F0090031
:1041C800F5CF96F00A00F5CF97F025EC54F090C0A3
:1041D80038F191C039F192C03AF193C03BF138C13E
:1041E8009DF039C19EF03AC19FF03BC1A0F00A0E84
:1041F800A16FA26BA36BA46B7AEC56F09DC038F14B
:104208009EC039F19FC03AF1A0C03BF1010138517D
:10421800300F1EC1D9FF1FC1DAFFDF6E1E4B1F2BE7
:104228003EC19DF03FC19EF040C19FF041C1A0F04A
:104238004B51040D1F0EF324F66EFB0EF420F76E9F
:10424800F86A000EF8220900F5CFA1F00900F5CFB1
:10425800A2F00900F5CFA3F00A00F5CFA4F07AEC9C
:1042680056F09DC03EF19EC03FF19FC040F1A0C0F6
:1042780041F101014B074B290CE088D71EC1D9FF3A
:104288001FC1DAFF300EDF6E1E4B1F2B4907D8A067
:104298004A0749514A1101E19ED1F0D745C128F199
:1042A800C00E28171EE134C1D9FF35C1DAFFDECFB1
:1042B8003EF1DDCF3FF1000E3FBFFF0E406F416F73
:1042C800020E3427000E352341AF1DD0030E4513CF
:1042D800411F401F3F1F3E6D000E3F2340234123D7
:1042E80012D034C1D9FF35C1DAFFDECF28F1DDCFD6
:1042F80029F128C13EF129C13FF1406B416B020E03
:104308003427000E352349514A1146E13E513F11E9
:104318004011411141E1494B4A2B3ED0010E4B6FF0
:104328004B51040D1F0EF324F66EFB0EF420F76EAE
:10433800F86A000EF8220900F5503E5D0900F550B4
:104348003F590900F55040590900F55041592BE3F0
:104358004B2B0A0E4B1927E0E3D7010E4B6F4B513D
:10436800040DEF0EF324F66EF80EF420F76EF86ADB
:10437800000EF8220900F5503E5D0900F5503F593E
:104388000900F55040590900F55041590CE34B2BF1
:10439800080E4B1908E0E3D74551C00BBFE0800A6F
:1043A800DCE0400ABBE0800E4BBF7F0E286F49510E
:1043B8004B5D4A51800A285903E249C14BF10FD09D
:1043C8004A51800A286F4B51495D800E4BBF7F0EC2
:1043D800285905E24B51496F4A6B49BF4A07475173
:1043E800481108E045C128F1030E281703E04707E4
:1043F800D8A0480746AD10D04751495D4A51800AB8
:10440800286F4851800A285905E24951475F4A51A7
:10441800485B02D0476B486B800E4BBF7F0E286FFE
:1044280047514B5D4851800A285907E24B51475F75
:10443800000E4BBFFF0E485B02D0476B486B45A58B
:104448001DD045C128F1030E281708E01EC1D9FF69
:104458001FC1DAFF2D0EDF6E1E4B1F2B475148116F
:1044680001E1B1D01EC1D9FF1FC1DAFF300EDF6EE6
:104478001E4B1F2B4707D8A04807F0D747514811B4
:104488000EE01EC1D9FF1FC1DAFF200EDF6E1E4BE2
:104498001F2B4707D8A0480747514811F2E145C1EB
:1044A80028F1030E281701E18ED01EC1D9FF1FC1C4
:1044B800DAFF2D0EDF6E1E4B1F2B85D049C128F168
:1044C8004AC129F1D89028372937D8902837293771
:1044D8001F0E2825F66EFB0E2921F76EF86A000ECE
:1044E800F8220900F5CF94F00900F5CF95F00900FE
:1044F800F5CF96F00A00F5CF97F03EC190F03FC196
:1045080091F040C192F041C193F025EC54F090C075
:104518009DF091C09EF092C09FF093C0A0F00A0E4B
:10452800A16FA26BA36BA46B7AEC56F09D51300F70
:1045380001014B6F41D03EC190F03FC191F040C1A5
:1045480092F041C193F049C128F14AC129F1D890AC
:1045580028372937D89028372937EF0E2825F66EBF
:10456800F80E2921F76EF86A000EF8220900F5CF37
:1045780094F00900F5CF95F00900F5CF96F00A0000
:10458800F5CF97F025EC54F090510F0B0101316FE6
:10459800260E3125F66EF76AFD0EF722F86A000E30
:1045A800F8220800F5CF4BF107D04551C00B86E043
:1045B800800AC1E0400A82E01EC1D9FF1FC1DAFFAC
:1045C8004BC1DFFF78D74907D8A04A074929EDE151
:1045D8004A29D8A4EAD720C1F6FF21C1F7FF204B0A
:1045E800212BF86A0800F5CF4BF14B5102E00BEF95
:1045F8001DF01EC1D9FF1FC1DAFF000EDF6A1200CD
:10460800C7EF27F00401226B236B246B03013E6B79
:1046180086EC39F0E6EF27F00401226B236B246B5C
:1046280003016F6BBDC032F0BEC033F0BFC034F0C1
:10463800356ADC0E366E420E376EC3EC57F005E273
:1046480003017F6B806B816B45D003017F6BC80EC4
:10465800806F420E816F3ED03E6B0001CD6BCE6BFA
:10466800CF6BC76BC86BC96B326AFA0E336E420EDA
:10467800346EB7C035F0B8C036F0B9C037F0C3EC07
:1046880057F007E20001CA6B500ECB6F410ECC6F9A
:1046980004D00001CA6BCB6BCC6B326A480E336E08
:1046A800420E346EBAC035F0BBC036F0BCC037F02D
:1046B800C3EC57F009E2000E0001C46F480EC56F45
:1046C800420EC66FE6EF27F00001C46BC56BC66BE0
:1046D800E6EF27F05250320ABFE0E6EF27F0550E1A
:1046E8000401226F850E236F420E246F0001CD5105
:1046F800CE11CF1107E15C0ECD6F850ECE6F410E46
:10470800CF6F21D0CDC032F0CEC033F0CFC034F05F
:10471800356AC80E366E420E376EC3EC57F013E298
:10472800CDC026F0CEC027F0CFC028F0296A800E71
:104738002A6E3F0E2B6E03EC42F026C0CDF027C048
:10474800CEF028C0CFF003013151321102E0E6EF7C
:1047580027F0000E0101FC6F030EFB6F320E8BD0A9
:10476800550E0401226F850E236F420E246F03013C
:104778003E6B326A960E336E430E346EBAC035F015
:10478800BBC036F0BCC037F0C3EC57F0290ED8B028
:10479800280E526E8BD04DBE09D04D504C100BE1F7
:1047A800580E4A5C020E4B58D8B005D00001CD6BAC
:1047B800CE6BCF6B3AD04DBE24D04D504C1005E196
:1047C800580E4A5C020E4B581CE34DBE09D04D50A2
:1047D8004C1017E1B10E4A5C040E4B58D8B011D0FA
:1047E800515008E0000E0001CD6FB00ECE6F410EA3
:1047F800CF6F1BD0F3C3CDF0F4C3CEF0F5C3CFF029
:1048080014D0CDC026F0CEC027F0CFC028F0890E36
:10481800296E880E2A6E3C0E2B6E03EC42F026C0E1
:10482800CDF027C0CEF028C0CFF0515004E00001F1
:10483800CA6B8C0E03D00001CA6BC80ECB6F420E38
:10484800CC6FC76BC86BC96BC30503E1C46B960E0D
:1048580005D0020EC31905E1C46BC80EC56F420E20
:10486800C66F03016F6B2EBF08D02E5103E1790E7E
:104878002D5D03E3310E526EA5D34DBEA3D34D502B
:104888004C1006E1210E4A5C1C0E4B5801E29AD3EB
:104898000101FC6B030EFB6F4A6A4B6A4C6A4D6A56
:1048A80003012F6B306B2D6B2E6B8CD35250280A63
:1048B80001E171D7010ADEE085D3550E0401226FAC
:1048C800850E236F420E246F010E0EEC3DF0426EF2
:1048D800D1D10001C3050AE1C46BC80EC56F420EF1
:1048E800C66FCA6B480ECB6F420E0CD0020EC319AE
:1048F8000AE1C46B960EC56F420EC66FCA6B500EA6
:10490800CB6F410ECC6FCD51CE11CF1114E1515068
:104918000CE0C3050AE10301675107E10001CD6B13
:10492800B00ECE6F410ECF6F06D0F3C3CDF0F4C3F7
:10493800CEF0F5C3CFF00001C76BC86BC96B010E91
:1049480003013E6F0001C06BC16B1F0E526EC00E9B
:10495800326E0F0E336E440E346EBAC035F0BBC0E3
:1049680036F0BCC037F0C3EC57F001E390D1010139
:10497800FC6B040EFB6F0A0E526E326A336A346A9D
:10498800CDC035F0CEC036F0CFC037F0C3EC57F00D
:1049980007E2CDC034F4CEC035F4CFC036F407D02A
:1049A8005C0E0401346F850E356F410E366F4A6A0E
:1049B8004B6A4C6A4D6A03012F6B306B2D6B2E6B63
:1049C800246B256B266B63D15150D8B44DBE2DD0C6
:1049D8004D504C1005E1090E4A5C070E4B5825E373
:1049E8000001C1BF06D0C1510BE11E0EC05DD8B099
:1049F80007D05C0EC76F850EC86F410EC96F15D002
:104A0800C1BF11D0C15103E11E0EC05D0CE3C1BF8F
:104A180006D0C15108E1780EC05DD8B004D0C76B8C
:104A2800C86BC96B02D0C06BC16BBAC032F0BBC0D7
:104A380033F0BCC034F0296AC80E2A6EC10E2B6E42
:104A480015C326F016C327F017C328F003EC42F06D
:104A580026C035F027C036F028C037F0C3EC57F031
:104A680003E2010E03014E6F0001C30503E1C46BAD
:104A7800C80E05D0020EC31905E1C46B960EC56FAA
:104A8800420EC66F020E421802E1200E54D04204B4
:104A980002E1210E50D003014E5101E1F8D0CDC002
:104AA80032F0CEC033F0CFC034F0F3C335F0F4C3E6
:104AB80036F0F5C337F0C3EC57F015E3CDC026F058
:104AC800CEC027F0CFC028F0890E296E880E2A6E36
:104AD8003C0E2B6E03EC42F026C0CDF027C0CEF082
:104AE80028C0CFF006D0F3C3CDF0F4C3CEF0F5C3A1
:104AF800CFF0CD0E326EC70E336E420E346ECDC07F
:104B080035F0CEC036F0CFC037F0C3EC57F001E334
:104B1800BED00001CD6BC80ECE6F420E2DD05150C5
:104B280003E0640E03016F6F020E4218AEE0030E3D
:104B3800421803E11F0E526EAAD0515013E1570ECE
:104B48000001CD6F850ECE6F420ECF6FCD51CE11C5
:104B5800CF1101E09CD0F3C3CDF0F4C3CEF0F5C380
:104B6800CFF095D00001CD51CE11CF1101E08FD0FB
:104B7800CD6BB00ECE6F410ECF6F89D0030E4218A9
:104B8800D9E0326A7A0E336E440E346EB7C035F00F
:104B9800B8C036F0B9C037F0C3EC57F013E24A6A30
:104BA8004B6A4C6A4D6A03012F6B306B2D6B2E6B71
:104BB8000101FC6B060EFB6F640E526E040E0001C1
:104BC800C26F65D0420401E164D7F3C332F0F4C385
:104BD80033F0F5C334F0CDC035F0CEC036F0CFC0D9
:104BE80037F0C3EC57F015E2CDC032F0CEC033F049
:104BF800CFC034F0CD0E356E4C0E366E3D0E376E8E
:104C0800ABEC5BF032C0CDF033C0CEF034C0CFF0A7
:104C180004D00001CD6BCE6BCF6B4DBE38D04D505C
:104C28004C1005E1090E4A5C070E4B5830E3515011
:104C38002EE10001C751C811C91107E15C0EC76F09
:104C4800850EC86F410EC96F22D0C7C026F0C8C0F4
:104C580027F0C9C028F0890E296E880E2A6E3C0EEE
:104C68002B6E03EC42F026C0C7F027C0C8F028C05E
:104C7800C9F00DD052501E0A01E12BD6010A01E1FC
:104C8800A3D63F0A01E17AD7010A01E148D7800E8D
:104C9800326E3B0E336E450E346E09C335F00AC3CF
:104CA80036F00BC337F0C3EC57F016E3515014E05D
:104CB800CDC018F0CEC019F0CFC01AF01B6AC00ED4
:104CC8001C6E3F0E1D6E6BEC48F018C0CAF019C080
:104CD800CBF01AC0CCF006D00001CA6BC80ECB6F5F
:104CE800420ECC6F326AC80E336E420E346ECAC0A2
:104CF80035F0CBC036F0CCC037F0C3EC57F006E245
:104D08000001CA6BC80ECB6F420ECC6FEBEC36F0CD
:104D180059D1550E0401226F850E236F420E246F60
:104D2800E9EC27F04FD1550E0401226F850E236F51
:104D3800420E246F060E0001C21901E001D1660E71
:104D4800526EFED0650E526E515001E004D1CA6B0E
:104D5800C80ECB6F420ECC6FC46BC80EC56F420E27
:104D6800C66FF9D05C0E326E850E336E410E346E0E
:104D7800CDC035F0CEC036F0CFC037F0C3EC57F019
:104D880075E2010E416E0A0E326E480E336E420E07
:104D9800346ECDC035F0CEC036F0CFC037F0C3EC9E
:104DA80057F002E2030E10D05C0E326E050E336E21
:104DB800420E346ECDC035F0CEC036F0CFC037F0DD
:104DC800C3EC57F002E2020E416ECDC032F0CEC005
:104DD80033F0CFC034F0890E1B6E880E1C6E3C0E6B
:104DE8001D6E4150C1EC5DF009C018F00AC019F001
:104DF8000BC01AF06BEC48F018C035F019C036F04B
:104E08001AC037F0ABEC5BF032C0CDF033C0CEF057
:104E180034C0CFF0326A480E336E420E346EC7C0CB
:104E280035F0C8C036F0C9C037F0C3EC57F015E20A
:104E3800C7C032F0C8C033F0C9C034F0890E356E2F
:104E4800880E366E3C0E376EABEC5BF032C0C7F0A6
:104E580033C0C8F034C0C9F006D00001C76B480E93
:104E6800C86F420EC96F03013E6B1FD0326AFA0E3B
:104E7800336E430E346EB7C035F0B8C036F0B9C0E3
:104E880037F0C3EC57F00FE25C0E0001CD6F850ED2
:104E9800CE6F410ECF6F03013E6B670E526E00015D
:104EA800C06BC16B02D0660E526E0001C06BC16B45
:104EB80052D0B7C032F0B8C033F0B9C034F0356A58
:104EC800FA0E366E430E376EC3EC57F008E3000156
:104ED800C1BF0AD0590EC05D020EC15905E3660E66
:104EE800526E0001C06BC16B03013E6B0001C1BF74
:104EF80006D0C15110E13C0EC05DD8B00CD0C76BD4
:104F0800480EC86F420EC96F5C0ECD6F850ECE6F0E
:104F1800410ECF6F20D0C1BFC8D7C15103E13C0EAD
:104F2800C05DC3E3C1BF05D02C0EC05D010EC159E1
:104F3800BCE2CD6BCE6BCF6BC76BC86BC96B0BD0AC
:104F48005250640A01E1FED6010A01E10BD7030AB7
:104F5800CBE0010AAEE0020EC31912E1BDC032F087
:104F6800BEC033F0BFC034F0356ADC0E366E420E78
:104F7800376EC3EC57F004E203017F6B806B816BE3
:104F8800BFEC3AF0C3D6FBC13FF0FCC140F0405043
:104F980019E13F5002E1B4EF23F0010A02E106EF04
:104FA80023F0030A01E189D4010A02E110EF23F09A
:104FB800070A01E1AED6010A02E173EF23F0030A02
:104FC80001E1B1D60DEC47F01200515019E0030190
:104FD8006E5116E1010E3E6FAAC4F0F3ABC4F1F3B3
:104FE800ACC4F2F388C4CAF089C4CBF08AC4CCF04C
:104FF800515003E0640E6F6F12D003016F6B0FD036
:1050080003013E6B6E5104E00001CA6B700E03D0C1
:105018000001CA6BC80ECB6F420ECC6FEED762513F
:1050280002E00F0E526E5150D8B4FC6BFC510E0EBC
:10503800D8B4130E526E020E0001C31907E1000E18
:1050480003017F6FC80E806F420E816F03016E519E
:1050580001E14BD3100E526E48D3010E0EEC3DF019
:105068003D6ECDC032F0CEC033F0CFC034F0356ADB
:10507800C70E366E420E376EC3EC57F001E34CD3C1
:10508800010E3C6EBAC032F0BBC033F0BCC034F085
:10509800296AC80E2A6EC20E2B6EDBC326F0DCC34B
:1050A80027F0DDC328F003EC42F026C035F027C016
:1050B80036F028C037F0C3EC57F002E2020E3C6E1F
:1050C800030E3D1845E10001CD51CE11CF111BE172
:1050D8004E504F10501007E15C0ECD6F850ECE6F0D
:1050E800410ECF6F09D04EC0CDF04FC0CEF050C0AA
:1050F800CFF04E6A4F6A506ABAC015F3BBC016F3B8
:10510800BCC017F325D0CDC026F0CEC027F0CFC045
:1051180028F0890E1B6E880E1C6E3C0E1D6E3C50CE
:10512800C1EC5DF009C018F00AC019F00BC01AF004
:105138006BEC48F018C029F019C02AF01AC02BF0FF
:1051480003EC42F026C0CDF027C0CEF028C0CFF047
:10515800020E3D1801E0E0D25C0E326E850E336E11
:10516800410E346ECDC035F0CEC036F0CFC037F02A
:10517800C3EC57F001E3B0D1CDC032F0CEC033F06C
:10518800CFC034F0CD0E356E4C0E366E3D0E376EF8
:10519800ABEC5BF07BD2000E0EEC3DF03D6E020EE8
:1051A8003D1802E10C0EA5D0030E3D1802E10D0ECC
:1051B800A0D00001CD51CE11CF1101E0ADD2BAC0BF
:1051C80015F3BBC016F3BCC017F3326A336A346AEE
:1051D8004EC035F04FC036F050C037F0C3EC57F032
:1051E8000AE24EC0CDF04FC0CEF050C0CFF04E6AAC
:1051F8004F6A506A91D25C0E0001CD6F850ECE6F5A
:10520800410E17D2000E0EEC3DF03D6E3D0405E157
:105218000B0E526E0001C26B7FD2BAC032F0BBC017
:1052280033F0BCC034F0296A960E2A6EC20E2B6E7B
:1052380015C326F016C327F017C328F003EC42F075
:1052480026C035F027C036F028C037F0C3EC57F039
:105258000BE20001CD51CE11CF1106E0010EC26F55
:10526800C76BC86BC96B58D20001CD51CE11CF1195
:1052780024E1326A336A346A4EC035F04FC036F0E2
:1052880050C037F0C3EC57F00AE24EC0CDF04FC023
:10529800CEF050C0CFF04E6A4F6A506A07D05C0E0D
:1052A8000001CD6F850ECE6F410ECF6FBAC015F3DA
:1052B800BBC016F3BCC017F32FD2CDC026F0CEC0AA
:1052C80027F0CFC028F021C329F022C32AF023C336
:1052D8002BF003EC42F026C0CDF027C0CEF028C05A
:1052E800CFF098D7000E0EEC3DF03D6E3D0403E183
:1052F8000B0E526E11D25C0E326E850E336E410E5D
:10530800346ECDC035F0CEC036F0CFC037F0C3EC28
:1053180057F001E3E1D0CDC032F0CEC033F0CFC0BA
:1053280034F0890E356E080E366E3D0E376EABECD6
:105338005BF0ACD1010E0EEC3DF03D6E020E3D1857
:105348002FE15C0E326E850E336E410E346ECDC089
:1053580035F0CEC036F0CFC037F0C3EC57F015E2C9
:10536800CDC032F0CEC033F0CFC034F0CD0E356EA4
:105378004C0E366E3D0E376EABEC5BF032C0CDF0A6
:1053880033C0CEF034C0CFF05DD0CDC04EF0CEC02B
:105398004FF0CFC050F00001CD6BCE6BCF6B52D029
:1053A800030E3D1834E10001CD51CE11CF111AE1A1
:1053B800326A336A346A4EC035F04FC036F050C096
:1053C80037F0C3EC57F034E35C0E0001CD6F850E67
:1053D800CE6F410ECF6FBAC015F3BBC016F3BCC079
:1053E80017F330D0CDC026F0CEC027F0CFC028F0BC
:1053F80021C329F022C32AF023C32BF003EC42F087
:1054080026C0CDF027C0CEF028C0CFF01BD00001B9
:10541800CD51CE11CF1116E1326A336A346A4EC0CB
:1054280035F04FC036F050C037F0C3EC57F0CCE23F
:105438004EC0CDF04FC0CEF050C0CFF04E6A4F6A8C
:10544800506AC9D79A0E1B6E990E1C6E3F0E1D6EC0
:1054580034C418F035C419F036C41AF06BEC48F0AF
:1054680018C032F019C033F01AC034F0CDC035F08E
:10547800CEC036F0CFC037F0C3EC57F001E34CD1C3
:105488000301FC6B49D1000E0EEC3DF03D6E020E9F
:105498003D182DE15C0E326E850E336E410E346E72
:1054A800CDC035F0CEC036F0CFC037F0C3EC57F0E2
:1054B8000FE2CDC032F0CEC033F0CFC034F0890E49
:1054C800356E080E366E3D0E376EABEC5BF0DED0F7
:1054D8004E504F10501006E1CDC04EF0CEC04FF0E8
:1054E800CFC050F00001CD6BCE6BCF6B15D1030E42
:1054F8003D187CE10001CD51CE11CF111AE1326A7D
:10550800336A346A4EC035F04FC036F050C037F0B9
:10551800C3EC57F07CE35C0E0001CD6F850ECE6FB7
:10552800410ECF6FBAC015F3BBC016F3BCC017F35A
:1055380078D0BAC032F0BBC033F0BCC034F0296AAE
:10554800960E2A6EC20E2B6E15C326F016C327F0D0
:1055580017C328F003EC42F026C035F027C036F018
:1055680028C037F0C3EC57F02CE20001CD51CE1122
:10557800CF1127E0BAC032F0BBC033F0BCC034F062
:10558800296A200E2A6E410E2B6E0FC326F010C317
:1055980027F011C328F003EC42F026C035F027C0ED
:1055A80036F028C037F0C3EC57F00BE203012B515B
:1055B8002C1107E1010E0001C26FC76BC86BC96BE4
:1055C80030D0CDC026F0CEC027F0CFC028F021C300
:1055D80029F022C32AF023C32BF003EC42F026C0A3
:1055E800CDF027C0CEF028C0CFF01BD00001CD51A0
:1055F800CE11CF1116E1326A336A346A4EC035F0E3
:105608004FC036F050C037F0C3EC57F084E24EC0BC
:10561800CDF04FC0CEF050C0CFF04E6A4F6A506AFE
:1056280081D7515079E1570E0001CD6F850ECE6FAD
:10563800420ECF6F71D0326A2F0E336E440E346E25
:10564800BAC035F0BBC036F0BCC037F0C3EC57F079
:1056580024E25C0E326E850E336E410E346ECDC080
:1056680035F0CEC036F0CFC037F0C3EC57F054E277
:10567800CDC032F0CEC033F0CFC034F0CD0E356E91
:105688004C0E366E3D0E376EABEC5BF032C0CDF093
:1056980033C0CEF034C0CFF03FD0800E326E220E31
:1056A800336E440E346EBAC035F0BBC036F0BCC0A1
:1056B80037F0C3EC57F030E30B0E526E0301626B08
:1056C8002BD0000E0001CD6FC80ECE6F420ECF6FEB
:1056D800000EC46F8C0EC56F420EC66F000EC76FEA
:1056E800A00EC86F410EC96F17D052500A0A01E1C7
:1056F800B4D4010A01E14FD5070A01E1F3D5010A43
:1057080001E180D5030A01E115D6010A94E01F0AD8
:10571800D8E0030A01E1B7D603016E5101E0B8D021
:105728000001C20572E0515002E1515043E1CDC081
:1057380018F0CEC019F0CFC01AF0EC0E1B6ED10EC7
:105748001C6E3E0E1D6E6BEC48F018C0C7F019C0F9
:10575800C8F01AC0C9F0C7C032F0C8C033F0C9C019
:1057680034F0356AA00E366E410E376EC3EC57F032
:1057780004E20001C76BC86BC96B0001C751C811AF
:10578800C91143E1C1BF08D0C15103E1F10EC05DA9
:1057980003E3C06BC16B39D0C1BF06D0C15106E16C
:1057A8003C0EC05DD8B002D0000E2AD0C76BC86BC3
:1057B800C96B2BD0515029E1CDC018F0CEC019F0DB
:1057C800CFC01AF09A0E1B6E590E1C6E3F0E1D6E3E
:1057D8006BEC48F018C0C7F019C0C8F01AC0C9F07F
:1057E800C7C032F0C8C033F0C9C034F0356AA00E63
:1057F800366E410E376EC3EC57F007E2000E00011B
:10580800C76FA00EC86F410EC96F0301675102E14F
:105818004D5114E0CDC018F0CEC019F0CFC01AF029
:105828009A0E1B6E990E1C6E3F0E1D6E6BEC48F0A7
:1058380018C0C7F019C0C8F01AC0C9F0C7C032F004
:10584800C8C033F0C9C034F0356AA00E366E410EB8
:10585800376EC3EC57F006E20001C76BA00EC86FA5
:10586800410EC96F326AC80E336E420E346EC7C01D
:1058780035F0C8C036F0C9C037F0C3EC57F006E2BF
:105888000001C76BC80EC86F420EC96FBFEC3AF073
:10589800EBEC36F012003BC0D9FF3CC0DAFFDECF9C
:1058A80032F0DECF33F0DDCF34F03DC035F03EC00E
:1058B80036F03FC037F0ABEC5BF020EE0CF03B501D
:1058C800D9263C50DA2232C0DEFF33C0DEFF34C0B6
:1058D800DEFF20EE06F03B50D9263C50DA22DE509F
:1058E800DE10DE1001E131D120EE1BF03B50D9264D
:1058F8003C50DA22DECF1BF0DECF1CF0DDCF1DF0EE
:1059080020EE06F03B50D9263C50DA22DECF0CF0D0
:10591800DECF0DF0DDCF0EF0096A800E0A6E3F0E65
:105928000B6E48EC4CF009C018F00AC019F00BC017
:105938001AF06BEC48F018C063F019C064F01AC094
:1059480065F020EE0CF03B50D9263C50DA22DECF31
:105958001BF0DECF1CF0DDCF1DF063C018F064C073
:1059680019F065C01AF06BEC48F018C026F019C0A1
:1059780027F01AC028F020EE12F03B50D9263C50F0
:10598800DA22DECF29F0DECF2AF0DDCF2BF003ECD0
:1059980042F020EE12F03B50D9263C50DA2226C0C5
:1059A800DEFF27C0DEFF28C0DEFF20EE03F03B50FD
:1059B800D9263C50DA22DECF1BF0DECF1CF0DDCF3B
:1059C8001DF020EE12F03B50D9263C50DA22DECFF3
:1059D80018F0DECF19F0DDCF1AF06BEC48F018C0E4
:1059E80032F019C033F01AC034F020EE15F03B50F5
:1059F800D9263C50DA22DECF35F0DECF36F0DDCFC7
:105A080037F0C3EC57F00DE320EE12F03B50D926E7
:105A18003C50DA22DECF69F0DECF6AF0DDCF6BF0E2
:105A280020D020EE15F03B50D9263C50DA22DECFAC
:105A380009F0DECF0AF0DDCF0BF020EE03F03B508B
:105A4800D9263C50DA22DECF0CF0DECF0DF0DDCFC8
:105A58000EF048EC4CF009C069F00AC06AF00BC0BF
:105A68006BF020EE12F03B50D9263C50DA2269C088
:105A7800DEFF6AC0DEFF6BC0DEFF20EE18F03B5091
:105A8800D9263C50DA22DECF32F0DECF33F0DDCF3C
:105A980034F020EE03F03B50D9263C50DA22DECF1A
:105AA8001BF0DECF1CF0DDCF1DF020EE12F03B50D6
:105AB800D9263C50DA22DECF18F0DECF19F0DDCF40
:105AC8001AF06BEC48F018C035F019C036F01AC05F
:105AD80037F0C3EC57F00DE320EE12F03B50D92617
