:040000000FEF01F00D
:10000800D9CF8AF0DACF8BF0F6CF8CF007EF57F024
:10001800D8CF79F0E8CF7AF0E0CF7BF0D9CF7CF079
:10002800DACF7DF0F3CF7EF0F4CF7FF0F6CF80F01B
:10003800F7CF81F0F8CF82F0F5CF83F0B7A405D0E1
:10004800B7940401A24BA32BCED0B7A805D0B7987C
:100058000401A04BA12BC7D0F2A4B5D0130EF66EA5
:10006800F90EF76E000EF86E0900F5CF01F00A00E0
:10007800F5CF02F011EC5FF00001C54BC62B030170
:10008800934B942B0001C74BC82B0401F24BF32B65
:100098004A2A000E4B224C224D227B4B7C2B952B5F
:1000A800962B9C2B000E9D239E239F230301FD2B43
:1000B800B42BC62B974B982B0401854B862B9C0E93
:1000C800016E040E026E05EC5DF00301BC5103E005
:1000D800B8EC30F002D0D5EC33F0C6EC53F00301A5
:1000E800BC5103E017EC38F002D0AAEC23F0F294EC
:1000F8000301985103E10A0E975D4FE3C00E00011A
:10010800756F030E766F75510401A003F3CF77F076
:10011800F4CF78F0A103F350000178277651040159
:10012800A0030001F350782777C001F078C002F0EF
:1001380097C303F098C304F063EC59F001C06DF461
:1001480002C06EF4C00E756F030E766F7551040110
:10015800A203F3CF77F0F4CF78F0A303F3500001B4
:10016800782776510401A2030001F350782777C05D
:1001780001F078C002F097C303F098C304F063EC71
:1001880059F001C071F402C072F40401A06BA16BB4
:10019800A26BA36B0301976B986B770EB46505D0C0
:1001A800CF0E58EC5EF0B36FB46B3B0EC6651BD038
:1001B80017EC40F03BC06AF43CC06BF43DC06CF4F3
:1001C8000301C66B10D0BAB0B9A00DD0BA90010E19
:1001D80082A2000EEEEC5CF0000E80B8010E066EF6
:1001E800CF0E47EC5DF0040083C0F5FF82C0F8FF36
:1001F80081C0F7FF80C0F6FF7FC0F4FF7EC0F3FF29
:100208007DC0DAFF7CC0D9FF7BC0E0FF7AC0E8FF81
:1002180079C0D8FF10004EEF46F04DEC5FF090C06B
:1002280033F191C034F10101356B366B68EF09F099
:100238002F0E0001906F010E916F33C1D9FF34C1A9
:10024800DAFFDECF2DF1DDCF2EF1D8900101353563
:10025800D96E3635DA6E2D51D9262E51DA22DECFF7
:1002680092F0DDCF93F00001956B020E946F78EC5D
:1002780058F02FC132F1DEEF08F020EE02F03351D2
:10028800D9263451DA22DECF2DF1DDCF2EF1D890E8
:100298003535D96E3635DA6E2D51D9262E51DA22FA
:1002A800DECF93F0DDCF94F03BEC4CF093C09AF0A6
:1002B80094C09BF0D5EC5BF09AC02EF49BC02FF451
:1002C8009CC030F465EF09F020EE02F03351D926D6
:1002D8003451DA22DECF2DF1DDCF2EF1D89035352D
:1002E800D96E3635DA6E2D51D9262E51DA22DECF67
:1002F80093F0DDCF94F03BEC4CF093C09AF094C0AF
:100308009BF0D5EC5BF09AC037F49BC038F49CC0E6
:1003180039F465EF09F09A0E0001906FFE0E916FA7
:10032800010120EE02F03351D9263451DA22DECF12
:100338002DF1DDCF2EF1D8903535D96E3635DA6E00
:100348002D51D9262E51DA22DECF92F0DDCF93F04F
:10035800CAEC46F0905191110BE1010E0301BD6FFB
:100368000401DD6B800EDE6F3F0EDF6F65EF09F075
:100378000301BD6B0401DD6BDE6BDF6B65EF09F01C
:1003880020EE02F03351D9263451DA22DECF2DF196
:10039800DDCF2EF1D8903535D96E3635DA6E2D5140
:1003A800D9262E51DA22DECF93F0DDCF94F03BEC44
:1003B8004CF093C09AF094C09BF0D5EC5BF09AC0D7
:1003C80058F49BC059F49CC05AF465EF09F020EE2C
:1003D80002F03351D9263451DA22DECF2DF1DDCFA8
:1003E8002EF1D8903535D96E3635DA6E2D51D9269D
:1003F8002E51DA22DECF93F0DDCF94F03BEC4CF0B7
:1004080093C09AF094C09BF0D5EC5BF09AC02BF4A3
:100418009BC02CF49CC02DF465EF09F020EE02F08F
:100428003351D9263451DA22DECF2DF1DDCF2EF12A
:10043800D8903535D96E3635DA6E2D51D9262E51EC
:10044800DA22DECF93F0DDCF94F03BEC4CF093C092
:10045800C1F094C0C2F065EF09F09A0E0001906FE8
:10046800FE0E916F010120EE02F03351D92634516E
:10047800DA22DECF2DF1DDCF2EF1D8903535D96EC9
:100488003635DA6E2D51D9262E51DA22DECF92F08A
:10049800DDCF93F0CAEC46F09051911102E065EF80
:1004A80009F0060E0101FE19FF1102E165EF09F0DE
:1004B8004A6A4B6A4C6A4D6A0301936B946B00015C
:1004C800C76BC86B0101FF6B060EFE6F640E526EA0
:1004D80065EF09F09A0E0001906FFE0E916F010111
:1004E80020EE02F03351D9263451DA22DECF2DF135
:1004F800DDCF2EF1D8903535D96E3635DA6E2D51DF
:10050800D9262E51DA22DECF92F0DDCF93F0CAEC55
:1005180046F09051911102E065EF09F0030E0101D8
:10052800FE19FF1102E065EF09F04A6A4B6A4C6A4E
:100538004D6A0301936B946B0001C76BC86B010193
:10054800FE6BFF6B65EF09F020EE02F03351D92600
:100558003451DA22DECF2DF1DDCF2EF1D8903535AA
:10056800D96E3635DA6E2D51D9262E51DA22DECFE4
:1005780093F0DDCF94F03BEC4CF093C0F4F494C0CE
:10058800F5F465EF09F09A0E0001906FFE0E916F79
:10059800010120EE02F03351D9263451DA22DECFA0
:1005A8002DF1DDCF2EF1D8903535D96E3635DA6E8E
:1005B8002D51D9262E51DA22DECF92F0DDCF93F0DD
:1005C800CAEC46F09051911106E10301926B010EBD
:1005D800916F65EF09F00301916B926B65EF09F07C
:1005E8009A0E0001906FFE0E916F010120EE02F04D
:1005F8003351D9263451DA22DECF2DF1DDCF2EF159
:10060800D8903535D96E3635DA6E2D51D9262E511A
:10061800DA22DECF92F0DDCF93F0CAEC46F09051AB
:1006280091110AE10301966B010E956F0101FF6BB1
:10063800050EFE6F65EF09F0BC0E906FFF0E916F0F
:10064800010120EE02F03351D9263451DA22DECFEF
:100658002DF1DDCF2EF1D8903535D96E3635DA6EDD
:100668002D51D9262E51DA22DECF92F0DDCF93F02C
:10067800CAEC46F09051911102E065EF09F00301D0
:10068800956B966B65EF09F09A0E0001906FFE0E60
:10069800916F010120EE02F03351D9263451DA224C
:1006A800DECF2DF1DDCF2EF1D8903535D96E363528
:1006B800DA6E2D51D9262E51DA22DECF92F0DDCF17
:1006C80093F0CAEC46F09051911102E065EF09F001
:1006D8000101FE05FF1102E165EF09F0FF6B010E54
:1006E800FE6F4A6A4B6A4C6A4D6A65EF09F0020E62
:1006F8004DEC3FF065EF09F0030E4DEC3FF065EF70
:1007080009F0040E4DEC3FF065EF09F09A0E000178
:10071800906FFE0E916F010120EE02F03351D92641
:100728003451DA22DECF2DF1DDCF2EF1D8903535D8
:10073800D96E3635DA6E2D51D9262E51DA22DECF12
:1007480092F0DDCF93F0CAEC46F09051911102E09F
:1007580065EF09F00101FF6B030EFE6F04019C6B4E
:100768009D6B9E6B9F6B0301D56BD66BD76BD26B62
:10077800D36BD46BCF6BD06BD16B0401376B386BF9
:10078800396B2E6B2F6B306B2B6B2C6B2D6B030126
:10079800BD6B909E8D840001C56BC66B0301936B86
:1007A800946B0001C76BC86B0401F26BF36B4A6A68
:1007B8004B6A4C6A4D6A7B6B7C6B956B966B9C6B3A
:1007C8009D6B9E6B9F6B0301FD6B0401776B786BD0
:1007D8000301A26B010E6ED19A0E0001906FFE0EFE
:1007E800916F010120EE02F03351D9263451DA22FB
:1007F800DECF2DF1DDCF2EF1D8903535D96E3635D7
:10080800DA6E2D51D9262E51DA22DECF92F0DDCFC5
:1008180093F0CAEC46F09051911104E1010E0301E6
:10082800B56F02D00301B56BB65102E165EF09F06F
:10083800B66B65EF09F09A0E0001906FFE0E916F8E
:10084800010120EE02F03351D9263451DA22DECFED
:100858002DF1DDCF2EF1D8903535D96E3635DA6EDB
:100868002D51D9262E51DA22DECF92F0DDCF93F02A
:10087800CAEC46F09051911104E1010E0301A36FF7
:1008880002D00301A36BA45102E165EF09F0A46B48
:1008980065EF09F09A0E0001906FFE0E916F01014D
:1008A80020EE02F03351D9263451DA22DECF2DF171
:1008B800DDCF2EF1D8903535D96E3635DA6E2D511B
:1008C800D9262E51DA22DECF92F0DDCF93F0CAEC92
:1008D80046F09051911105E1010E0301AE6F65EFED
:1008E80009F00301AE6B65EF09F09A0E0001906FF5
:1008F800FE0E916F010120EE02F03351D9263451DA
:10090800DA22DECF2DF1DDCF2EF1D8903535D96E34
:100918003635DA6E2D51D9262E51DA22DECF92F0F5
:10092800DDCF93F0CAEC46F09051911104E1010E2D
:1009380003019D6F02D003019D6BBB5102E165EF7E
:1009480009F0BB6B65EF09F020EE02F03351D926B0
:100958003451DA22DECF2DF1DDCF2EF1D8903535A6
:10096800D96E3635DA6E2D51D9262E51DA22DECFE0
:1009780093F0DDCF94F03BEC4CF093C09AF094C028
:100988009BF0D5EC5BF09AC01CF49BC01DF49CC096
:100998001EF465EF09F09A0E0001906FFE0E916F3C
:1009A800010120EE02F03351D9263451DA22DECF8C
:1009B8002DF1DDCF2EF1D8903535D96E3635DA6E7A
:1009C8002D51D9262E51DA22DECF92F0DDCF93F0C9
:1009D800CAEC46F09051911104E1010E0301B86F81
:1009E80002D00301B86BBA5102E165EF09F0BA6BA6
:1009F80065EF09F020EE02F03351D9263451DA229E
:100A0800DECF2DF1DDCF2EF1D8903535D96E3635C4
:100A1800DA6E2D51D9262E51DA22DECF93F0DDCFB2
:100A280094F03BEC4CF093510301B96F65EF09F07A
:100A380020EE02F03351D9263451DA22DECF2DF1DF
:100A4800DDCF2EF1D8903535D96E3635DA6E2D5189
:100A5800D9262E51DA22DECF93F0DDCF94F03BEC8D
:100A68004CF093510301B26F65EF09F09A0E000143
:100A7800906FFE0E916F010120EE02F03351D926DE
:100A88003451DA22DECF2DF1DDCF2EF1D890353575
:100A9800D96E3635DA6E2D51D9262E51DA22DECFAF
:100AA80092F0DDCF93F0CAEC46F09051911105E138
:100AB800010E0301FC6F65EF09F00301FC6B0B0EDF
:100AC800526E85C37CF386C37DF387C37EF385C3EB
:100AD80031F486C332F487C333F4F3D39A0E00019A
:100AE800906FFE0E916F010120EE02F03351D9266E
:100AF8003451DA22DECF2DF1DDCF2EF1D890353505
:100B0800D96E3635DA6E2D51D9262E51DA22DECF3E
:100B180092F0DDCF93F0CAEC46F09051911102E1CA
:100B2800010E23D0A10E906FFF0E916F010120EEF0
:100B380002F03351D9263451DA22DECF2DF1DDCF40
:100B48002EF1D8903535D96E3635DA6E2D51D92635
:100B58002E51DA22DECF92F0DDCF93F0CAEC46F0C8
:100B68009051911101E0ADD3020ECB6FAAD320EEC4
:100B780002F03351D9263451DA22DECF2DF1DDCF00
:100B88002EF1D8903535D96E3635DA6E2D51D926F5
:100B98002E51DA22DECF93F0DDCF94F03BEC4CF00F
:100BA80093510301C46FC40503E1010EB06F08D06F
:100BB800C45104E1B00504E1B06B02D0630EA26F2A
:100BC800B15101E17ED3B16B7CD39A0E0001906FD5
:100BD800FE0E916F010120EE02F03351D9263451F7
:100BE800DA22DECF2DF1DDCF2EF1D8903535D96E52
:100BF8003635DA6E2D51D9262E51DA22DECF92F013
:100C0800DDCF93F0CAEC46F09051911108E1516A9A
:100C1800020ECB6F010E0301BC6F780EA3D1A10E9B
:100C2800906FFF0E916F010120EE02F03351D9262B
:100C38003451DA22DECF2DF1DDCF2EF1D8903535C3
:100C4800D96E3635DA6E2D51D9262E51DA22DECFFD
:100C580092F0DDCF93F0CAEC46F09051911121E06B
:100C6800F40E906FFF0E916F010120EE02F03351E8
:100C7800D9263451DA22DECF2DF1DDCF2EF1D890EE
:100C88003535D96E3635DA6E2D51D9262E51DA2200
:100C9800DECF92F0DDCF93F0CAEC46F0905191117F
:100CA80002E1516A44D0DF0E906FFF0E916F01018F
:100CB80020EE02F03351D9263451DA22DECF2DF15D
:100CC800DDCF2EF1D8903535D96E3635DA6E2D5107
:100CD800D9262E51DA22DECF92F0DDCF93F0CAEC7E
:100CE80046F09051911121E0FA0E906FFF0E916F2E
:100CF800010120EE02F03351D9263451DA22DECF39
:100D08002DF1DDCF2EF1D8903535D96E3635DA6E26
:100D18002D51D9262E51DA22DECF92F0DDCF93F075
:100D2800CAEC46F09051911104E1010E516E010E8A
:100D380045D0E20E906FFF0E916F010120EE02F098
:100D48003351D9263451DA22DECF2DF1DDCF2EF101
:100D5800D8903535D96E3635DA6E2D51D9262E51C3
:100D6800DA22DECF92F0DDCF93F0CAEC46F0905154
:100D7800911121E0F60E906FFF0E916F010120EEA8
:100D880002F03351D9263451DA22DECF2DF1DDCFEE
:100D98002EF1D8903535D96E3635DA6E2D51D926E3
:100DA8002E51DA22DECF92F0DDCF93F0CAEC46F076
:100DB8009051911105E1010E516E020ECB6FD0D00A
:100DC800E10E906FFF0E916F010120EE02F033519A
:100DD800D9263451DA22DECF2DF1DDCF2EF1D8908D
:100DE8003535D96E3635DA6E2D51D9262E51DA229F
:100DF800DECF92F0DDCF93F0CAEC46F0905191111E
:100E08000AE1010E516E020ECB6F030EC26F200E67
:100E1800C16F780EA6D0DE0E906FFF0E916F0101A4
:100E280020EE02F03351D9263451DA22DECF2DF1EB
:100E3800DDCF2EF1D8903535D96E3635DA6E2D5195
:100E4800D9262E51DA22DECF92F0DDCF93F0CAEC0C
:100E580046F09051911105E1010E516ECB6FCD6FA7
:100E680082D0F80E906FFF0E916F010120EE02F014
:100E78003351D9263451DA22DECF2DF1DDCF2EF1D0
:100E8800D8903535D96E3635DA6E2D51D9262E5192
:100E9800DA22DECF92F0DDCF93F0CAEC46F0905123
:100EA800911105E1010E516ECB6FCE6F5CD0FC0E37
:100EB800906FFF0E916F010120EE02F03351D92699
:100EC8003451DA22DECF2DF1DDCF2EF1D890353531
:100ED800D96E3635DA6E2D51D9262E51DA22DECF6B
:100EE80092F0DDCF93F0CAEC46F09051911116E1E3
:100EF800010E516E020ECB6F0301B76B030E00019A
:100F0800C26F520EC16F780E0301FE6F010E000111
:100F1800CC6F0301FB6B6E0EFA6F25D0DB0E906F62
:100F2800FF0E916F010120EE02F03351D9263451A2
:100F3800DA22DECF2DF1DDCF2EF1D8903535D96EFE
:100F48003635DA6E2D51D9262E51DA22DECF92F0BF
:100F5800DDCF93F0CAEC46F09051911104E18C82F8
:100F6800E60E0301FE6F020E0001CB1907E1CC511A
:100F780005E1890E03018B6F080E04D0890E030169
:100F88008B6F880E8C6F3C0E8D6F9BD120EE02F01C
:100F98003351D9263451DA22DECF2DF1DDCF2EF1AF
:100FA800D8903535D96E3635DA6E2D51D9262E5171
:100FB800DA22DECF93F0DDCF94F03BEC4CF093C017
:100FC8009AF094C09BF0D5EC5BF09AC061F49BC09A
:100FD80062F49CC063F475D120EE02F03351D92637
:100FE8003451DA22DECF2DF1DDCF2EF1D890353510
:100FF800D96E3635DA6E2D51D9262E51DA22DECF4A
:1010080093F0DDCF94F03BEC4CF093C09AF094C091
:101018009BF0D5EC5BF09AC064F49BC065F49CC06F
:1010280066F44FD120EE02F03351D9263451DA223A
:10103800DECF2DF1DDCF2EF1D8903535D96E36358E
:10104800DA6E2D51D9262E51DA22DECF93F0DDCF7C
:1010580094F03BEC4CF093C09AF094C09BF0D5EC24
:101068005BF09AC067F49BC068F49CC069F429D10E
:1010780020EE02F03351D9263451DA22DECF2DF199
:10108800DDCF2EF1D8903535D96E3635DA6E2D5143
:10109800D9262E51DA22DECF93F0DDCF94F03BEC47
:1010A8004CF093C09AF094C09BF0D5EC5BF09AC0DA
:1010B80010F19BC011F19CC012F1DDEC4BF010C196
:1010C80081F411C182F4FDD020EE02F03351D9260B
:1010D8003451DA22DECF2DF1DDCF2EF1D89035351F
:1010E800D96E3635DA6E2D51D9262E51DA22DECF59
:1010F80093F0DDCF94F03BEC4CF093C09AF094C0A1
:101108009BF0D5EC5BF09AC010F19BC011F19CC02C
:1011180012F1DDEC4BF010C183F411C184F4D1D08D
:101128009A0E0001906FFE0E916F010120EE02F001
:101138003351D9263451DA22DECF2DF1DDCF2EF10D
:10114800D8903535D96E3635DA6E2D51D9262E51CF
:10115800DA22DECF92F0DDCF93F0CAEC46F0905160
:10116800911104E1010E0301BF6FABD00301BF6B06
:10117800A8D020EE02F03351D9263451DA22DECF3E
:101188002DF1DDCF2EF1D8903535D96E3635DA6EA2
:101198002D51D9262E51DA22DECF93F0DDCF94F0EF
:1011A8003BEC4CF093510301C06F8BD0060E4DEC15
:1011B8003FF087D001013251280A02E141EF01F0E6
:1011C800010A02E168EF01F0060A02E18FEF01F07F
:1011D8006D0A02E1C4EF01F0010A02E1EBEF01F050
:1011E8000A0A02E131EF02F0030A02E16EEF02F0AF
:1011F800010A02E1F4EF02F0070A02E148EF03F006
:10120800020A02E112EF02F0010A02E1A8EF02F07D
:101218001F0A02E1C7EF02F0010A02E17BEF03F0C7
:10122800030A02E180EF03F0010A02E185EF03F00F
:10123800070A02E18AEF03F0010A02E1F0EF03F086
:10124800030A02E11FEF04F0010A02E14EEF04F085
:101258000F0A02E179EF04F0010A02E1A8EF04F0B5
:10126800030A02E11CEF05F0010A01E137D4070A7D
:1012780002E1FEEF04F0010A02E1CFEF04F0020AF6
:1012880001E175D43F0A02E13AEF05F0050A01E1F0
:101298009CD4030A01E17AD6010A01E19DD60F0A1E
:1012A80001E1C0D6010A01E1E3D6030A01E10CD746
:1012B800040A01E15ED7010A01E132D71F0A01E100
:1012C80075D70101354B362B040179510101355D84
:1012D8003651800A2D6F04017A51800A01012D5977
:1012E800D8B012001CEF01F0470E01011F5D010E7E
:1012F800205914E21FC198F020C199F0ABEC5DF0C1
:1013080098C0ABF099C0ACF09AC0ADF0AE6BAF6BC3
:101318003E0EB06F46EC47F023EF11F0470E1F5D0D
:10132800010E20591BE3660E1F5D010E205916E2BF
:101338001FC198F020C199F0ABEC5DF098C0ABF0FC
:1013480099C0ACF09AC0ADF00C0EAE6F020EAF6F44
:101358003E0EB06F46EC47F023EF11F0660E1F5DAE
:10136800010E20591BE37A0E1F5D010E205916E26B
:101378001FC198F020C199F0ABEC5DF098C0ABF0BC
:1013880099C0ACF09AC0ADF0120EAE6F030EAF6FFD
:101398003E0EB06F46EC47F023EF11F07A0E1F5D5A
:1013A800010E20591BE3870E1F5D010E205916E21E
:1013B8001FC198F020C199F0ABEC5DF098C0ABF07C
:1013C80099C0ACF09AC0ADF0190EAE6F040EAF6FB5
:1013D8003E0EB06F46EC47F023EF11F0870E1F5D0D
:1013E800010E20591BE3960E1F5D010E205916E2CF
:1013F8001FC198F020C199F0ABEC5DF098C0ABF03C
:1014080099C0ACF09AC0ADF01F0EAE6F050EAF6F6D
:101418003E0EB06F46EC47F023EF11F0960E1F5DBD
:10142800010E20591BE39F0E1F5D010E205916E285
:101438001FC198F020C199F0ABEC5DF098C0ABF0FB
:1014480099C0ACF09AC0ADF0250EAE6F060EAF6F26
:101458003E0EB06F46EC47F023EF11F09F0E1F5D74
:10146800010E20591BE3A80E1F5D010E205916E23C
:101478001FC198F020C199F0ABEC5DF098C0ABF0BB
:1014880099C0ACF09AC0ADF02B0EAE6F070EAF6FDF
:101498003E0EB06F46EC47F023EF11F0A80E1F5D2B
:1014A800010E20591BE3B30E1F5D010E205916E2F1
:1014B8001FC198F020C199F0ABEC5DF098C0ABF07B
:1014C80099C0ACF09AC0ADF0310EAE6F080EAF6F98
:1014D8003E0EB06F46EC47F023EF11F0B30E1F5DE0
:1014E800010E20591BE3BB0E1F5D010E205916E2A9
:1014F8001FC198F020C199F0ABEC5DF098C0ABF03B
:1015080099C0ACF09AC0ADF0370EAE6F090EAF6F50
:101518003E0EB06F46EC47F023EF11F0BB0E1F5D97
:10152800010E20591BE3C00E1F5D010E205916E263
:101538001FC198F020C199F0ABEC5DF098C0ABF0FA
:1015480099C0ACF09AC0ADF03D0EAE6F0A0EAF6F09
:101558003E0EB06F46EC47F023EF11F0C00E1F5D52
:10156800010E20591BE3C80E1F5D010E205916E21B
:101578001FC198F020C199F0ABEC5DF098C0ABF0BA
:1015880099C0ACF09AC0ADF0440EAE6F0B0EAF6FC1
:101598003E0EB06F46EC47F023EF11F0C80E1F5D0A
:1015A800010E20591BE3CF0E1F5D010E205916E2D4
:1015B8001FC198F020C199F0ABEC5DF098C0ABF07A
:1015C80099C0ACF09AC0ADF04A0EAE6F0C0EAF6F7A
:1015D8003E0EB06F46EC47F023EF11F0CF0E1F5DC3
:1015E800010E20591BE3D40E1F5D010E205916E28F
:1015F8001FC198F020C199F0ABEC5DF098C0ABF03A
:1016080099C0ACF09AC0ADF0500EAE6F0D0EAF6F32
:101618003E0EB06F46EC47F023EF11F0D40E1F5D7D
:10162800010E20591BE3DF0E1F5D010E205916E243
:101638001FC198F020C199F0ABEC5DF098C0ABF0F9
:1016480099C0ACF09AC0ADF0560EAE6F0E0EAF6FEB
:101658003E0EB06F46EC47F023EF11F0DF0E1F5D32
:10166800010E20591BE3E10E1F5D010E205916E201
:101678001FC198F020C199F0ABEC5DF098C0ABF0B9
:1016880099C0ACF09AC0ADF05C0EAE6F0F0EAF6FA4
:101698003E0EB06F46EC47F023EF11F0E10E1F5DF0
:1016A800010E20591BE3E30E1F5D010E205916E2BF
:1016B8001FC198F020C199F0ABEC5DF098C0ABF079
:1016C80099C0ACF09AC0ADF0620EAE6F100EAF6F5D
:1016D8003E0EB06F46EC47F023EF11F0E30E1F5DAE
:1016E800010E20591BE3EA0E1F5D010E205916E278
:1016F8001FC198F020C199F0ABEC5DF098C0ABF039
:1017080099C0ACF09AC0ADF0680EAE6F110EAF6F15
:101718003E0EB06F46EC47F023EF11F0EA0E1F5D66
:10172800010E20591BE3EE0E1F5D010E205916E233
:101738001FC198F020C199F0ABEC5DF098C0ABF0F8
:1017480099C0ACF09AC0ADF06F0EAE6F120EAF6FCD
:101758003E0EB06F46EC47F023EF11F0EE0E1F5D22
:10176800010E20591BE3F20E1F5D010E205916E2EF
:101778001FC198F020C199F0ABEC5DF098C0ABF0B8
:1017880099C0ACF09AC0ADF0750EAE6F130EAF6F86
:101798003E0EB06F46EC47F023EF11F0F20E1F5DDE
:1017A800010E20591BE3F70E1F5D010E205916E2AA
:1017B8001FC198F020C199F0ABEC5DF098C0ABF078
:1017C80099C0ACF09AC0ADF07B0EAE6F140EAF6F3F
:1017D8003E0EB06F46EC47F023EF11F0F70E1F5D99
:1017E800010E20591BE3FB0E1F5D010E205916E266
:1017F8001FC198F020C199F0ABEC5DF098C0ABF038
:1018080099C0ACF09AC0ADF0810EAE6F150EAF6FF7
:101818003E0EB06F46EC47F023EF11F0FB0E1F5D54
:10182800010E20591BE3FE0E1F5D010E205916E222
:101838001FC198F020C199F0ABEC5DF098C0ABF0F7
:1018480099C0ACF09AC0ADF0870EAE6F160EAF6FB0
:101858003E0EB06F46EC47F023EF11F0FE0E1F5D11
:10186800010E20591BE3020E1F5D020E205916E2DD
:101878001FC198F020C199F0ABEC5DF098C0ABF0B7
:1018880099C0ACF09AC0ADF08D0EAE6F170EAF6F69
:101898003E0EB06F46EC47F023EF11F0020E1F5DCD
:1018A800020E20591BE3050E1F5D020E205916E299
:1018B8001FC198F020C199F0ABEC5DF098C0ABF077
:1018C80099C0ACF09AC0ADF0930EAE6F180EAF6F22
:1018D8003E0EB06F46EC47F023EF11F0050E1F5D8A
:1018E800020E20591BE3080E1F5D020E205916E256
:1018F8001FC198F020C199F0ABEC5DF098C0ABF037
:1019080099C0ACF09AC0ADF09A0EAE6F190EAF6FD9
:101918003E0EB06F46EC47F023EF11F0080E1F5D46
:10192800020E20591BE30B0E1F5D020E205916E212
:101938001FC198F020C199F0ABEC5DF098C0ABF0F6
:1019480099C0ACF09AC0ADF0A00EAE6F1A0EAF6F92
:101958003E0EB06F46EC47F023EF11F00B0E1F5D03
:10196800020E20591BE30E0E1F5D020E205916E2CF
:101978001FC198F020C199F0ABEC5DF098C0ABF0B6
:1019880099C0ACF09AC0ADF0A60EAE6F1B0EAF6F4B
:101998003E0EB06F46EC47F023EF11F00E0E1F5DC0
:1019A800020E20591BE3110E1F5D020E205916E28C
:1019B8001FC198F020C199F0ABEC5DF098C0ABF076
:1019C80099C0ACF09AC0ADF0AC0EAE6F1C0EAF6F04
:1019D8003E0EB06F46EC47F023EF11F0110E1F5D7D
:1019E800020E20591BE3150E1F5D020E205916E248
:1019F8001FC198F020C199F0ABEC5DF098C0ABF036
:101A080099C0ACF09AC0ADF0B20EAE6F1D0EAF6FBC
:101A18003E0EB06F46EC47F023EF11F0150E1F5D38
:101A2800020E20591AE3170E1F5D020E205915E207
:101A38001FC198F020C199F0ABEC5DF098C0ABF0F5
:101A480099C0ACF09AC0ADF0B80EAE6F1E0EAF6F75
:101A58003E0EB06F46EC47F0F2D3170E1F5D020E34
:101A680020591AE31A0E1F5D020E205915E21FC1F4
:101A780098F020C199F0ABEC5DF098C0ABF099C03C
:101A8800ACF09AC0ADF0BE0EAE6F1F0EAF6F3E0E3B
:101A9800B06F46EC47F0D3D31A0E1F5D020E2059E3
:101AA8001AE31E0E1F5D020E205915E21FC198F0A1
:101AB80020C199F0ABEC5DF098C0ABF099C0ACF0E8
:101AC8009AC0ADF0C50EAE6F200EAF6F3E0EB06F70
:101AD80046EC47F0B4D31E0E1F5D020E20591AE3E0
:101AE800200E1F5D020E205915E21FC198F020C17B
:101AF80099F0ABEC5DF098C0ABF099C0ACF09AC02F
:101B0800ADF0CB0EAE6F210EAF6F3E0EB06F46EC50
:101B180047F095D3200E1F5D020E20591AE3230EBD
:101B28001F5D020E205915E21FC198F020C199F0DF
:101B3800ABEC5DF098C0ABF099C0ACF09AC0ADF0DA
:101B4800D10EAE6F220EAF6F3E0EB06F46EC47F06F
:101B580076D3230E1F5D020E20591AE3260E1F5D51
:101B6800020E205915E21FC198F020C199F0ABEC84
:101B78005DF098C0ABF099C0ACF09AC0ADF0D70E4C
:101B8800AE6F230EAF6F3E0EB06F46EC47F057D3E3
:101B9800260E1F5D020E20591AE3270E1F5D020E46
:101BA800205915E21FC198F020C199F0ABEC5DF007
:101BB80098C0ABF099C0ACF09AC0ADF0DD0EAE6F36
:101BC800240EAF6F3E0EB06F46EC47F038D3270EA9
:101BD8001F5D020E20591AE3290E1F5D020E2059BF
:101BE80015E21FC198F020C199F0ABEC5DF098C0E8
:101BF800ABF099C0ACF09AC0ADF0E30EAE6F250E15
:101C0800AF6F3E0EB06F46EC47F019D3290E1F5D3B
:101C1800020E20591AE32B0E1F5D020E205915E201
:101C28001FC198F020C199F0ABEC5DF098C0ABF003
:101C380099C0ACF09AC0ADF0E90EAE6F260EAF6F4A
:101C48003E0EB06F46EC47F0FAD22B0E1F5D020E27
:101C580020591AE32D0E1F5D020E205915E21FC1EF
:101C680098F020C199F0ABEC5DF098C0ABF099C04A
:101C7800ACF09AC0ADF0F00EAE6F270EAF6F3E0E0F
:101C8800B06F46EC47F0DBD22D0E1F5D020E2059D7
:101C98001AE32F0E1F5D020E205915E21FC198F09E
:101CA80020C199F0ABEC5DF098C0ABF099C0ACF0F6
:101CB8009AC0ADF0F60EAE6F280EAF6F3E0EB06F45
:101CC80046EC47F0BCD22F0E1F5D020E20591AE3D6
:101CD800300E1F5D020E205915E21FC198F020C179
:101CE80099F0ABEC5DF098C0ABF099C0ACF09AC03D
:101CF800ADF0FC0EAE6F290EAF6F3E0EB06F46EC26
:101D080047F09DD2300E1F5D020E20591AE3320EA5
:101D18001F5D020E205915E21FC198F020C199F0ED
:101D2800ABEC5DF098C0ABF099C0ACF09AC0ADF0E8
:101D3800020EAE6F2B0EAF6F3E0EB06F46EC47F043
:101D48007ED2320E1F5D020E20591AE3340E1F5D3B
:101D5800020E205915E21FC198F020C199F0ABEC92
:101D68005DF098C0ABF099C0ACF09AC0ADF0080E29
:101D7800AE6F2C0EAF6F3E0EB06F46EC47F05FD2E1
:101D8800340E1F5D020E20591AE3350E1F5D020E38
:101D9800205915E21FC198F020C199F0ABEC5DF015
:101DA80098C0ABF099C0ACF09AC0ADF00E0EAE6F13
:101DB8002D0EAF6F3E0EB06F46EC47F040D2350E99
:101DC8001F5D020E20591AE3370E1F5D020E2059BF
:101DD80015E21FC198F020C199F0ABEC5DF098C0F6
:101DE800ABF099C0ACF09AC0ADF0140EAE6F2E0EE9
:101DF800AF6F3E0EB06F46EC47F021D2370E1F5D35
:101E0800020E20591AE3390E1F5D020E205915E201
:101E18001FC198F020C199F0ABEC5DF098C0ABF011
:101E280099C0ACF09AC0ADF01B0EAE6F2F0EAF6F1D
:101E38003E0EB06F46EC47F002D2390E1F5D020E1F
:101E480020591AE33A0E1F5D020E205915E21FC1F0
:101E580098F020C199F0ABEC5DF098C0ABF099C058
:101E6800ACF09AC0ADF0210EAE6F300EAF6F3E0EE3
:101E7800B06F46EC47F0E3D13A0E1F5D020E2059D1
:101E88001AE33C0E1F5D020E205915E21FC198F09F
:101E980020C199F0ABEC5DF098C0ABF099C0ACF004
:101EA8009AC0ADF0270EAE6F310EAF6F3E0EB06F19
:101EB80046EC47F0C4D13C0E1F5D020E20591AE3D0
:101EC8003D0E1F5D020E205915E21FC198F020C17A
:101ED80099F0ABEC5DF098C0ABF099C0ACF09AC04B
:101EE800ADF02D0EAE6F320EAF6F3E0EB06F46ECFA
:101EF80047F0A5D13D0E1F5D020E205919E33F0E94
:101F08001F5D020E205914E21FC198F020C199F0FC
:101F1800ABEC5DF098C0ABF099C0ACF09AC0ADF0F6
:101F2800330EAE6FAF6F3E0EB06F46EC47F087D101
:101F38003F0E1F5D020E20591AE3400E1F5D020E70
:101F4800205915E21FC198F020C199F0ABEC5DF063
:101F580098C0ABF099C0ACF09AC0ADF0390EAE6F36
:101F6800340EAF6F3E0EB06F46EC47F068D1400EAE
:101F78001F5D020E20591AE3410E1F5D020E205903
:101F880015E21FC198F020C199F0ABEC5DF098C044
:101F9800ABF099C0ACF09AC0ADF03F0EAE6F350E05
:101FA800AF6F3E0EB06F46EC47F049D1410E1F5D52
:101FB800020E20591AE3420E1F5D020E205915E247
:101FC8001FC198F020C199F0ABEC5DF098C0ABF060
:101FD80099C0ACF09AC0ADF0460EAE6F360EAF6F3A
:101FE8003E0EB06F46EC47F02AD1420E1F5D020E3E
:101FF80020591AE3430E1F5D020E205915E21FC136
:1020080098F020C199F0ABEC5DF098C0ABF099C0A6
:10201800ACF09AC0ADF04C0EAE6F370EAF6F3E0EFF
:10202800B06F46EC47F00BD1430E1F5D020E2059EE
:102038001AE3440E1F5D020E205915E21FC198F0E5
:1020480020C199F0ABEC5DF098C0ABF099C0ACF052
:102058009AC0ADF0520EAE6F380EAF6F3E0EB06F35
:1020680046EC47F0ECD0440E1F5D020E20591AE3EF
:10207800460E1F5D020E205915E21FC198F020C1BF
:1020880099F0ABEC5DF098C0ABF099C0ACF09AC099
:10209800ADF0580EAE6F390EAF6F3E0EB06F46EC16
:1020A80047F0CDD0460E1F5D020E20591AE3470EA9
:1020B8001F5D020E205915E21FC198F020C199F04A
:1020C800ABEC5DF098C0ABF099C0ACF09AC0ADF045
:1020D8005E0EAE6F3A0EAF6F3E0EB06F46EC47F035
:1020E800AED0470E1F5D020E20591AE3480E1F5D41
:1020F800020E205915E21FC198F020C199F0ABECEF
:102108005DF098C0ABF099C0ACF09AC0ADF0640E29
:10211800AE6F3B0EAF6F3E0EB06F46EC47F08FD000
:10212800480E1F5D020E20591AE3490E1F5D020E6C
:10213800205915E21FC198F020C199F0ABEC5DF071
:1021480098C0ABF099C0ACF09AC0ADF06A0EAE6F13
:102158003C0EAF6F3E0EB06F46EC47F070D0490EA4
:102168001F5D020E20591AE34A0E1F5D020E205908
:1021780015E21FC198F020C199F0ABEC5DF098C052
:10218800ABF099C0ACF09AC0ADF0710EAE6F3D0ED9
:10219800AF6F3E0EB06F46EC47F051D04A0E1F5D50
:1021A800020E205919E34B0E1F5D020E205914E24E
:1021B8001FC198F020C199F0ABEC5DF098C0ABF06E
:1021C80099C0ACF09AC0ADF0770EAE6F3E0EAF6F0F
:1021D800B06F46EC47F033D04B0E1F5D020E20590E
:1021E8001AE34C0E1F5D020E205915E21FC198F02C
:1021F80020C199F0ABEC5DF098C0ABF099C0ACF0A1
:102208009AC0ADF07D0EAE6F3F0EAF6F3E0EB06F51
:1022180046EC47F014D01FC198F020C199F0ABEC00
:102228005DF098C0ABF099C0ACF09AC0ADF07D0EEF
:10223800AE6F3F0EAF6F3E0EB06F46EC47F0ABC0CF
:1022480021F1ACC022F1ADC023F121C110F122C1AE
:1022580011F123C112F1DDEC4BF010C11FF111C1D6
:1022680020F11200E0C4FAF2E1C4FBF2E2C4FCF28D
:10227800E3C4FDF2E4C4FEF2E5C4FFF2E6C464F38D
:10228800E7C465F3E8C466F3E9C467F3EAC468F32E
:10229800EBC469F3ECC46AF3EDC46BF3EEC46CF3FE
:1022A800EFC46DF3F0C46EF3F1C46FF3040E0301D1
:1022B800FD65040CFD6BA25101E024D1D890010109
:1022C800FE35F66EFF35F76E050EF626F90EF72287
:1022D800F86A000EF8220900F5CF90F00A00F5CF51
:1022E80091F0D0EC59F091511EE1370E905DD8B0C5
:1022F8001AD0A40E906F050E916FD8900101FE358B
:10230800F66EFF35F76E050EF626F90EF722F86A17
:10231800000EF8220900F5CF92F00A00F5CF93F0ED
:102328005CEC5CF00AD0A40E906F050E916FD20E93
:10233800926FFF0E936F5CEC5CF0A40E0001946F3B
:10234800050E956FEA0E966FFF0E976FA40E906FAD
:10235800050E916FD0EC59F090513808986F915153
:10236800D8A0E82A0008996F38EC57F0000EC0ECA6
:102378005CF0040E0101FE19FF1101E0E9D0030130
:10238800FC510CE0A40E0001906F050E916F8D0EAC
:10239800926FFF0E936F5CEC5CF0DAD0A40E000134
:1023A800906F050E916F850E926FFF0E936F5CEC28
:1023B8005CF0CED0A40E0001906F050E916F390E1F
:1023C800926FFF0E936F5CEC5CF0BDD0A40E000121
:1023D800906F050E916FE90E926FFE0E936F5CEC95
:1023E8005CF0B1D0A40E0001906F050E916F9C0EA9
:1023F800926FFF0E936F5CEC5CF0A5D0A40E000109
:10240800906F050E916F5D0E926FFD0E936F5CECF1
:102418005CF099D0A40E0001906F050E916F420EEA
:10242800926FFF0E936F5CEC5CF08DD0A40E0001F0
:10243800906F050E916FE10E926FFD0E936F5CEC3D
:102448005CF081D0A40E0001906F050E916FF30E21
:10245800926FFE0E936F5CEC5CF075D0A40E0001D9
:10246800906F050E916FFD0E926FFE0E936F5CECF0
:102478005CF069D0A40E0001906F050E916F070EF5
:10248800926FFF0E936F5CEC5CF05DD0A40E0001C0
:10249800906F050E916FEE0E926FFD0E936F5CECD0
:1024A8005CF051D0A40E0001906F050E916FFB0EE9
:1024B800926FFD0E936F5CEC5CF045D0A40E0001AA
:1024C800906F050E916F6C0E926FFD0E936F5CEC22
:1024D8005CF039D0A40E0001906F050E916F080EC4
:1024E800926FFE0E936F5CEC5CF02DD0A40E000191
:1024F800906F050E916F5D0E926FFF0E936F5CECFF
:102508005CF021D0A251010A01E154D7030A01E18C
:102518005DD7010A01E166D7070A01E16FD7010A11
:1025280001E178D7030A82E0010A8CE00F0A96E0FD
:10253800010AA0E0030AAAE0010AB4E0070ABEE023
:10254800010AC8E0D3D7010EC0EC5CF00301A26B0E
:102558009CC4A6F09DC4A7F09EC4A8F09FC4A9F08F
:10256800F80E0001AA6F040EAB6FFA0EAC6F040EE2
:10257800AD6FFC0EAE6F040EAF6F08EC4EF088A284
:102588001AD087C47DF488C47EF499C37FF49AC3B3
:1025980080F479C352F47AC353F47BC354F485C3EB
:1025A8004FF486C350F487C351F48EC355F48FC3D8
:1025B80056F490C357F4190E0101216F020E226FD1
:1025C8007B0E236FFD0E246FF8C425F1F9C426F1A4
:1025D800FAC427F1FBC428F1FCC429F1FDC42AF18F
:1025E800ABEC1DF09A0E216F010E226FBE0E236F09
:1025F800FF0E246F76C325F177C326F178C327F140
:10260800ABEC1DF0810E216F010E226FC80E236FF7
:10261800FF0E246F52C425F153C426F154C427F188
:10262800ABEC1DF0B30E216F010E226FC80E236FA5
:10263800FF0E246F4FC425F150C426F151C427F171
:10264800ABEC1DF0000E216F020E226FCD0E236F32
:10265800FF0E246F7DC425F17EC426F1ABEC1DF07E
:10266800E50E216F010E226FCD0E236FFF0E246F32
:102678007FC425F180C426F1ABEC1DF0CC0E216F90
:10268800010E226FC80E236FFF0E246F55C425F16B
:1026980056C426F157C427F1ABEC1DF04F0E216F3D
:1026A800010E226FE70E236FFF0E246FBDC325F1C5
:1026B800266BABEC1DF0320E216F020E226FC30E9B
:1026C800236FFF0E246F37C425F138C426F139C4AF
:1026D80027F1ABEC1DF04B0E216F020E226FC30EDB
:1026E800236FFF0E246F2EC425F12FC426F130C4AA
:1026F80027F1ABEC1DF0640E216F020E226FC30EA2
:10270800236FFF0E246F2BC425F12CC426F12DC492
:1027180027F1ABEC1DF00301BE510CE0E70E000100
:10272800906F060E916FB80E926FFF0E936F5CEC70
:102738005CF011D0E70E0101216F060E226FA30E87
:10274800236FFF0E246FD5C325F1D6C326F1D7C357
:1027580027F1ABEC1DF07D0E0101216F020E226FF7
:10276800A30E236FFF0E246FD2C325F1D3C326F126
:10277800D4C327F1ABEC1DF0960E216F020E226F29
:10278800A30E236FFF0E246FCFC325F1D0C326F10C
:10279800D1C327F1ABEC1DF0E10E216F020E226FC1
:1027A800E70E236FFF0E246F6DC425F16EC426F16A
:1027B800ABEC1DF0320E216F030E226FE70E236F74
:1027C800FF0E246F71C425F172C426F1ABEC1DF025
:1027D800C80E216F020E226FBE0E236FFF0E246FEC
:1027E8006AC425F16BC426F16CC427F1ABEC1DF06B
:1027F800AF0E216F020E226FE70E236FFF0E246FBC
:10280800B3C325F1266BABEC1DF04B0E216F030E05
:10281800226FE70E236FFF0E246FC1C325F1266BCD
:10282800ABEC1DF0190E216F030E226FC30E236F40
:10283800FF0E246FCCC325F1CDC326F1CEC327F1FB
:10284800ABEC1DF0000E216F030E226FC30E236F39
:10285800FF0E246FD8C325F1D9C326F1DAC327F1B7
:10286800ABEC1DF0680E216F010E226FA30E236FD3
:10287800FF0E246F7FC325F180C326F181C327F1A2
:10288800ABEC1DF0000E0001A66F050EA76F540EED
:10289800A86FFF0EA96F810EAA6F010EAB6FF5EC42
:1028A80049F0000EA66F050EA76F2F0EA86FFE0E3B
:1028B800A96FB30EAA6F010EAB6FF5EC49F0000ECD
:1028C800A66F050EA76F250EA86FFF0EA96FCC0E79
:1028D800AA6F010EAB6FF5EC49F0000EA66F050E5E
:1028E800A76F6D0EA86FFE0EA96F000EAA6F020EDD
:1028F800AB6FF5EC49F0000EA66F050EA76F3C0E06
:10290800A86FFE0EA96FE50EAA6F010EAB6FF5EC6E
:1029180049F0000EA66F050EA76FB20EA86FFE0E47
:10292800A96F9A0EAA6FFE0EAB6FF5EC49F0000E78
:10293800A66F050EA76FB10EA86FFF0EA96FA40EA4
:10294800AA6F050EAB6FF5EC49F0000EA66F050EE9
:10295800A76F650EA86FFF0EA96F190EAA6F020E5A
:10296800AB6FF5EC49F0000EA66F050EA76F6D0E64
:10297800A86FFF0EA96F9A0EAA6F010EAB6FF5EC48
:1029880049F0000EA66F050EA76F750EA86FFF0E13
:10299800A96FE10EAA6F020EAB6FF5EC49F0000EBD
:1029A800A66F050EA76FAA0EA86FFF0EA96F320EAD
:1029B800AA6F030EAB6FF5EC49F0000EA66F050E7B
:1029C800A76FDE0EA86FFE0EA96FC80EAA6F020EC3
:1029D800AB6FF5EC49F0000EA66F050EA76F4B0E16
:1029E800A86FFF0EA96FAF0EAA6F020EAB6FF5ECC2
:1029F80049F0CE0E0101216F060E226FC30E236F20
:102A0800FF0E246F82C325F183C326F184C327F107
:102A1800ABEC1DF0000E0001A66F050EA76F7D0E32
:102A2800A86FFF0EA96FCE0EAA6F060EAB6FF5EC5E
:102A380049F0000EA66F050EA76F3D0EA86FFD0E9C
:102A4800A96F910EAA6FFE0EAB6FF5EC49F0000E60
:102A5800A66F050EA76FE00EA86FFC0EA96F320EC9
:102A6800AA6F020EAB6FF5EC49F0000EA66F050ECB
:102A7800A76F090EA86FFD0EA96F4B0EAA6F020E65
:102A8800AB6FF5EC49F0000EA66F050EA76F9D0E13
:102A9800A86FFC0EA96F640EAA6F020EAB6FF5EC5F
:102AA80049F0000EA66F050EA76F9C0EA86FFE0ECC
:102AB800A96F7D0EAA6F020EAB6FF5EC49F0000E00
:102AC800A66F050EA76F150EA86FFE0EA96FE70E6D
:102AD800AA6F060EAB6FF5EC49F0000EA66F050E57
:102AE800A76F4D0EA86FFD0EA96F960EAA6F020E66
:102AF800AB6FF5EC49F0000EA66F050EA76FD30E6D
:102B0800A86FFE0EA96F190EAA6F030EAB6FF5EC36
:102B180049F0000EA66F050EA76FBD0EA86FFE0E3A
:102B2800A96F4B0EAA6F030EAB6FF5EC49F0000EC0
:102B3800A66F050EA76FC80EA86FFE0EA96F000E30
:102B4800AA6F030EAB6FF5EC49F00301A45144E101
:102B5800560E0201FA6F0301A3511EE0000E000198
:102B6800A66F050EA76FFA0EA86F020EA96F9A0E30
:102B7800AA6FFE0EAB6FF5EC49F0000EA66F050EBE
:102B8800A76F1B0EA86FFF0EA96F9A0EAA6FFE0EF5
:102B9800AB6FF5EC49F01DD0000E0001A66F050ED5
:102BA800A76FFA0EA86F020EA96FBC0EAA6FFF0ED0
:102BB800AB6FF5EC49F0000EA66F050EA76F1B0E64
:102BC800A86FFF0EA96FBC0EAA6FFF0EAB6FF5ECD6
:102BD80049F0010E0301A46FB65144E1550E0201FC
:102BE800FD6F0301B5511EE0000E0001A66F050E32
:102BF800A76FFD0EA86F020EA96F9A0EAA6FFE0EA0
:102C0800AB6FF5EC49F0000EA66F050EA76FA70E87
:102C1800A86FFE0EA96F9A0EAA6FFE0EAB6FF5ECA9
:102C280049F01DD0000E0001A66F050EA76FFD0E1E
:102C3800A86F020EA96FBC0EAA6FFF0EAB6FF5EC62
:102C480049F0000EA66F050EA76FA70EA86FFE0E1F
:102C5800A96FBC0EAA6FFF0EAB6FF5EC49F0010E21
:102C68000301B66FAF5142E1570E646FAE511EE0DB
:102C7800000E0001A66F050EA76F640EA86F030E65
:102C8800A96F9A0EAA6FFE0EAB6FF5EC49F0000E15
:102C9800A66F050EA76FC60EA86FFD0EA96F9A0E38
:102CA800AA6FFE0EAB6FF5EC49F01DD0000E0001C7
:102CB800A66F050EA76F640EA86F030EA96FBC0E52
:102CC800AA6FFF0EAB6FF5EC49F0000EA66F050E6C
:102CD800A76FC60EA86FFD0EA96FBC0EAA6FFF0ED8
:102CE800AB6FF5EC49F0010E0301AF6FBB5142E148
:102CF800580E676F9D511EE0000E0001A66F050E6D
:102D0800A76F670EA86F030EA96F9A0EAA6FFE0E23
:102D1800AB6FF5EC49F0000EA66F050EA76F550EC8
:102D2800A86FFE0EA96F9A0EAA6FFE0EAB6FF5EC98
:102D380049F01DD0000E0001A66F050EA76F670EA3
:102D4800A86F030EA96FBC0EAA6FFF0EAB6FF5EC50
:102D580049F0000EA66F050EA76F550EA86FFE0E60
:102D6800A96FBC0EAA6FFF0EAB6FF5EC49F0010E10
:102D78000301BB6FBA5142E15D0E6A6FB8511EE0A4
:102D8800000E0001A66F050EA76F6A0EA86F030E4E
:102D9800A96F9A0EAA6FFE0EAB6FF5EC49F0000E04
:102DA800A66F050EA76F610EA86FFE0EA96F9A0E8B
:102DB800AA6FFE0EAB6FF5EC49F01DD0000E0001B6
:102DC800A66F050EA76F6A0EA86F030EA96FBC0E3B
:102DD800AA6FFF0EAB6FF5EC49F0000EA66F050E5B
:102DE800A76F610EA86FFE0EA96FBC0EAA6FFF0E2B
:102DF800AB6FF5EC49F0010E0301BA6FB15142E136
:102E08005F0E6D6FB0511EE0000E0001A66F050E3B
:102E1800A76F6D0EA86F030EA96F9A0EAA6FFE0E0C
:102E2800AB6FF5EC49F0000EA66F050EA76F220EEA
:102E3800A86FFE0EA96F9A0EAA6FFE0EAB6FF5EC87
:102E480049F01DD0000E0001A66F050EA76F6D0E8C
:102E5800A86F030EA96FBC0EAA6FFF0EAB6FF5EC3F
:102E680049F0000EA66F050EA76F220EA86FFE0E82
:102E7800A96FBC0EAA6FFF0EAB6FF5EC49F0010EFF
:102E88000301B16FAE0E0001906F060E916FD0EC8A
:102E980059F0915103E1020E905D0EE3000EA66F0A
:102EA800050EA76F110EA86FFF0EA96FAE0EAA6FC1
:102EB800060EAB6FF5EC49F08A0EAD6F0C0EAE6FD7
:102EC800000EAF6F050EB06FE9EC5EF0AE0E0001BC
:102ED800906F060E916F9C0E926FFC0E936F5CEFD5
:102EE8005CF00AC19DF00BC19EF00CC19FF0060E6C
:102EF8000001A06F020EA26F820EA16FA46B010EDB
:102F0800A36FA66B800EA56F020EA76F17C1A8F05E
:102F180018C1A9F019C1AAF01AC1ABF0CFEC45F05D
:102F28000AC191F00BC192F0080E936F7EEC52F03B
:102F3800530E01011B6FCA0EE82EFED71B2FFCD7BC
:102F48000AC19DF00BC19EF00CC19FF0060E000156
:102F5800A06F020EA26F830EA16FA46B010EA36F68
:102F6800A66BA56F020EA76F17C1A8F018C1A9F02C
:102F780019C1AAF01AC1ABF0CFEC45F00AC191F023
:102F88000BC192F0080E936F7EEC52F0530E0101C4
:102F98001B6FCA0EE82EFED71B2FFCD70AC19DF067
:102FA8000BC19EF00CC19FF0060E0001A06F020E2F
:102FB800A26F5C0EA16FA46B010EA36FA66BA56B2D
:102FC800020EA76F17C1A8F018C1A9F019C1AAF07D
:102FD8001AC1ABF0CFEC45F00AC191F00BC192F0E9
:102FE800080E936F7EEC52F0530E01011B6FCA0E50
:102FF800E82EFED71B2FFCD70AC100F10BC101F147
:103008000CC102F117C103F118C104F119C105F18E
:103018001AC106F1B1EC48F00AC19DF00BC19EF04F
:103028000CC19FF0060E0001A06F040EA26F670E80
:10303800A16FA46B010EA36FA66B030EA56F020E02
:10304800A76F17C1A8F018C1A9F019C1AAF01AC131
:10305800ABF0CFEC45F00AC191F00BC192F0080E2D
:10306800936F7EEC52F0530E01011B6FCA0EE82ECF
:10307800FED71B2FFCD70AC100F10BC101F10CC10F
:1030880002F117C103F118C104F119C105F11AC100
:1030980006F1B1EC48F00AC19DF00BC19EF00CC1DD
:1030A8009FF0060E0001A06FA26BD30EA16FA46B58
:1030B800010EA36FA66BA56F020EA76F17C1A8F02C
:1030C80018C1A9F019C1AAF01AC1ABF0CFEC45F0AC
:1030D8000AC191F00BC192F0080E936F7EEC52F08A
:1030E800530E01011B6FCA0EE82EFED71B2FFCD70B
:1030F8000AC100F10BC101F10CC102F117C103F1C2
:1031080018C104F119C105F11AC106F1B1EC48F072
:103118000AC19DF00BC19EF00CC19FF0060E000184
:10312800A06FA26BD40EA16FA46B010EA36FA66B48
:10313800A56F020EA76F17C1A8F018C1A9F019C191
:10314800AAF01AC1ABF0CFEC45F00AC191F00BC15F
:1031580092F0080E936F7EEC52F0530E01011B6F34
:10316800CA0EE82EFED71B2FFCD70AC100F10BC1EF
:1031780001F10CC102F117C103F118C104F119C121
:1031880005F11AC106F1B1EC48F00AC19DF00BC176
:103198009EF00CC19FF0060E0001A06FA26BD50E29
:1031A800A16FA46B010EA36FA66BA56F020EA76F8C
:1031B80017C1A8F018C1A9F019C1AAF01AC1ABF03B
:1031C800CFEC45F00AC191F00BC192F0080E936F55
:1031D8007EEC52F0530E01011B6FCA0EE82EFED78B
:1031E8001B2FFCD70AC100F10BC101F10CC102F180
:1031F80017C103F118C104F119C105F11AC106F18B
:10320800B1EC48F00AC19DF00BC19EF00CC19FF0D3
:10321800060E0001A06FA26BD60EA16FA46B010E63
:10322800A36FA66BA56F020EA76F17C1A8F018C1F0
:10323800A9F019C1AAF01AC1ABF0CFEC45F00AC148
:1032480091F00BC192F0080E936F7EEC52F0530E82
:1032580001011B6FCA0EE82EFED71B2FFCD70AC12F
:1032680000F10BC101F10CC102F117C103F118C142
:1032780004F119C105F11AC106F1B1EC48F00AC10F
:103288009DF00BC19EF00CC19FF0060E0001A06FCF
:10329800A26BD70EA16FA46B010EA36FA66BA56FCF
:1032A800020EA76F17C1A8F018C1A9F019C1AAF09A
:1032B8001AC1ABF0CFEC45F00AC191F00BC192F006
:1032C800080E936F7EEC52F0530E01011B6FCA0E6D
:1032D800E82EFED71B2FFCD70AC100F10BC101F164
:1032E8000CC102F117C103F118C104F119C105F1AC
:1032F8001AC106F1B1EC48F004000AC19DF00BC1F7
:103308009EF00CC19FF0060E0001A06FA26BD80EB4
:10331800A16FA46B010EA36FA66BA56F020EA76F1A
:1033280017C1A8F018C1A9F019C1AAF01AC1ABF0C9
:10333800CFEC45F00AC191F00BC192F0080E936FE3
:103348007EEC52F0530E01011B6FCA0EE82EFED719
:103358001B2FFCD70AC100F10BC101F10CC102F10E
:1033680017C103F118C104F119C105F11AC106F119
:10337800B1EC48F00AC19DF00BC19EF00CC19FF062
:10338800060E0001A06FA26BD90EA16FA46B010EEF
:10339800A36FA66BA56F020EA76F17C1A8F018C17F
:1033A800A9F019C1AAF01AC1ABF0CFEC45F00AC1D7
:1033B80091F00BC192F0080E936F7EEC52F0530E11
:1033C80001011B6FCA0EE82EFED71B2FFCD70AC1BE
:1033D80000F10BC101F10CC102F117C103F118C1D1
:1033E80004F119C105F11AC106F1B1EC48F00AC19E
:1033F8009DF00BC19EF00CC19FF0060E0001A06F5E
:10340800A26BDA0EA16FA46B010EA36FA66BA56F5A
:10341800020EA76F17C1A8F018C1A9F019C1AAF028
:103428001AC1ABF0CFEC45F00AC191F00BC192F094
:10343800080E936F7EEC52F0530E01011B6FCA0EFB
:10344800E82EFED71B2FFCD70AC100F10BC101F1F2
:103458000CC102F117C103F118C104F119C105F13A
:103468001AC106F1B1EC48F00AC19DF00BC19EF0FB
:103478000CC19FF0060E0001A06FA26BDD0EA16FBC
:10348800A46B010EA36FA66BA56F020EA76F17C1E1
:10349800A8F018C1A9F019C1AAF01AC1ABF0CFEC75
:1034A80045F00AC191F00BC192F0080E936F7EECC3
:1034B80052F0530E01011B6FCA0EE82EFED71B2FC8
:1034C800FCD70AC100F10BC101F10CC102F117C10F
:1034D80003F118C104F119C105F11AC106F1B1ECE3
:1034E80048F00AC19DF00BC19EF00CC19FF0060E7A
:1034F8000001A06FA26BDE0EA16FA46B010EA36F7B
:10350800A66BA56F020EA76F17C1A8F018C1A9F086
:1035180019C1AAF01AC1ABF0CFEC45F00AC191F07D
:103528000BC192F0080E936F7EEC52F0530E01011E
:103538001B6FCA0EE82EFED71B2FFCD70AC100F15D
:103548000BC101F10CC102F117C103F118C104F15B
:1035580019C105F11AC106F1B1EC48F00AC19DF094
:103568000BC19EF00CC19FF0060E0001A06FA26B6C
:10357800DF0EA16FA46B010EA36FA66BA56F020EE1
:10358800A76F17C1A8F018C1A9F019C1AAF01AC1EC
:10359800ABF0CFEC45F00AC191F00BC192F0080EE8
:1035A800936F7EEC52F0530E01011B6FCA0EE82E8A
:1035B800FED71B2FFCD70AC100F10BC101F10CC1CA
:1035C80002F117C103F118C104F119C105F11AC1BB
:1035D80006F1B1EC48F00AC19DF00BC19EF00CC198
:1035E8009FF0060E0001A06FA26BE00EA16FA46B06
:1035F800010EA36FA66BA56F020EA76F17C1A8F0E7
:1036080018C1A9F019C1AAF01AC1ABF0CFEC45F066
:103618000AC191F00BC192F0080E936F7EEC52F044
:10362800530E01011B6FCA0EE82EFED71B2FFCD7C5
:103638000AC100F10BC101F10CC102F117C103F17C
:1036480018C104F119C105F11AC106F1B1EC48F02D
:1036580004000AC19DF00BC19EF00CC19FF0060E3C
:103668000001A06FA26BE10EA16FA46B010EA36F06
:10367800A66BA56F020EA76F17C1A8F018C1A9F015
:1036880019C1AAF01AC1ABF0CFEC45F00AC191F00C
:103698000BC192F0080E936F7EEC52F0530E0101AD
:1036A8001B6FCA0EE82EFED71B2FFCD70AC100F1EC
:1036B8000BC101F10CC102F117C103F118C104F1EA
:1036C80019C105F11AC106F1B1EC48F00AC19DF023
:1036D8000BC19EF00CC19FF0060E0001A06FA26BFB
:1036E800E20EA16FA46B010EA36FA66BA56F020E6D
:1036F800A76F17C1A8F018C1A9F019C1AAF01AC17B
:10370800ABF0CFEC45F00AC191F00BC192F0080E76
:10371800936F7EEC52F0530E01011B6FCA0EE82E18
:10372800FED71B2FFCD70AC100F10BC101F10CC158
:1037380002F117C103F118C104F119C105F11AC149
:1037480006F1B1EC48F00AC19DF00BC19EF00CC126
:103758009FF0060E0001A06FA26BE30EA16FA46B91
:10376800010EA36FA66BA56F020EA76F17C1A8F075
:1037780018C1A9F019C1AAF01AC1ABF0CFEC45F0F5
:103788000AC191F00BC192F0080E936F7EEC52F0D3
:10379800530E01011B6FCA0EE82EFED71B2FFCD754
:1037A8000AC100F10BC101F10CC102F117C103F10B
:1037B80018C104F119C105F11AC106F1B1EC48F0BC
:1037C8000AC19DF00BC19EF00CC19FF0060E0001CE
:1037D800A06FA26BE40EA16FA46B010EA36FA66B82
:1037E800A56F020EA76F17C1A8F018C1A9F019C1DB
:1037F800AAF01AC1ABF0CFEC45F00AC191F00BC1A9
:1038080092F0080E936F7EEC52F0530E01011B6F7D
:10381800CA0EE82EFED71B2FFCD70AC100F10BC138
:1038280001F10CC102F117C103F118C104F119C16A
:1038380005F11AC106F1B1EC48F00AC19DF00BC1BF
:103848009EF00CC19FF0060E0001A06F010EA26F42
:10385800FA0EA16FA46B010EA36F13C1A5F014C1DA
:10386800A6F0020EA76F17C1A8F018C1A9F019C1D8
:10387800AAF01AC1ABF0CFEC45F00AC191F00BC128
:1038880092F0080E936F7EEC52F0530E01011B6FFD
:10389800CA0EE82EFED71B2FFCD70AC100F10BC1B8
:1038A80001F10CC102F117C103F118C104F119C1EA
:1038B80005F11AC106F1B1EC48F00AC19DF00BC13F
:1038C8009EF00CC19FF0060E0001A06F010EA26FC2
:1038D800FB0EA16FA46B010EA36F0DC1A5F00EC165
:1038E800A6F0020EA76F17C1A8F018C1A9F019C158
:1038F800AAF01AC1ABF0CFEC45F00AC191F00BC1A8
:1039080092F0080E936F7EEC52F0530E01011B6F7C
:10391800CA0EE82EFED71B2FFCD70AC100F10BC137
:1039280001F10CC102F117C103F118C104F119C169
:1039380005F11AC106F1B1EC48F00AC19DF00BC1BE
:103948009EF00CC19FF0060E0001A06F010EA26F41
:10395800FC0EA16FA46B010EA36F0FC1A5F010C1DF
:10396800A6F0020EA76F17C1A8F018C1A9F019C1D7
:10397800AAF01AC1ABF0CFEC45F00AC191F00BC127
:1039880092F0080E936F7EEC52F0530E01011B6FFC
:10399800CA0EE82EFED71B2FFCD70AC100F10BC1B7
:1039A80001F10CC102F117C103F118C104F119C1E9
:1039B80005F11AC106F1B1EC48F004000AC19DF006
:1039C8000BC19EF00CC19FF0060E0001A06F010E06
:1039D800A26FFD0EA16FA46B010EA36F11C1A5F01C
:1039E80012C1A6F0020EA76F17C1A8F018C1A9F05E
:1039F80019C1AAF01AC1ABF0CFEC45F00AC191F099
:103A08000BC192F0080E936F7EEC52F0530E010139
:103A18001B6FCA0EE82EFED71B2FFCD70AC100F178
:103A28000BC101F10CC102F117C103F118C104F176
:103A380019C105F11AC106F1B1EC48F00AC19DF0AF
:103A48000BC19EF00CC19FF0060E0001A06F010E85
:103A5800A26FFE0EA16FA46B010EA36F15C1A5F096
:103A680016C1A6F0020EA76F17C1A8F018C1A9F0D9
:103A780019C1AAF01AC1ABF0CFEC45F00AC191F018
:103A88000BC192F0080E936F7EEC52F0530E0101B9
:103A98001B6FCA0EE82EFED71B2FFCD70AC100F1F8
:103AA8000BC101F10CC102F117C103F118C104F1F6
:103AB80019C105F11AC106F1B1EC48F00AC100F1CB
:103AC8000BC101F10CC102F1020E036F17C104F121
:103AD80018C105F119C106F11AC107F130EC55F00A
:103AE8000AC19DF00BC19EF00CC19FF0060E0001AB
:103AF800A06F020EA26F820EA16FA46B010EA36FBE
:103B0800A66B810EA56F020EA76F17C1A8F018C18A
:103B1800A9F019C1AAF01AC1ABF0CFEC45F0010128
:103B28001C6F0AC191F00BC192F0080E0001936F4F
:103B38007EEC52F001011C6F530E1B6FCA0EE82E6B
:103B4800FED71B2FFCD7040001011C511200250EC3
:103B5800376F010E386F95EF23F0250E4E190AE0E6
:103B680021C1D9FF22C1DAFF4EC1DFFF214B222B31
:103B780095EF23F04A6B4B6B486B496B03D0488534
:103B8800234B242B23C1F6FF24C1F7FFF86A080052
:103B9800F550300AF4E023C1F6FF24C1F7FFF86AB4
:103BA8000800F55049EC5EF032E301014A6B4B6BBB
:103BB8004AC190F04BC191F00001936B0A0E926FCD
:103BC800D1EC5DF090C04AF191C04BF1D00E0101EB
:103BD8002B6F2C6923C1F6FF24C1F7FFF86A080090
:103BE800F5502D6F2E6B2B512D272C512E232D5137
:103BF8004A272E514B23234B242B23C1F6FF24C1E4
:103C0800F7FFF86A0800F55049EC5EF0D1E223C1ED
:103C1800F6FF24C1F7FFF86A0800F5502E0A2FE1D5
:103C28000101498D234B242B4C6B4D6B1CD00A0E84
:103C380001014C03F3CF2BF1F4CF2CF14D03F350DA
:103C48002C2723C1F6FF24C1F7FFF86A0800F550B6
:103C58002B27000E2C23D00E2B254C6FFF0E2C216A
:103C68004D6F234B242B23C1F6FF24C1F7FFF86ABD
:103C78000800F55049EC5EF001E28ED0D8D701017A
:103C88004C6B4D6B498988D04985A6D0488FA4D004
:103C980037C1D9FF38C1DAFFDECF35F1DDCF36F1D4
:103CA800020E3727000E38233551361104E1950EE0
:103CB800356FFF0E366F396B3A6B03D00101394B04
:103CC8003A2B395135252B6F3A5136212C6F2BC1A0
:103CD800F6FF2CC1F7FF000EF86E0F0EF76403D045
:103CE8000800F55005D0F6CFE9FFF7CFEAFFEF500F
:103CF8000009E4E101014C514D1109E039514C5DD5
:103D08003A514D5904E24CC139F14DC13AF14A5189
:103D1800395D4B513A5905E239514A5F3A514B5B8B
:103D28000BD04A6B4B6B08D021C1D9FF22C1DAFFF7
:103D3800200EDF6E214B222B4A07D8A04B074A29B9
:103D4800F3E14B291CE0F0D735C1F6FF36C1F7FF88
:103D5800000EF86E21C1D9FF22C1DAFF0F0EF764F9
:103D680003D00800F55005D0F6CFE9FFF7CFEAFFFA
:103D7800EF50DF6E0101354B362B214B222B3907D3
:103D8800D8A03A073929E0E13A2902E195EF23F072
:103D9800DBD7C00E481320D023C1F6FF24C1F7FF9C
:103DA8000101234B242BF86A0800F5CF4EF14E5140
:103DB80002E1A3EF23F0640A0FE0020A01E164D7ED
:103DC8000F0A0AE01A0A01E163D7060AE2E00D0ABF
:103DD80001E15CD795EF23F0070E491501E104D303
:103DE80049A903D04D6B060E4C6F37C1D9FF38C1B6
:103DF800DAFFDECF45F1DECF46F1DDCF47F1030E26
:103E08003727000E382347AF11D045C190F046C17F
:103E180091F047C192F083EC5EF090C045F191C0FB
:103E280046F192C047F1030E010148133F6B406B06
:103E380045514611471101E180D0820E2B6F2C6944
:103E480045C12DF146C12EF147C12FF148C130F1CE
:103E5800100E05D0D89030332F332E332D33E82E63
:103E6800F9D72D512B253F6F000E2C21406F3F07AE
:103E7800D8A040073FC190F040C191F00001936B7A
:103E8800030E926FD1EC5DF090C03FF191C040F10C
:103E98003FC196F040C197F0996B0A0E986F42ECBB
:103EA80054F096C03FF197C040F1010140AF03D0F4
:103EB8003F07D8A040073F5100086CEC2EF005C121
:103EC8003BF106C13CF107C13DF13BC1ABF03CC140
:103ED800ACF03DC1ADF045C1AEF046C1AFF047C151
:103EE800B0F046EC47F0ABC03BF1ACC03CF1ADC024
:103EF8003DF13BC190F03CC191F03DC192F0936B14
:103F0800800E946F3F0E956FC5EC57F005E20101E6
:103F18003F07D8A0400711D03BC190F03CC191F0B9
:103F28003DC192F0936B200E946F410E956FC5ECD6
:103F380057F003E301013F4B402B01014DBF06D071
:103F48004D511BE10D0E4C5DD8B017D045C10FF196
:103F580046C110F147C111F14C5152EC3EF005C178
:103F680012F106C113F107C114F18CEC41F00FC135
:103F780045F110C146F111C147F1010140BF06D01A
:103F880040511CE10A0E3F5DD8B018D0455146118A
:103F9800471150E045C110F146C111F147C112F176
:103FA800DDEC4BF01051111112111311D8B440BFB0
:103FB80041D0405103E1020E3F5D3CE33BC190F02C
:103FC8003CC191F03DC192F0700E0001936F890ED3
:103FD800946F400E956FC5EC57F003E20101F70EA0
:103FE80002D00101F80E3F27FF0E40233F516CEC31
:103FF8002EF005C13BF106C13CF107C13DF145C1B9
:1040080090F046C191F047C192F03BC193F03CC19A
:1040180094F03DC195F08CEC49F090C041F191C00D
:1040280042F192C043F193C044F10101456B466BE4
:10403800476B31D045C110F146C111F147C112F1AA
:10404800DDEC4BF010C141F111C142F112C143F155
:1040580013C144F145C11BF146C11CF147C11DF113
:1040680041C198F042C199F043C19AF044C19BF014
:10407800CBEC58F098C01EF199C01FF19AC020F1FE
:1040880083EC5BF01BC145F11CC146F11DC147F132
:1040980001013F6B406B010E4E6F4E51040D150E22
:1040A800F324F66EFB0EF420F76EF86A000EF82281
:1040B8000900F550415D0900F55042590900F550D5
:1040C80043590900F550445904E34E2B0A0E4E1982
:1040D800E4E14EC12BF12C6B2BBF2C074C512B2745
:1040E8004D512C233F512B2740512C232B514A5FF4
:1040F8002C514B5B4C514D1103E04A07D8A04B079C
:1041080048C12BF1030E2B1703E04A07D8A04B0731
:1041180048A52BD048C12BF1030E2B1714E021C161
:10412800D9FF22C1DAFF2D0EDF6E214B222B0BD0D7
:1041380021C1D9FF22C1DAFF300EDF6E214B222BBD
:104148004A07D8A04B074BBF6DD04B51F1E14A0548
:1041580069E3EED721C1D9FF22C1DAFF200EDF6E55
:10416800214B222B4A07D8A04B074BBF05D04B51F8
:10417800F1E14A05D8B0EED748C12BF1030E2B1751
:1041880051E021C1D9FF22C1DAFF2D0EDF6E214B8C
:10419800222B48D041C190F042C191F043C192F026
:1041A80044C193F04E51040D150EF324F66EFB0E28
:1041B800F420F76EF86A000EF8220900F5CF94F0A3
:1041C8000900F5CF95F00900F5CF96F00A00F5CF74
:1041D80097F07EEC54F090C03BF191C03CF192C056
:1041E8003DF193C03EF13BC19DF03CC19EF03DC105
:1041F8009FF03EC1A0F00A0EA16FA26BA36BA46B47
:10420800D5EC56F09DC03BF19EC03CF19FC03DF1FE
:10421800A0C03EF101013B51300F21C1D9FF22C19D
:10422800DAFFB4D74E074E290CE0B4D721C1D9FF25
:1042380022C1DAFF300EDF6E214B222B3F07D8A0B8
:10424800400740BF05D04051F1E13F05D8B0EED757
:104258004DBF08D04D5103E1090E4C5D03E3080E34
:104268004E6F02D04CC14EF14E514C5F000E4EBF06
:10427800FF0E4D5B4E5108E021C1D9FF22C1DAFF84
:104288002E0EDF6E214B222B4E516CEC2EF005C109
:1042980031F106C132F107C133F145C1AEF046C173
:1042A800AFF047C1B0F031C1ABF032C1ACF033C1AF
:1042B800ADF046EC47F0ABC010F1ACC011F1ADC0A9
:1042C80012F1DDEC4BF010C141F111C142F112C104
:1042D80043F113C144F173D041C190F042C191F050
:1042E80043C192F044C193F04E51040D150EF324CE
:1042F800F66EFB0EF420F76EF86A000EF82209003D
:10430800F5CF94F00900F5CF95F00900F5CF96F0B8
:104318000A00F5CF97F07EEC54F090C03BF191C0C5
:104328003CF192C03DF193C03EF13BC19DF03CC1D0
:104338009EF03DC19FF03EC1A0F00A0EA16FA26B96
:10434800A36BA46BD5EC56F09DC03BF19EC03CF12D
:104358009FC03DF1A0C03EF101013B51300F21C18A
:10436800D9FF22C1DAFFDF6E214B222B41C19DF01C
:1043780042C19EF043C19FF044C1A0F04E51040DCC
:10438800150EF324F66EFB0EF420F76EF86A000E95
:10439800F8220900F5CFA1F00900F5CFA2F0090035
:1043A800F5CFA3F00A00F5CFA4F0D5EC56F09DC0E8
:1043B80041F19EC042F19FC043F1A0C044F1010108
:1043C8004E074E290CE088D721C1D9FF22C1DAFF58
:1043D800300EDF6E214B222B4C07D8A04D074C51D5
:1043E8004D1101E19ED1F0D748C12BF1C00E2B171A
:1043F8001EE137C1D9FF38C1DAFFDECF41F1DDCF89
:1044080042F1000E42BFFF0E436F446F020E372782
:10441800000E382344AF1DD0030E4813441F431F1A
:10442800421F416D000E42234323442312D037C15B
:10443800D9FF38C1DAFFDECF2BF1DDCF2CF12BC14C
:1044480041F12CC142F1436B446B020E3727000E39
:1044580038234C514D1146E1415142114311441149
:1044680041E14C4B4D2B3ED0010E4E6F4E51040D89
:10447800150EF324F66EFB0EF420F76EF86A000EA4
:10448800F8220900F550415D0900F550425909002C
:10449800F55043590900F55044592BE34E2B0A0EA9
:1044A8004E1927E0E3D7010E4E6F4E51040DE50E6D
:1044B800F324F66EF80EF420F76EF86A000EF82270
:1044C8000900F550415D0900F55042590900F550C1
:1044D80043590900F55044590CE34E2B080E4E1968
:1044E80008E0E3D74851C00BBFE0800ADCE0400A8F
:1044F800BBE0800E4EBF7F0E2B6F4C514E5D4D5171
:10450800800A2B5903E24CC14EF10FD04D51800A5D
:104518002B6F4E514C5D800E4EBF7F0E2B5905E21E
:104528004E514C6F4D6B4CBF4D074A514B1108E033
:1045380048C12BF1030E2B1703E04A07D8A04B07FD
:1045480049AD10D04A514C5D4D51800A2B6F4B51EB
:10455800800A2B5905E24C514A5F4D514B5B02D002
:104568004A6B4B6B800E4EBF7F0E2B6F4A514E5DD0
:104578004B51800A2B5907E24E514A5F000E4EBF3D
:10458800FF0E4B5B02D04A6B4B6B48A51DD048C150
:104598002BF1030E2B1708E021C1D9FF22C1DAFF46
:1045A8002D0EDF6E214B222B4A514B1101E1B1D068
:1045B80021C1D9FF22C1DAFF300EDF6E214B222B39
:1045C8004A07D8A04B07F0D74A514B110EE021C13A
:1045D800D9FF22C1DAFF200EDF6E214B222B4A07BA
:1045E800D8A04B074A514B11F2E148C12BF1030EF9
:1045F8002B1701E18ED021C1D9FF22C1DAFF2D0E80
:10460800DF6E214B222B85D04CC12BF14DC12CF1F3
:10461800D8902B372C37D8902B372C37150E2B25C5
:10462800F66EFB0E2C21F76EF86A000EF8220900D0
:10463800F5CF94F00900F5CF95F00900F5CF96F085
:104648000A00F5CF97F041C190F042C191F043C103
:1046580092F044C193F07EEC54F090C09DF091C06C
:104668009EF092C09FF093C0A0F00A0EA16FA26BBB
:10467800A36BA46BD5EC56F09D51300F01014E6F22
:1046880041D041C190F042C191F043C192F044C180
:1046980093F04CC12BF14DC12CF1D8902B372C370E
:1046A800D8902B372C37E50E2B25F66EF80E2C21DB
:1046B800F76EF86A000EF8220900F5CF94F00900A9
:1046C800F5CF95F00900F5CF96F00A00F5CF97F0F1
:1046D8007EEC54F090510F0B0101346F1C0E342501
:1046E800F66EF76AFD0EF722F86A000EF822080047
:1046F800F5CF4EF107D04851C00B86E0800AC1E0E3
:10470800400A82E021C1D9FF22C1DAFF4EC1DFFF92
:1047180078D74C07D8A04D074C29EDE14D29D8A4EE
:10472800EAD723C1F6FF24C1F7FF234B242BF86AED
:104738000800F5CF4EF14E5102E0B1EF1DF021C156
:10474800D9FF22C1DAFF000EDF6A120062EF28F0FB
:104758007F6B806B816B9C6B52EC35F081EF28F09E
:104768007F6B806B816BC16B8EC332F08FC333F06C
:1047780090C334F0356ADC0E366E420E376E1FEC8D
:1047880058F005E20301D86BD96BDA6B44D003010A
:10479800D86BC80ED96F420EDA6F3DD09C6BD56BC3
:1047A800D66BD76BCF6BD06BD16B326AFA0E336E88
:1047B800420E346E79C335F07AC336F07BC337F0D6
:1047C8001FEC58F007E20301D26B500ED36F410E75
:1047D800D46F04D00301D26BD36BD46B326A480E0A
:1047E800336E420E346E85C335F086C336F087C308
:1047F80037F01FEC58F009E2000E0301CC6F480EA9
:10480800CD6F420ECE6F81EF28F00301CC6BCD6BDC
:10481800CE6B81EF28F05250320AC0E081EF28F0C9
:104828007F6B280E806F420E816FD551D611D7113C
:1048380007E15C0ED56F850ED66F410ED76F21D07C
:10484800D5C332F0D6C333F0D7C334F0356AC80EB7
:10485800366E420E376E1FEC58F013E2D5C326F0C1
:10486800D6C327F0D7C328F0296A800E2A6E3F0ED8
:104878002B6E3BEC42F026C0D5F327C0D6F328C0F8
:10488800D7F303019551961102E081EF28F0000E4D
:104898000101FF6F030EFE6F320E87D09C6B326AE8
:1048A800960E336E430E346E85C335F086C336F0EC
:1048B80087C337F01FEC58F0290ED8B0280E526E77
:1048C80090D04DBE09D04D504C100BE1580E4A5CAB
:1048D800020E4B58D8B005D00301D56BD66BD76BF9
:1048E8003AD04DBE24D04D504C1005E1580E4A5CCC
:1048F800020E4B581CE34DBE09D04D504C1017E129
:10490800B10E4A5C040E4B58D8B011D0515008E093
:10491800000E0301D56FB00ED66F410ED76F1BD0B6
:10492800BEC0D5F3BFC0D6F3C0C0D7F314D0D5C32B
:1049380026F0D6C327F0D7C328F0890E296E880E33
:104948002A6E3C0E2B6E3BEC42F026C0D5F327C0F6
:10495800D6F328C0D7F3515004E00301D26B8C0E74
:1049680003D00301D26BC80ED36F420ED46FCF6B46
:10497800D06BD16B0001CB0504E10301CC6B960E23
:1049880006D0020ECB1906E10301CC6BC80ECD6F21
:10499800420ECE6F0301C16B0001C8BF08D0C851D9
:1049A80003E1790EC75D03E3310E526EA6D34DBE07
:1049B800A4D34D504C1006E1210E4A5C1C0E4B58F6
:1049C80001E29BD30101FF6B030EFE6F4A6A4B6A3B
:1049D8004C6A4D6A0301936B946B0001C76BC86BFB
:1049E8008CD35250280A01E16CD7010ADDE085D347
:1049F800010E43EC3DF0426EDDD10001CB050BE129
:104A08000301CC6BC80ECD6F420ECE6FD26B480E31
:104A1800D36F420E0DD0020ECB190BE10301CC6B04
:104A2800960ECD6F420ECE6FD26B500ED36F410EE5
:104A3800D46F0301D551D611D71114E151500CE0B0
:104A48000001CB0509E1CD5107E10301D56BB00E9B
:104A5800D66F410ED76F06D0BEC0D5F3BFC0D6F310
:104A6800C0C0D7F30301CF6BD06BD16B010E9C6F25
:104A78000001C56BC66B1F0E526EC00E326E0F0E54
:104A8800336E440E346E85C335F086C336F087C363
:104A980037F01FEC58F001E39AD10101FF6B040EC7
:104AA800FE6F0A0E526E326A336A346AD5C335F025
:104AB800D6C336F0D7C337F01FEC58F007E2D5C39A
:104AC80088F3D6C389F3D7C38AF307D05C0E0301F2
:104AD800886F850E896F410E8A6F4A6A4B6A4C6AE5
:104AE8004D6A0301936B946B0001C76BC86B04019B
:104AF8005E6B5F6B606B6BD15150D8B44DBE2FD0DD
:104B08004D504C1005E1090E4A5C070E4B5827E33F
:104B18000001C6BF06D0C6510CE11E0EC55DD8B057
:104B280008D05C0E0301CF6F850ED06F410ED16F98
:104B380016D0C6BF12D0C65103E11E0EC55D0DE3E7
:104B4800C6BF06D0C65109E1780EC55DD8B005D0FC
:104B58000301CF6BD06BD16B02D0C56BC66B85C31D
:104B680032F086C333F087C334F0296AC80E2A6E40
:104B7800C10E2B6E7CC326F07DC327F07EC328F0C0
:104B88003BEC42F026C035F027C036F028C037F09D
:104B98001FEC58F003E2010E0301AC6F0001CB05D6
:104BA80004E10301CC6BC80E06D0020ECB1906E156
:104BB8000301CC6B960ECD6F420ECE6F020E4218DB
:104BC80002E1200E54D0420402E1210E50D003012C
:104BD800AC5101E1FCD0D5C332F0D6C333F0D7C312
:104BE80034F0BEC035F0BFC036F0C0C037F01FEC9F
:104BF80058F015E3D5C326F0D6C327F0D7C328F05D
:104C0800890E296E880E2A6E3C0E2B6E3BEC42F004
:104C180026C0D5F327C0D6F328C0D7F306D0BEC028
:104C2800D5F3BFC0D6F3C0C0D7F3CD0E326EC70ED2
:104C3800336E420E346ED5C335F0D6C336F0D7C3C3
:104C480037F01FEC58F001E3C2D00301D56BC80E52
:104C5800D66F420E30D0515003E0640E0301C16F8D
:104C6800020E4218AEE0030E421803E11F0E526E08
:104C7800AED0515016E10001CC5113E1570E03019B
:104C8800D56F850ED66F420ED76FD551D611D71175
:104C980001E09DD0BEC0D5F3BFC0D6F3C0C0D7F3E6
:104CA80096D00301D551D611D71101E090D0D56B1C
:104CB800B00ED66F410ED76F8AD0030E4218D6E0D9
:104CC800326A7A0E336E440E346E79C335F07AC385
:104CD80036F07BC337F01FEC58F014E24A6A4B6A8F
:104CE8004C6A4D6A0301936B946B0001C76BC86BE8
:104CF8000101FF6B060EFE6F640E526E040E030177
:104D0800A26F65D0420401E160D7BEC032F0BFC0D7
:104D180033F0C0C034F0D5C335F0D6C336F0D7C3AE
:104D280037F01FEC58F015E2D5C332F0D6C333F094
:104D3800D7C334F0CD0E356E4C0E366E3D0E376E41
:104D48000BEC5CF032C0D5F333C0D6F334C0D7F3E4
:104D580004D00301D56BD66BD76B4DBE38D04D5000
:104D68004C1005E1090E4A5C070E4B5830E35150D0
:104D78002EE10301CF51D011D11107E15C0ECF6FA5
:104D8800850ED06F410ED16F22D0CFC326F0D0C38D
:104D980027F0D1C328F0890E296E880E2A6E3C0EA2
:104DA8002B6E3BEC42F026C0CFF327C0D0F328C0CF
:104DB800D1F30DD052501E0A01E11FD6010A01E1BC
:104DC8009BD63F0A01E179D7010A01E144D7800E59
:104DD800326E3B0E336E450E346E76C335F077C3B4
:104DE80036F078C337F01FEC58F019E3515003E15F
:104DF8000001CC5114E0D5C318F0D6C319F0D7C3BD
:104E08001AF01B6AC00E1C6E3F0E1D6E21EC49F095
:104E180018C0D2F319C0D3F31AC0D4F306D00301D3
:104E2800D26BC80ED36F420ED46F326AC80E336E7F
:104E3800420E346ED2C335F0D3C336F0D4C337F044
:104E48001FEC58F006E20301D26BC80ED36F420E76
:104E5800D46F77EC39F051D184EC28F04ED17F6BC8
:104E6800280E806F420E816F060EA21901E002D152
:104E7800660E526EFFD0650E526E515001E005D19C
:104E8800D26BC80ED36F420ED46FCC6BC80ECD6FE9
:104E9800420ECE6FFAD05C0E326E850E336E410E26
:104EA800346ED5C335F0D6C336F0D7C337F01FEC10
:104EB80058F075E2010E416E0A0E326E480E336EDE
:104EC800420E346ED5C335F0D6C336F0D7C337F0AB
:104ED8001FEC58F002E2030E10D05C0E326E050E85
:104EE800336E420E346ED5C335F0D6C336F0D7C311
:104EF80037F01FEC58F002E2020E416ED5C332F0D3
:104F0800D6C333F0D7C334F0890E1B6E880E1C6EDF
:104F18003C0E1D6E4150F6EC5DF009C018F00AC059
:104F280019F00BC01AF021EC49F018C035F019C07F
:104F380036F01AC037F00BEC5CF032C0D5F333C052
:104F4800D6F334C0D7F3326A480E336E420E346E4D
:104F5800CFC335F0D0C336F0D1C337F01FEC58F0CB
:104F680015E2CFC332F0D0C333F0D1C334F0890E89
:104F7800356E880E366E3C0E376E0BEC5CF032C028
:104F8800CFF333C0D0F334C0D1F306D00301CF6BD5
:104F9800480ED06F420ED16F03019C6B1ED0326A4F
:104FA800FA0E336E430E346E79C335F07AC336F099
:104FB8007BC337F01FEC58F00EE25C0E0301D56F8F
:104FC800850ED66F410ED76F9C6B670E526E00012F
:104FD800C56BC66B02D0660E526E0001C56BC66B00
:104FE80054D079C332F07AC333F07BC334F0356AD6
:104FF800FA0E366E430E376E1FEC58F008E30001C8
:10500800C6BF0AD0590EC55D020EC65905E3660E25
:10501800526E0001C56BC66B03019C6B0001C6BFD5
:1050280006D0C65111E13C0EC55DD8B00DD00301C4
:10503800CF6B480ED06F420ED16F5C0ED56F850EC8
:10504800D66F410ED76F21D0C6BFC7D7C65103E16F
:105058003C0EC55DC2E3C6BF05D02C0EC55D010E72
:10506800C659BBE20301D56BD66BD76BCF6BD06B40
:10507800D16B0BD05250640A01E1FDD6010A01E15F
:105088000AD7030AC9E0010AACE0020E0001CB19F5
:1050980012E18EC332F08FC333F090C334F0356A17
:1050A800DC0E366E420E376E1FEC58F004E2030138
:1050B800D86BD96BDA6B0EEC3CF0CBD6FEC13FF067
:1050C800FFC140F0405019E13F5002E152EF24F097
:1050D800010A02E1ACEF23F0030A01E189D4010AD5
:1050E80002E1B4EF23F0070A01E1B6D6010A02E1B2
:1050F80014EF24F0030A01E1B2D6C1EC47F0120024
:1051080051501EE00001CE511BE1010E03019C6FBE
:10511800BFC4F7F3C0C4F8F3C1C4F9F3F9C5D2F3B7
:10512800FAC5D3F3FBC5D4F3515007E00001CC51C5
:1051380004E1640E0301C16F1BD00301C16B18D0D9
:1051480003019C6B0001CE5104E00301D26B700E89
:105158000BD0CC5106E00301D26BC80ED36F410EC1
:1051680005D00301D26BC80ED36F420ED46FE5D7BA
:10517800FC510E0ED8B4130E526E020E0001CB195C
:1051880007E1000E0301D86FC80ED96F420EDA6F1F
:105198000001CE5101E16CD2100E526E69D2010E9F
:1051A80043EC3DF03D6ED5C332F0D6C333F0D7C3E0
:1051B80034F0356AC70E366E420E376E1FEC58F063
:1051C80001E362D2010E3C6E85C332F086C333F030
:1051D80087C334F0296AC80E2A6EC20E2B6EB5C07A
:1051E80026F0B6C027F0B7C028F03BEC42F026C046
:1051F80035F027C036F028C037F01FEC58F002E22F
:10520800020E3C6E030E3D1845E10301D551D6113F
:10521800D7111BE14E504F10501007E15C0ED56FAF
:10522800850ED66F410ED76F09D04EC0D5F34FC04B
:10523800D6F350C0D7F34E6A4F6A506A85C37CF3E1
:1052480086C37DF387C37EF325D0D5C326F0D6C3A6
:1052580027F0D7C328F0890E1B6E880E1C6E3C0EF3
:105268001D6E3C50F6EC5DF009C018F00AC019F04C
:105278000BC01AF021EC49F018C029F019C02AF027
:105288001AC02BF03BEC42F026C0D5F327C0D6F36A
:1052980028C0D7F3020E3D1801E0F6D15C0E326E3D
:1052A800850E336E410E346ED5C335F0D6C336F055
:1052B800D7C337F01FEC58F001E315D1D5C332F04E
:1052C800D6C333F0D7C334F0CD0E356E4C0E366EE0
:1052D8003D0E376E0BEC5CF0FBD0010E43EC3DF05D
:1052E8003D6E020E3D182FE15C0E326E850E336E58
:1052F800410E346ED5C335F0D6C336F0D7C337F078
:105308001FEC58F015E2D5C332F0D6C333F0D7C33B
:1053180034F0CD0E356E4C0E366E3D0E376E0BECFE
:105328005CF032C0D5F333C0D6F334C0D7F35DD0C8
:10533800D5C34EF0D6C34FF0D7C350F00301D56B99
:10534800D66BD76B52D0030E3D1834E10301D5510B
:10535800D611D7111AE1326A336A346A4EC035F071
:105368004FC036F050C037F01FEC58F034E35C0EF5
:105378000301D56F850ED66F410ED76F85C37CF3B9
:1053880086C37DF387C37EF330D0D5C326F0D6C35A
:1053980027F0D7C328F08BC329F08CC32AF08DC31C
:1053A8002BF03BEC42F026C0D5F327C0D6F328C03B
:1053B800D7F31BD00301D551D611D71116E1326AA4
:1053C800336A346A4EC035F04FC036F050C037F0FB
:1053D8001FEC58F0CCE24EC0D5F34FC0D6F350C006
:1053E800D7F34E6A4F6A506AC9D7030188518911A9
:1053F8008A1106E15C0E886F850E896F410E8A6FEF
:10540800D5C332F0D6C333F0D7C334F088C335F0F0
:1054180089C336F08AC337F01FEC58F007E2D5C3CA
:1054280088F3D6C389F3D7C38AF32ED19A0E1B6E9D
:10543800990E1C6E3F0E1D6E88C318F089C319F0B3
:105448008AC31AF021EC49F018C032F019C033F0C1
:105458001AC034F0D5C335F0D6C336F0D7C337F009
:105468001FEC58F001E310D10301FC6B0001CC5193
:1054780001E10AD1000E0301D56FC80EE1D0CC516D
:1054880003E0640E0301C16F000E43EC3DF03D6E76
:10549800020E3D1833E15C0E326E850E336E410EFE
:1054A800346ED5C335F0D6C336F0D7C337F01FEC0A
:1054B80058F015E2D5C332F0D6C333F0D7C334F071
:1054C800890E356E080E366E3D0E376E0BEC5CF0AD
:1054D80032C0D5F333C0D6F334C0D7F3D5D04E504D
:1054E8004F10501006E1D5C34EF0D6C34FF0D7C3C6
:1054F80050F00301D56BD66BD76BC6D0030E3D18A1
:105508007BE10301D551D611D7111AE1326A336A0A
:10551800346A4EC035F04FC036F050C037F01FEC3B
:1055280058F07BE35C0E0301D56F850ED66F410EF4
:10553800D76F85C37CF386C37DF387C37EF377D0AB
:1055480085C332F086C333F087C334F0296A960ED8
:105558002A6EC20E2B6E7CC326F07DC327F07EC355
:1055680028F03BEC42F026C035F027C036F028C0C2
:1055780037F01FEC58F02BE20301D551D611D711A3
:1055880026E085C332F086C333F087C334F0296A36
:10559800200E2A6E410E2B6E31C426F032C427F03D
:1055A80033C428F03BEC42F026C035F027C036F073
:1055B80028C037F01FEC58F00AE20301915192110C
:1055C80006E1010EA26FCF6BD06BD16B30D0D5C383
:1055D80026F0D6C327F0D7C328F08BC329F08CC395
:1055E8002AF08DC32BF03BEC42F026C0D5F327C040
:1055F800D6F328C0D7F31BD00301D551D611D71144
:1056080016E1326A336A346A4EC035F04FC036F05C
:1056180050C037F01FEC58F085E24EC0D5F34FC0AC
:10562800D6F350C0D7F34E6A4F6A506A82D75150AA
:105638002BE10001CC5128E1570E0301D56F850EEF
:10564800D66F420ED76F20D0000E0301D56FC80E5B
:10565800D66F420ED76F000ECC6F8C0ECD6F420EF8
:10566800CE6F000ECF6FA00ED06F410ED16F0CD051
:1056780052500A0A01E193D5040A01E12ED61E0A06
:10568800E3E0030A01E1FBD60001CE5101E0BCD002
:105698000301A20550E0515046E0D5C318F0D6C327
:1056A80019F0D7C31AF0EC0E1B6ED10E1C6E3E0E0D
:1056B8001D6E21EC49F018C0CFF319C0D0F31AC001
:1056C800D1F3CFC332F0D0C333F0D1C334F0356A4D
:1056D800A00E366E410E376E1FEC58F004E203013F
:1056E800CF6BD06BD16B0301CF51D011D11123E116
:1056F8000001C6BF08D0C65103E1F10EC55D03E342
:10570800C56BC66B18D0C6BF06D0C65107E13C0EA4
:10571800C55DD8B003D0000E030108D00301CF6BDC
:10572800D06BD16B08D0515006E1000ECF6FA00EA0
:10573800D06F410ED16F0001CD5103E10301AB5190
:1057480029E0D5C318F0D6C319F0D7C31AF09A0EBA
:105758001B6E990E1C6E3F0E1D6E21EC49F018C091
:10576800CFF319C0D0F31AC0D1F3CFC332F0D0C3EE
:1057780033F0D1C334F0356AA00E366E410E376E61
:105788001FEC58F007E2000E0301CF6FA00ED06F98
:10579800410ED16F0001CC5121E04DBE09D04D50D2
:1057A8004C100AE1080E4A5C070E4B58D8B004D0DA
:1057B8000301CF6BD06BD16B79C332F07AC333F06E
:1057C8007BC334F0356AC80E366E430E376E1FEC55
:1057D80058F004E20301CF6BD06BD16B326AC80E6C
:1057E800336E420E346ECFC335F0D0C336F0D1C31A
:1057F80037F01FEC58F006E20301CF6BC80ED06FEC
:10580800420ED16F0EEC3CF077EC39F012003BC041
:10581800D9FF3CC0DAFFDECF32F0DECF33F0DDCF88
:1058280034F03DC035F03EC036F03FC037F00BECE9
:105838005CF020EE0CF03B50D9263C50DA2232C006
:10584800DEFF33C0DEFF34C0DEFF20EE06F03B5043
:10585800D9263C50DA22DE50DE10DE1001E131D1CB
:1058680020EE1BF03B50D9263C50DA22DECF1BF04D
:10587800DECF1CF0DDCF1DF020EE06F03B50D92620
:105888003C50DA22DECF0CF0DECF0DF0DDCF0EF08B
:10589800096A800E0A6E3F0E0B6EF5EC4CF009C0DB
:1058A80018F00AC019F00BC01AF021EC49F018C022
:1058B80063F019C064F01AC065F020EE0CF03B509C
:1058C800D9263C50DA22DECF1BF0DECF1CF0DDCF2C
:1058D8001DF063C018F064C019F065C01AF021EC1F
:1058E80049F018C026F019C027F01AC028F020EE99
:1058F80012F03B50D9263C50DA22DECF29F0DECF19
:105908002AF0DDCF2BF03BEC42F020EE12F03B50BA
:10591800D9263C50DA2226C0DEFF27C0DEFF28C089
:10592800DEFF20EE03F03B50D9263C50DA22DECFD2
:105938001BF0DECF1CF0DDCF1DF020EE12F03B5047
:10594800D9263C50DA22DECF18F0DECF19F0DDCFB1
:105958001AF021EC49F018C032F019C033F01AC01F
:1059680034F020EE15F03B50D9263C50DA22DECF39
:1059780035F0DECF36F0DDCF37F01FEC58F00DE311
:1059880020EE12F03B50D9263C50DA22DECF69F0E7
:10599800DECF6AF0DDCF6BF020D020EE15F03B5063
:1059A800D9263C50DA22DECF09F0DECF0AF0DDCF6F
:1059B8000BF020EE03F03B50D9263C50DA22DECF24
:1059C8000CF0DECF0DF0DDCF0EF0F5EC4CF009C099
:1059D80069F00AC06AF00BC06BF020EE12F03B5081
:1059E800D9263C50DA2269C0DEFF6AC0DEFF6BC0F0
:1059F800DEFF20EE18F03B50D9263C50DA22DECFED
:105A080032F0DECF33F0DDCF34F020EE03F03B5040
:105A1800D9263C50DA22DECF1BF0DECF1CF0DDCFDA
:105A28001DF020EE12F03B50D9263C50DA22DECF92
:105A380018F0DECF19F0DDCF1AF021EC49F018C0CC
:105A480035F019C036F01AC037F01FEC58F00DE3E6
:105A580020EE12F03B50D9263C50DA22DECF6CF013
:105A6800DECF6DF0DDCF6EF020D020EE18F03B5089
:105A7800D9263C50DA22DECF09F0DECF0AF0DDCF9E
:105A88000BF020EE03F03B50D9263C50DA22DECF53
:105A98000CF0DECF0DF0DDCF0EF0F5EC4CF009C0C8
:105AA8006CF00AC06DF00BC06EF020EE12F03B50A7
:105AB800D9263C50DA226CC0DEFF6DC0DEFF6EC016
:105AC800DEFF20EE09F03B50D9263C50DA22DECF2B
:105AD8001BF0DECF1CF0DDCF1DF020EE0FF03B50A9
