:0400000015EF01F007
:10000800D9CF8AF0DACF8BF0F6CF8CF0CBEF58F05F
:10001800D8CF79F0E8CF7AF0E0CF7BF0D9CF7CF079
:10002800DACF7DF0F3CF7EF0F4CF7FF0F6CF80F01B
:10003800F7CF81F0F8CF82F0F5CF83F0B7A405D0E1
:10004800B7940401874B882BD4D0B7A805D0B798AC
:100058000401854B862BCDD0F2A4B8D00B0EF66EDA
:10006800F90EF76E000EF86E0900F5CF01F00A00E0
:10007800F5CF02F0BCEC60F00001BA4BBB2B0301DA
:10008800294B2A2B0001BC4BBD2B0401FB4BFC2B3D
:100098004A2A000E4B224C224D225E4B5F2B7A2BB4
:1000A8007B2B812B000E8223832384230301FE2BC9
:1000B8004A2B5B2B2D4B2E2B04016A4B6B2B810E8D
:1000C800016E040E026EA2EC5EF00301525103E0D1
:1000D80071EC33F002D003EC35F0C5EC4BF00301C2
:1000E800525103E0D5EC31F002D036EC24F0F29412
:1000F80003012E5103E10A0E2D5D4FE3C00E0001EE
:10010800756F030E766F755104018503F3CF77F091
:10011800F4CF78F08603F350000178277651040174
:1001280085030001F350782777C001F078C002F00A
:100138002DC303F02EC304F000EC5BF001C050F4B3
:1001480002C051F4C00E756F030E766F755104012D
:100158008703F3CF77F0F4CF78F08803F3500001EA
:1001680078277651040187030001F350782777C078
:1001780001F078C002F02DC303F02EC304F000ECA8
:100188005BF001C054F402C055F40401856B866B22
:10019800876B886B03012D6B2E6B770E4A6508D031
:1001A800720E016E030E026ED9EC5FF0496F4A6B56
:1001B8003B0E5B651ED04FEC41F03BC04DF43CC09C
:1001C8004EF43DC04FF403015B6B13D0BAB0B9A035
:1001D80010D0BA90010E82A2000E8BEC5EF0720E67
:1001E800066E030E076E000E80B8010E086EE4EC72
:1001F8005EF0040083C0F5FF82C0F8FF81C0F7FFFE
:1002080080C0F6FF7FC0F4FF7EC0F3FF7DC0DAFF39
:100218007CC0D9FF7BC0E0FF7AC0E8FF79C0D8FF77
:10022800100070EF45F0F7EC60F090C033F191C02A
:1002380034F10101356B366BE3EF09F02F0E000145
:10024800906F010E916F33C1D9FF34C1DAFFDECF51
:100258002DF1DDCF2EF1D89001013535D96E363527
:10026800DA6E2D51D9262E51DA22DECF92F0DDCF6B
:1002780093F00001956B020E946F3CEC5AF02FC17D
:1002880032F158EF09F020EE02F03351D9263451FB
:10029800DA22DECF2DF1DDCF2EF1D8903535D96EAB
:1002A8003635DA6E2D51D9262E51DA22DECF93F06B
:1002B800DDCF94F00BEC4EF093C09AF094C09BF015
:1002C80072EC5DF09AC003F39BC004F39CC005F385
:1002D800E0EF09F020EE02F03351D9263451DA224A
:1002E800DECF2DF1DDCF2EF1D8903535D96E3635EC
:1002F800DA6E2D51D9262E51DA22DECF93F0DDCFDA
:1003080094F00BEC4EF093C09AF094C09BF072EC12
:100318005DF09AC009F39BC00AF39CC00BF3E0EFB1
:1003280009F0920E0001906FFE0E916F010120EE10
:1003380002F03351D9263451DA22DECF2DF1DDCF48
:100348002EF1D8903535D96E3635DA6E2D51D9263D
:100358002E51DA22DECF92F0DDCF93F0ABEC48F0ED
:10036800905191110BE1010E0301536F0501F16BDF
:10037800800EF26F3F0EF36FE0EF09F00301536B4D
:100388000501F16BF26BF36BE0EF09F020EE02F080
:100398003351D9263451DA22DECF2DF1DDCF2EF1BB
:1003A800D8903535D96E3635DA6E2D51D9262E517D
:1003B800DA22DECF93F0DDCF94F00BEC4EF093C051
:1003C8009AF094C09BF072EC5DF09AC00BF59BC05C
:1003D8000CF59CC00DF5E0EF09F020EE02F033516A
:1003E800D9263451DA22DECF2DF1DDCF2EF1D89087
:1003F8003535D96E3635DA6E2D51D9262E51DA2299
:10040800DECF93F0DDCF94F00BEC4EF093C09AF072
:1004180094C09BF072EC5DF09AC026F49BC027F460
:100428009CC028F4E0EF09F020EE02F03351D92601
:100438003451DA22DECF2DF1DDCF2EF1D8903535CB
:10044800D96E3635DA6E2D51D9262E51DA22DECF05
:1004580093F0DDCF94F00BEC4EF093C0F7F394C01B
:10046800F8F3E0EF09F0920E0001906FFE0E916F25
:10047800010120EE02F03351D9263451DA22DECFC1
:100488002DF1DDCF2EF1D8903535D96E3635DA6EAF
:100498002D51D9262E51DA22DECF92F0DDCF93F0FE
:1004A800ABEC48F09051911102E0E0EF09F0060E34
:1004B8000101FE19FF1102E1E0EF09F04A6A4B6AF7
:1004C8004C6A4D6A0301296B2A6B0001BC6BBD6B3A
:1004D8000101FF6B060EFE6F640E0001C36FE0EFB3
:1004E80009F0920E0001906FFE0E916F010120EE4F
:1004F80002F03351D9263451DA22DECF2DF1DDCF87
:100508002EF1D8903535D96E3635DA6E2D51D9267B
:100518002E51DA22DECF92F0DDCF93F0ABEC48F02B
:100528009051911102E0E0EF09F0030E0101FE196C
:10053800FF1102E0E0EF09F04A6A4B6A4C6A4D6A23
:100548000301296B2A6B0001BC6BBD6B0101FE6BBB
:10055800FF6BE0EF09F020EE02F03351D926345159
:10056800DA22DECF2DF1DDCF2EF1D8903535D96ED8
:100578003635DA6E2D51D9262E51DA22DECF93F098
:10058800DDCF94F00BEC4EF093C0FDF494C0FEF474
:10059800E0EF09F0920E0001906FFE0E916F0101DD
:1005A80020EE02F03351D9263451DA22DECF2DF174
:1005B800DDCF2EF1D8903535D96E3635DA6E2D511E
:1005C800D9262E51DA22DECF92F0DDCF93F0ABECB4
:1005D80048F09051911106E10301286B010E276F35
:1005E800E0EF09F00301276B286BE0EF09F0920EAA
:1005F8000001906FFE0E916F010120EE02F0335161
:10060800D9263451DA22DECF2DF1DDCF2EF1D89064
:100618003535D96E3635DA6E2D51D9262E51DA2276
:10062800DECF92F0DDCF93F0ABEC48F09051911112
:100638000AE103012C6B010E2B6F0101FF6B050E04
:10064800FE6FE0EF09F0B40E906FFF0E916F01019D
:1006580020EE02F03351D9263451DA22DECF2DF1C3
:10066800DDCF2EF1D8903535D96E3635DA6E2D516D
:10067800D9262E51DA22DECF92F0DDCF93F0ABEC03
:1006880048F09051911102E0E0EF09F003012B6B63
:100698002C6BE0EF09F0920E0001906FFE0E916F47
:1006A800010120EE02F03351D9263451DA22DECF8F
:1006B8002DF1DDCF2EF1D8903535D96E3635DA6E7D
:1006C8002D51D9262E51DA22DECF92F0DDCF93F0CC
:1006D800ABEC48F09051911102E0E0EF09F0010114
:1006E800FE05FF1102E1E0EF09F0FF6B010EFE6F5E
:1006F8004A6A4B6A4C6A4D6AE0EF09F0020E85ECD3
:1007080040F0E0EF09F0030E85EC40F0E0EF09F06F
:10071800040E85EC40F0E0EF09F0920E0001906FB6
:10072800FE0E916F010120EE02F03351D9263451AB
:10073800DA22DECF2DF1DDCF2EF1D8903535D96E06
:100748003635DA6E2D51D9262E51DA22DECF92F0C7
:10075800DDCF93F0ABEC48F09051911102E0E0EF5F
:1007680009F00101FF6B030EFE6F0401816B826BC0
:10077800836B846B03016A6B6B6B6C6B676B686B69
:10078800696B646B656B666B096B0A6B0B6B036B50
:10079800046B056B0401266B276B286B0301536BF5
:1007A800909E8D840001BA6BBB6B0301296B2A6B89
:1007B8000001BC6BBD6B0401FB6BFC6B4A6A4B6AA6
:1007C8004C6A4D6A5E6B5F6B7A6B7B6B816B826B7D
:1007D800836B846B0301FE6B04015A6B5B6B030133
:1007E800386B010E6ED1920E0001906FFE0E916F64
:1007F800010120EE02F03351D9263451DA22DECF3E
:100808002DF1DDCF2EF1D8903535D96E3635DA6E2B
:100818002D51D9262E51DA22DECF92F0DDCF93F07A
:10082800ABEC48F09051911104E1010E03014B6FBC
:1008380002D003014B6B4C5102E1E0EF09F04C6B25
:10084800E0EF09F0920E0001906FFE0E916F01012A
:1008580020EE02F03351D9263451DA22DECF2DF1C1
:10086800DDCF2EF1D8903535D96E3635DA6E2D516B
:10087800D9262E51DA22DECF92F0DDCF93F0ABEC01
:1008880048F09051911104E1010E0301396F02D033
:100898000301396B3A5102E1E0EF09F03A6BE0EFFE
:1008A80009F0920E0001906FFE0E916F010120EE8B
:1008B80002F03351D9263451DA22DECF2DF1DDCFC3
:1008C8002EF1D8903535D96E3635DA6E2D51D926B8
:1008D8002E51DA22DECF92F0DDCF93F0ABEC48F068
:1008E8009051911105E1010E0301446FE0EF09F009
:1008F8000301446BE0EF09F0920E0001906FFE0EC9
:10090800916F010120EE02F03351D9263451DA22D9
:10091800DECF2DF1DDCF2EF1D8903535D96E3635B5
:10092800DA6E2D51D9262E51DA22DECF92F0DDCFA4
:1009380093F0ABEC48F09051911104E1010E0301E2
:10094800336F02D00301336B515102E1E0EF09F03C
:10095800516BE0EF09F020EE02F03351D926345103
:10096800DA22DECF2DF1DDCF2EF1D8903535D96ED4
:100978003635DA6E2D51D9262E51DA22DECF93F094
:10098800DDCF94F00BEC4EF093C09AF094C09BF03E
:1009980072EC5DF09AC014F49BC015F49CC016F478
:1009A800E0EF09F0920E0001906FFE0E916F0101C9
:1009B80020EE02F03351D9263451DA22DECF2DF160
:1009C800DDCF2EF1D8903535D96E3635DA6E2D510A
:1009D800D9262E51DA22DECF92F0DDCF93F0ABECA0
:1009E80048F09051911104E1010E03014E6F02D0BD
:1009F80003014E6B505102E1E0EF09F0506BE0EF5C
:100A080009F020EE02F03351D9263451DA22DECF34
:100A18002DF1DDCF2EF1D8903535D96E3635DA6E19
:100A28002D51D9262E51DA22DECF93F0DDCF94F066
:100A38000BEC4EF0935103014F6FE0EF09F020EEFD
:100A480002F03351D9263451DA22DECF2DF1DDCF31
:100A58002EF1D8903535D96E3635DA6E2D51D92626
:100A68002E51DA22DECF93F0DDCF94F00BEC4EF06E
:100A780093510301486FE0EF09F0920E0001906F67
:100A8800FE0E916F010120EE02F03351D926345148
:100A9800DA22DECF2DF1DDCF2EF1D8903535D96EA3
:100AA8003635DA6E2D51D9262E51DA22DECF92F064
:100AB800DDCF93F0ABEC48F09051911105E1010EB8
:100AC8000301FD6FE0EF09F00301FD6B0B0E000160
:100AD800C36F15C30CF316C30DF317C30EF315C379
:100AE80029F416C32AF417C32BF4E0EF09F0920E89
:100AF8000001906FFE0E916F010120EE02F033515C
:100B0800D9263451DA22DECF2DF1DDCF2EF1D8905F
:100B18003535D96E3635DA6E2D51D9262E51DA2271
:100B2800DECF92F0DDCF93F0ABEC48F0905191110D
:100B380002E1010E24D0990E906FFF0E916F010112
:100B480020EE02F03351D9263451DA22DECF2DF1CE
:100B5800DDCF2EF1D8903535D96E3635DA6E2D5178
:100B6800D9262E51DA22DECF92F0DDCF93F0ABEC0E
:100B780048F09051911102E0E0EF09F0020EC06FC9
:100B8800E0EF09F020EE02F03351D9263451DA2291
:100B9800DECF2DF1DDCF2EF1D8903535D96E363533
:100BA800DA6E2D51D9262E51DA22DECF93F0DDCF21
:100BB80094F00BEC4EF093510301596F590503E182
:100BC800010E466F08D0595104E1460504E1466B11
:100BD80002D0630E386F475101E1EED3476BECD377
:100BE800920E0001906FFE0E916F010120EE02F04F
:100BF8003351D9263451DA22DECF2DF1DDCF2EF153
:100C0800D8903535D96E3635DA6E2D51D9262E5114
:100C1800DA22DECF92F0DDCF93F0ABEC48F09051C2
:100C2800911107E14E6A020EC06F010E0301526F67
:100C3800FDD0990E906FFF0E916F010120EE02F02A
:100C48003351D9263451DA22DECF2DF1DDCF2EF102
:100C5800D8903535D96E3635DA6E2D51D9262E51C4
:100C6800DA22DECF92F0DDCF93F0ABEC48F0905172
:100C7800911121E0F40E906FFF0E916F010120EEAB
:100C880002F03351D9263451DA22DECF2DF1DDCFEF
:100C98002EF1D8903535D96E3635DA6E2D51D926E4
:100CA8002E51DA22DECF92F0DDCF93F0ABEC48F094
:100CB8009051911104E14E6A46D0FF6FD0D1DF0EFA
:100CC800906FFF0E916F010120EE02F03351D9268B
:100CD8003451DA22DECF2DF1DDCF2EF1D890353523
:100CE800D96E3635DA6E2D51D9262E51DA22DECF5D
:100CF80092F0DDCF93F0ABEC48F09051911121E0E8
:100D0800FA0E906FFF0E916F010120EE02F0335141
:100D1800D9263451DA22DECF2DF1DDCF2EF1D8904D
:100D28003535D96E3635DA6E2D51D9262E51DA225F
:100D3800DECF92F0DDCF93F0ABEC48F090519111FB
:100D480004E1010E4E6E010E45D0E20E906FFF0ECB
:100D5800916F010120EE02F03351D9263451DA2285
:100D6800DECF2DF1DDCF2EF1D8903535D96E363561
:100D7800DA6E2D51D9262E51DA22DECF92F0DDCF50
:100D880093F0ABEC48F09051911121E0F60E906F82
:100D9800FF0E916F010120EE02F03351D926345134
:100DA800DA22DECF2DF1DDCF2EF1D8903535D96E90
:100DB8003635DA6E2D51D9262E51DA22DECF92F051
:100DC800DDCF93F0ABEC48F09051911105E1010EA5
:100DD8004E6E020EC06FF3D0E10E906FFF0E916F52
:100DE800010120EE02F03351D9263451DA22DECF48
:100DF8002DF1DDCF2EF1D8903535D96E3635DA6E36
:100E08002D51D9262E51DA22DECF92F0DDCF93F084
:100E1800ABEC48F0905191110BE1010E4E6E020EB1
:100E2800C06F030E0301F86F200EF76F780E45D7D9
:100E3800DE0E906FFF0E916F010120EE02F033512C
:100E4800D9263451DA22DECF2DF1DDCF2EF1D8901C
:100E58003535D96E3635DA6E2D51D9262E51DA222E
:100E6800DECF92F0DDCF93F0ABEC48F090519111CA
:100E780005E1010E4E6EC06FC16FF1D0F80E906F94
:100E8800FF0E916F010120EE02F03351D926345143
:100E9800DA22DECF2DF1DDCF2EF1D8903535D96E9F
:100EA8003635DA6E2D51D9262E51DA22DECF92F060
:100EB800DDCF93F0ABEC48F09051911105E1010EB4
:100EC8004E6EC06FC26FCBD0FC0E906FFF0E916F4D
:100ED800010120EE02F03351D9263451DA22DECF57
:100EE8002DF1DDCF2EF1D8903535D96E3635DA6E45
:100EF8002D51D9262E51DA22DECF92F0DDCF93F094
:100F0800ABEC48F09051911138E1010E4E6E020E93
:100F1800C06F03014D6B030EF86F520EF76F780E1A
:100F2800FF6F010E4F6EFA6B730EF96F506AA00EC9
:100F3800516E400E526EF46B480EF56F420EF66F0E
:100F4800EB6BF00EEC6F410EED6F0001CA6B200EDB
:100F5800CB6F410ECC6F0401AA6B020EAB6F430E30
:100F6800AC6F0301E56BC80EE66F420EE76FEE6BE0
:100F7800200EEF6F420EF06F72D0DB0E906FFF0EF7
:100F8800916F010120EE02F03351D9263451DA2253
:100F9800DECF2DF1DDCF2EF1D8903535D96E36352F
:100FA800DA6E2D51D9262E51DA22DECF92F0DDCF1E
:100FB80093F0ABEC48F09051911104E18C82E60E6D
:100FC80003017BD6910E906FFE0E916F010120EE0A
:100FD80002F03351D9263451DA22DECF2DF1DDCF9C
:100FE8002EF1D8903535D96E3635DA6E2D51D92691
:100FF8002E51DA22DECF92F0DDCF93F0ABEC48F041
:10100800905191112CE1010E4E6E020EC06F03013A
:101018004D6B030EF86F520EF76F780EFF6F010ECF
:101028004F6EFA6B730EF96F506AA00E516E400E38
:10103800526EF46B480EF56F420EF66FEB6BF00EC6
:10104800EC6F410EED6F0001CA6B200ECB6F410EA5
:10105800CC6F0401AA6B020EAB6F430EAC6F020E8D
:101068000001C01905E1890E03011E6F080E04D0A6
:10107800890E03011E6F880E1F6F3C0E206F9CD1D6
:1010880020EE02F03351D9263451DA22DECF2DF189
:10109800DDCF2EF1D8903535D96E3635DA6E2D5133
:1010A800D9262E51DA22DECF93F0DDCF94F00BEC67
:1010B8004EF093C09AF094C09BF072EC5DF09AC029
:1010C8000EF59BC00FF59CC010F576D120EE02F00E
:1010D8003351D9263451DA22DECF2DF1DDCF2EF16E
:1010E800D8903535D96E3635DA6E2D51D9262E5130
:1010F800DA22DECF93F0DDCF94F00BEC4EF093C004
:101108009AF094C09BF072EC5DF09AC011F59BC008
:1011180012F59CC013F550D120EE02F03351D926B8
:101128003451DA22DECF2DF1DDCF2EF1D8903535CE
:10113800D96E3635DA6E2D51D9262E51DA22DECF08
:1011480093F0DDCF94F00BEC4EF093C09AF094C07E
:101158009BF072EC5DF09AC014F59BC015F59CC02D
:1011680016F52AD120EE02F03351D9263451DA226D
:10117800DECF2DF1DDCF2EF1D8903535D96E36354D
:10118800DA6E2D51D9262E51DA22DECF93F0DDCF3B
:1011980094F00BEC4EF093C09AF094C09BF072EC74
:1011A8005DF09AC010F19BC011F19CC012F1ADEC3A
:1011B8004DF010C164F411C165F4FED020EE02F0C8
:1011C8003351D9263451DA22DECF2DF1DDCF2EF17D
:1011D800D8903535D96E3635DA6E2D51D9262E513F
:1011E800DA22DECF93F0DDCF94F00BEC4EF093C013
:1011F8009AF094C09BF072EC5DF09AC010F19BC01D
:1012080011F19CC012F1ADEC4DF010C166F411C1A2
:1012180067F4D2D0920E0001906FFE0E916F01011B
:1012280020EE02F03351D9263451DA22DECF2DF1E7
:10123800DDCF2EF1D8903535D96E3635DA6E2D5191
:10124800D9262E51DA22DECF92F0DDCF93F0ABEC27
:1012580048F09051911104E1010E0301556FACD093
:101268000301556BA9D020EE02F03351D926345131
:10127800DA22DECF2DF1DDCF2EF1D8903535D96EBB
:101288003635DA6E2D51D9262E51DA22DECF93F07B
:10129800DDCF94F00BEC4EF093510301566F8CD0D8
:1012A800060E85EC40F088D001013251280A02E18F
:1012B80047EF01F0010A02E16EEF01F0060A02E1D0
:1012C80095EF01F06D0A02E1CAEF01F0010A02E1AF
:1012D800F1EF01F00A0A02E137EF02F0030A02E136
:1012E80075EF02F0010A02E1FBEF02F0070A02E1E2
:1012F8004FEF03F0020A02E118EF02F0010A02E1DF
:10130800AFEF02F01F0A02E1CEEF02F0010A02E19C
:1013180082EF03F0030A02E187EF03F0010A02E11A
:101328008CEF03F0070A02E191EF03F0010A02E1F2
:10133800F7EF03F0030A02E126EF04F0010A02E1E5
:1013480055EF04F00F0A02E180EF04F0010A02E110
:10135800AFEF04F0030A02E123EF05F0010A02E10E
:101368007BEF05F0070A02E105EF05F0010A02E14B
:10137800D6EF04F0020A01E105D43F0A02E141EF89
:1013880005F0050A01E12CD4030A01E179D6010A26
:1013980001E19CD60F0A01E1BFD6010A01E1E2D6BC
:1013A800030A01E10BD7040A01E15DD7010A01E153
:1013B80031D71F0A01E174D70101354B362B0401DF
:1013C8005C510101355D3651800A2D6F04015D5174
:1013D800800A01012D59D8B0120022EF01F0470E02
:1013E80001011F5D010E205914E21FC198F020C1B0
:1013F80099F048EC5FF098C0ABF099C0ACF09AC097
:10140800ADF0AE6BAF6B3E0EB06F27EC49F09EEFC0
:1014180011F0470E1F5D010E20591BE3660E1F5D7C
:10142800010E205916E21FC198F020C199F048EC2E
:101438005FF098C0ABF099C0ACF09AC0ADF00C0E5C
:10144800AE6F020EAF6F3E0EB06F27EC49F09EEF05
:1014580011F0660E1F5D010E20591BE37A0E1F5D09
:10146800010E205916E21FC198F020C199F048ECEE
:101478005FF098C0ABF099C0ACF09AC0ADF0120E16
:10148800AE6F030EAF6F3E0EB06F27EC49F09EEFC4
:1014980011F07A0E1F5D010E20591BE3870E1F5DA8
:1014A800010E205916E21FC198F020C199F048ECAE
:1014B8005FF098C0ABF099C0ACF09AC0ADF0190ECF
:1014C800AE6F040EAF6F3E0EB06F27EC49F09EEF83
:1014D80011F0870E1F5D010E20591BE3960E1F5D4C
:1014E800010E205916E21FC198F020C199F048EC6E
:1014F8005FF098C0ABF099C0ACF09AC0ADF01F0E89
:10150800AE6F050EAF6F3E0EB06F27EC49F09EEF41
:1015180011F0960E1F5D010E20591BE39F0E1F5DF3
:10152800010E205916E21FC198F020C199F048EC2D
:101538005FF098C0ABF099C0ACF09AC0ADF0250E42
:10154800AE6F060EAF6F3E0EB06F27EC49F09EEF00
:1015580011F09F0E1F5D010E20591BE3A80E1F5DA1
:10156800010E205916E21FC198F020C199F048ECED
:101578005FF098C0ABF099C0ACF09AC0ADF02B0EFC
:10158800AE6F070EAF6F3E0EB06F27EC49F09EEFBF
:1015980011F0A80E1F5D010E20591BE3B30E1F5D4D
:1015A800010E205916E21FC198F020C199F048ECAD
:1015B8005FF098C0ABF099C0ACF09AC0ADF0310EB6
:1015C800AE6F080EAF6F3E0EB06F27EC49F09EEF7E
:1015D80011F0B30E1F5D010E20591BE3BB0E1F5DFA
:1015E800010E205916E21FC198F020C199F048EC6D
:1015F8005FF098C0ABF099C0ACF09AC0ADF0370E70
:10160800AE6F090EAF6F3E0EB06F27EC49F09EEF3C
:1016180011F0BB0E1F5D010E20591BE3C00E1F5DAC
:10162800010E205916E21FC198F020C199F048EC2C
:101638005FF098C0ABF099C0ACF09AC0ADF03D0E29
:10164800AE6F0A0EAF6F3E0EB06F27EC49F09EEFFB
:1016580011F0C00E1F5D010E20591BE3C80E1F5D5F
:10166800010E205916E21FC198F020C199F048ECEC
:101678005FF098C0ABF099C0ACF09AC0ADF0440EE2
:10168800AE6F0B0EAF6F3E0EB06F27EC49F09EEFBA
:1016980011F0C80E1F5D010E20591BE3CF0E1F5D10
:1016A800010E205916E21FC198F020C199F048ECAC
:1016B8005FF098C0ABF099C0ACF09AC0ADF04A0E9C
:1016C800AE6F0C0EAF6F3E0EB06F27EC49F09EEF79
:1016D80011F0CF0E1F5D010E20591BE3D40E1F5DC4
:1016E800010E205916E21FC198F020C199F048EC6C
:1016F8005FF098C0ABF099C0ACF09AC0ADF0500E56
:10170800AE6F0D0EAF6F3E0EB06F27EC49F09EEF37
:1017180011F0D40E1F5D010E20591BE3DF0E1F5D73
:10172800010E205916E21FC198F020C199F048EC2B
:101738005FF098C0ABF099C0ACF09AC0ADF0560E0F
:10174800AE6F0E0EAF6F3E0EB06F27EC49F09EEFF6
:1017580011F0DF0E1F5D010E20591BE3E10E1F5D26
:10176800010E205916E21FC198F020C199F048ECEB
:101778005FF098C0ABF099C0ACF09AC0ADF05C0EC9
:10178800AE6F0F0EAF6F3E0EB06F27EC49F09EEFB5
:1017980011F0E10E1F5D010E20591BE3E30E1F5DE2
:1017A800010E205916E21FC198F020C199F048ECAB
:1017B8005FF098C0ABF099C0ACF09AC0ADF0620E83
:1017C800AE6F100EAF6F3E0EB06F27EC49F09EEF74
:1017D80011F0E30E1F5D010E20591BE3EA0E1F5D99
:1017E800010E205916E21FC198F020C199F048EC6B
:1017F8005FF098C0ABF099C0ACF09AC0ADF0680E3D
:10180800AE6F110EAF6F3E0EB06F27EC49F09EEF32
:1018180011F0EA0E1F5D010E20591BE3EE0E1F5D4D
:10182800010E205916E21FC198F020C199F048EC2A
:101838005FF098C0ABF099C0ACF09AC0ADF06F0EF5
:10184800AE6F120EAF6F3E0EB06F27EC49F09EEFF1
:1018580011F0EE0E1F5D010E20591BE3F20E1F5D05
:10186800010E205916E21FC198F020C199F048ECEA
:101878005FF098C0ABF099C0ACF09AC0ADF0750EAF
:10188800AE6F130EAF6F3E0EB06F27EC49F09EEFB0
:1018980011F0F20E1F5D010E20591BE3F70E1F5DBC
:1018A800010E205916E21FC198F020C199F048ECAA
:1018B8005FF098C0ABF099C0ACF09AC0ADF07B0E69
:1018C800AE6F140EAF6F3E0EB06F27EC49F09EEF6F
:1018D80011F0F70E1F5D010E20591BE3FB0E1F5D73
:1018E800010E205916E21FC198F020C199F048EC6A
:1018F8005FF098C0ABF099C0ACF09AC0ADF0810E23
:10190800AE6F150EAF6F3E0EB06F27EC49F09EEF2D
:1019180011F0FB0E1F5D010E20591BE3FE0E1F5D2B
:10192800010E205916E21FC198F020C199F048EC29
:101938005FF098C0ABF099C0ACF09AC0ADF0870EDC
:10194800AE6F160EAF6F3E0EB06F27EC49F09EEFEC
:1019580011F0FE0E1F5D010E20591BE3020E1F5DE4
:10196800020E205916E21FC198F020C199F048ECE8
:101978005FF098C0ABF099C0ACF09AC0ADF08D0E96
:10198800AE6F170EAF6F3E0EB06F27EC49F09EEFAB
:1019980011F0020E1F5D020E20591BE3050E1F5D9C
:1019A800020E205916E21FC198F020C199F048ECA8
:1019B8005FF098C0ABF099C0ACF09AC0ADF0930E50
:1019C800AE6F180EAF6F3E0EB06F27EC49F09EEF6A
:1019D80011F0050E1F5D020E20591BE3080E1F5D56
:1019E800020E205916E21FC198F020C199F048EC68
:1019F8005FF098C0ABF099C0ACF09AC0ADF09A0E09
:101A0800AE6F190EAF6F3E0EB06F27EC49F09EEF28
:101A180011F0080E1F5D020E20591BE30B0E1F5D0F
:101A2800020E205916E21FC198F020C199F048EC27
:101A38005FF098C0ABF099C0ACF09AC0ADF0A00EC2
:101A4800AE6F1A0EAF6F3E0EB06F27EC49F09EEFE7
:101A580011F00B0E1F5D020E20591BE30E0E1F5DC9
:101A6800020E205916E21FC198F020C199F048ECE7
:101A78005FF098C0ABF099C0ACF09AC0ADF0A60E7C
:101A8800AE6F1B0EAF6F3E0EB06F27EC49F09EEFA6
:101A980011F00E0E1F5D020E20591BE3110E1F5D83
:101AA800020E205916E21FC198F020C199F048ECA7
:101AB8005FF098C0ABF099C0ACF09AC0ADF0AC0E36
:101AC800AE6F1C0EAF6F3E0EB06F27EC49F09EEF65
:101AD80011F0110E1F5D020E20591BE3150E1F5D3C
:101AE800020E205916E21FC198F020C199F048EC67
:101AF8005FF098C0ABF099C0ACF09AC0ADF0B20EF0
:101B0800AE6F1D0EAF6F3E0EB06F27EC49F09EEF23
:101B180011F0150E1F5D020E20591AE3170E1F5DF6
:101B2800020E205915E21FC198F020C199F048EC27
:101B38005FF098C0ABF099C0ACF09AC0ADF0B80EA9
:101B4800AE6F1E0EAF6F3E0EB06F27EC49F0F2D3AA
:101B5800170E1F5D020E20591AE31A0E1F5D020EA2
:101B6800205915E21FC198F020C199F048EC5FF0A8
:101B780098C0ABF099C0ACF09AC0ADF0BE0EAE6F95
:101B88001F0EAF6F3E0EB06F27EC49F0D3D31A0E7D
:101B98001F5D020E20591AE31E0E1F5D020E20590A
:101BA80015E21FC198F020C199F048EC5FF098C089
:101BB800ABF099C0ACF09AC0ADF0C50EAE6F200E78
:101BC800AF6F3E0EB06F27EC49F0B4D31E0E1F5D09
:101BD800020E20591AE3200E1F5D020E205915E24D
:101BE8001FC198F020C199F048EC5FF098C0ABF0A5
:101BF80099C0ACF09AC0ADF0CB0EAE6F210EAF6FAE
:101C08003E0EB06F27EC49F095D3200E1F5D020EF3
:101C180020591AE3230E1F5D020E205915E21FC139
:101C280098F020C199F048EC5FF098C0ABF099C0EB
:101C3800ACF09AC0ADF0D10EAE6F220EAF6F3E0E73
:101C4800B06F27EC49F076D3230E1F5D020E2059A2
:101C58001AE3260E1F5D020E205915E21FC198F0E7
:101C680020C199F048EC5FF098C0ABF099C0ACF097
:101C78009AC0ADF0D70EAE6F230EAF6F3E0EB06FA9
:101C880027EC49F057D3260E1F5D020E20591AE3A0
:101C9800270E1F5D020E205915E21FC198F020C1C2
:101CA80099F048EC5FF098C0ABF099C0ACF09AC0DE
:101CB800ADF0DD0EAE6F240EAF6F3E0EB06F27ECA9
:101CC80049F038D3270E1F5D020E20591AE3290E5A
:101CD8001F5D020E205915E21FC198F020C199F02E
:101CE80048EC5FF098C0ABF099C0ACF09AC0ADF08A
:101CF800E30EAE6F250EAF6F3E0EB06F27EC49F0C6
:101D080019D3290E1F5D020E20591AE32B0E1F5DF1
:101D1800020E205915E21FC198F020C199F048EC35
:101D28005FF098C0ABF099C0ACF09AC0ADF0E90E86
:101D3800AE6F260EAF6F3E0EB06F27EC49F0FAD2A9
:101D48002B0E1F5D020E20591AE32D0E1F5D020E89
:101D5800205915E21FC198F020C199F048EC5FF0B6
:101D680098C0ABF099C0ACF09AC0ADF0F00EAE6F71
:101D7800270EAF6F3E0EB06F27EC49F0DBD22D0E69
:101D88001F5D020E20591AE32F0E1F5D020E205907
:101D980015E21FC198F020C199F048EC5FF098C097
:101DA800ABF099C0ACF09AC0ADF0F60EAE6F280E4D
:101DB800AF6F3E0EB06F27EC49F0BCD22F0E1F5DFF
:101DC800020E20591AE3300E1F5D020E205915E24B
:101DD8001FC198F020C199F048EC5FF098C0ABF0B3
:101DE80099C0ACF09AC0ADF0FC0EAE6F290EAF6F83
:101DF8003E0EB06F27EC49F09DD2300E1F5D020EEB
:101E080020591AE3320E1F5D020E205915E21FC138
:101E180098F020C199F048EC5FF098C0ABF099C0F9
:101E2800ACF09AC0ADF0020EAE6F2B0EAF6F3E0E47
:101E3800B06F27EC49F07ED2320E1F5D020E20599A
:101E48001AE3340E1F5D020E205915E21FC198F0E7
:101E580020C199F048EC5FF098C0ABF099C0ACF0A5
:101E68009AC0ADF0080EAE6F2C0EAF6F3E0EB06F7D
:101E780027EC49F05FD2340E1F5D020E20591AE399
:101E8800350E1F5D020E205915E21FC198F020C1C2
:101E980099F048EC5FF098C0ABF099C0ACF09AC0EC
:101EA800ADF00E0EAE6F2D0EAF6F3E0EB06F27EC7D
:101EB80049F040D2350E1F5D020E20591AE3370E45
:101EC8001F5D020E205915E21FC198F020C199F03C
:101ED80048EC5FF098C0ABF099C0ACF09AC0ADF098
:101EE800140EAE6F2E0EAF6F3E0EB06F27EC49F09A
:101EF80021D2370E1F5D020E20591AE3390E1F5DDD
:101F0800020E205915E21FC198F020C199F048EC43
:101F18005FF098C0ABF099C0ACF09AC0ADF01B0E62
:101F2800AE6F2F0EAF6F3E0EB06F27EC49F002D2A6
:101F3800390E1F5D020E20591AE33A0E1F5D020E7C
:101F4800205915E21FC198F020C199F048EC5FF0C4
:101F580098C0ABF099C0ACF09AC0ADF0210EAE6F4E
:101F6800300EAF6F3E0EB06F27EC49F0E3D13A0E5A
:101F78001F5D020E20591AE33C0E1F5D020E205908
:101F880015E21FC198F020C199F048EC5FF098C0A5
:101F9800ABF099C0ACF09AC0ADF0270EAE6F310E21
:101FA800AF6F3E0EB06F27EC49F0C4D13C0E1F5DF9
:101FB800020E20591AE33D0E1F5D020E205915E24C
:101FC8001FC198F020C199F048EC5FF098C0ABF0C1
:101FD80099C0ACF09AC0ADF02D0EAE6F320EAF6F57
:101FE8003E0EB06F27EC49F0A5D13D0E1F5D020EE5
:101FF800205919E33F0E1F5D020E205914E21FC13C
:1020080098F020C199F048EC5FF098C0ABF099C007
:10201800ACF09AC0ADF0330EAE6FAF6F3E0EB06F3E
:1020280027EC49F087D13F0E1F5D020E20591AE3B5
:10203800400E1F5D020E205915E21FC198F020C105
:1020480099F048EC5FF098C0ABF099C0ACF09AC03A
:10205800ADF0390EAE6F340EAF6F3E0EB06F27EC99
:1020680049F068D1400E1F5D020E20591AE3410E57
:102078001F5D020E205915E21FC198F020C199F08A
:1020880048EC5FF098C0ABF099C0ACF09AC0ADF0E6
:102098003F0EAE6F350EAF6F3E0EB06F27EC49F0B6
:1020A80049D1410E1F5D020E20591AE3420E1F5DF1
:1020B800020E205915E21FC198F020C199F048EC92
:1020C8005FF098C0ABF099C0ACF09AC0ADF0460E86
:1020D800AE6F360EAF6F3E0EB06F27EC49F02AD1C7
:1020E800420E1F5D020E20591AE3430E1F5D020EB9
:1020F800205915E21FC198F020C199F048EC5FF013
:1021080098C0ABF099C0ACF09AC0ADF04C0EAE6F71
:10211800370EAF6F3E0EB06F27EC49F00BD1430E70
:102128001F5D020E20591AE3440E1F5D020E20594E
:1021380015E21FC198F020C199F048EC5FF098C0F3
:10214800ABF099C0ACF09AC0ADF0520EAE6F380E3D
:10215800AF6F3E0EB06F27EC49F0ECD0440E1F5D18
:10216800020E20591AE3460E1F5D020E205915E291
:102178001FC198F020C199F048EC5FF098C0ABF00F
:1021880099C0ACF09AC0ADF0580EAE6F390EAF6F73
:102198003E0EB06F27EC49F0CDD0460E1F5D020E03
:1021A80020591AE3470E1F5D020E205915E21FC180
:1021B80098F020C199F048EC5FF098C0ABF099C056
:1021C800ACF09AC0ADF05E0EAE6F3A0EAF6F3E0E39
:1021D800B06F27EC49F0AED0470E1F5D020E2059B4
:1021E8001AE3480E1F5D020E205915E21FC198F030
:1021F80020C199F048EC5FF098C0ABF099C0ACF002
:102208009AC0ADF0640EAE6F3B0EAF6F3E0EB06F6E
:1022180027EC49F08FD0480E1F5D020E20591AE3B3
:10222800490E1F5D020E205915E21FC198F020C10A
:1022380099F048EC5FF098C0ABF099C0ACF09AC048
:10224800ADF06A0EAE6F3C0EAF6F3E0EB06F27EC6E
:1022580049F070D0490E1F5D020E20591AE34A0E4C
:102268001F5D020E205915E21FC198F020C199F098
:1022780048EC5FF098C0ABF099C0ACF09AC0ADF0F4
:10228800710EAE6F3D0EAF6F3E0EB06F27EC49F08A
:1022980051D04A0E1F5D020E205919E34B0E1F5DE7
:1022A800020E205914E21FC198F020C199F048ECA1
:1022B8005FF098C0ABF099C0ACF09AC0ADF0770E63
:1022C800AE6F3E0EAF6FB06F27EC49F033D04B0EB8
:1022D8001F5D020E20591AE34C0E1F5D020E205995
:1022E80015E21FC198F020C199F048EC5FF098C042
:1022F800ABF099C0ACF09AC0ADF07D0EAE6F3F0E5A
:10230800AF6F3E0EB06F27EC49F014D01FC198F0A4
:1023180020C199F048EC5FF098C0ABF099C0ACF0E0
:102328009AC0ADF07D0EAE6F3F0EAF6F3E0EB06F30
:1023380027EC49F0ABC021F1ACC022F1ADC023F1CC
:1023480021C110F122C111F123C112F1ADEC4DF000
:1023580010C11FF111C120F11200E9C4FAF2EAC458
:10236800FBF2EBC4FCF2ECC4FDF2EDC4FEF2EEC4E9
:10237800FFF2EFC4D9F3F0C4DAF3F1C4DBF3F2C42B
:10238800DCF3F3C4DDF3F4C4DEF3F5C4DFF3F6C421
:10239800E0F3F7C4E1F3F8C4E2F3F9C4E3F3FAC4F1
:1023A800E4F3040E0301FE65040CFE6B385101E0F2
:1023B80032D1D8900101FE35F66EFF35F76EFD0E6D
:1023C800F626F80EF722F86A000EF8220900F5CF73
:1023D80090F00A00F5CF91F06DEC5BF091511EE1A1
:1023E800370E905DD8B01AD00C0E906F060E916F14
:1023F800D8900101FE35F66EFF35F76EFD0EF62614
:10240800F80EF722F86A000EF8220900F5CF92F0CC
:102418000A00F5CF93F0F9EC5DF00AD00C0E906F3E
:10242800060E916FCA0E926FFF0E936FF9EC5DF076
:102438000C0E0001946F060E956FEA0E966FFF0E54
:10244800976F0C0E906F060E916F6DEC5BF09051CC
:102458003808986F9151D8A0E82A0008996FFCECC9
:1024680058F0000E5DEC5EF0040E0101FE19FF113C
:1024780001E0F7D0030152510CE00C0E0001906FFF
:10248800060E916FD70E926FFF0E936FF9EC5DF009
:10249800E8D0FD510CE00C0E0001906F060E916F14
:1024A800850E926FFF0E936FF9EC5DF0DAD00C0E8B
:1024B8000001906F060E916F7D0E926FFF0E936F65
:1024C800F9EC5DF0CED00C0E0001906F060E916F06
:1024D800310E926FFF0E936FF9EC5DF0BDD00C0ECC
:1024E8000001906F060E916FE10E926FFE0E936FD2
:1024F800F9EC5DF0B1D00C0E0001906F060E916FF3
:10250800940E926FFF0E936FF9EC5DF0A5D00C0E50
:102518000001906F060E916F550E926FFD0E936F2E
:10252800F9EC5DF099D00C0E0001906F060E916FDA
:102538003A0E926FFF0E936FF9EC5DF08DD00C0E92
:102548000001906F060E916FD90E926FFD0E936F7A
:10255800F9EC5DF081D00C0E0001906F060E916FC2
:10256800EB0E926FFE0E936FF9EC5DF075D00C0ECA
:102578000001906F060E916FF50E926FFE0E936F2D
:10258800F9EC5DF069D00C0E0001906F060E916FAA
:10259800FF0E926FFE0E936FF9EC5DF05DD00C0E9E
:1025A8000001906F060E916FE60E926FFD0E936F0D
:1025B800F9EC5DF051D00C0E0001906F060E916F92
:1025C800F30E926FFD0E936FF9EC5DF045D00C0E93
:1025D8000001906F060E916F640E926FFD0E936F5F
:1025E800F9EC5DF039D00C0E0001906F060E916F7A
:1025F800000E926FFE0E936FF9EC5DF02DD00C0E6D
:102608000001906F060E916F550E926FFF0E936F3B
:10261800F9EC5DF021D03851010A01E154D7030AE1
:1026280001E15DD7010A01E166D7070A01E16FD729
:10263800010A01E178D7030A82E0010A8CE00F0A57
:1026480096E0010AA0E0030AAAE0010AB4E0070A3A
:10265800BEE0010AC8E0D3D7010E5DEC5EF00301CD
:10266800386B81C4A6F082C4A7F083C4A8F084C4E0
:10267800A9F0F40E0001AA6F050EAB6FDF0EAC6F68
:10268800060EAD6FE10EAE6F060EAF6FD8EC4FF0D1
:1026980088A21AD06CC460F46DC461F42FC362F4CC
:1026A80030C363F406C344F407C345F408C346F4CF
:1026B80015C341F416C342F417C343F421C347F4C6
:1026C80022C348F423C349F4190E0101216F020EF5
:1026D800226F730E236FFD0E246FF4C525F1F5C527
:1026E80026F1DFC627F1E0C628F1E1C629F1E2C6E6
:1026F8002AF137EC1EF09A0E216F010E226FB60EEA
:10270800236FFF0E246F00C325F101C326F102C316
:1027180027F137EC1EF0810E216F010E226FC00EDB
:10272800236FFF0E246F44C425F145C426F146C427
:1027380027F137EC1EF0B30E216F010E226FC00E89
:10274800236FFF0E246F41C425F142C426F143C410
:1027580027F137EC1EF0000E216F020E226FC50E16
:10276800236FFF0E246F60C425F161C426F137EC96
:102778001EF0E50E216F010E226FC50E236FFF0EAE
:10278800246F62C425F163C426F137EC1EF0CC0E29
:10279800216F010E226FC00E236FFF0E246F47C4F6
:1027A80025F148C426F149C427F137EC1EF04F0E35
:1027B800216F010E226FE70E236FFF0E246F53C3A4
:1027C80025F1266B37EC1EF0320E216F020E226FB8
:1027D800BB0E236FFF0E246F09C325F10AC326F130
:1027E8000BC327F137EC1EF04B0E216F020E226F40
:1027F800BB0E236FFF0E246F03C325F104C326F11C
:1028080005C327F137EC1EF0640E216F020E226F0C
:10281800BB0E236FFF0E246F26C425F127C426F1B3
:1028280028C427F137EC1EF0030154510CE0C90EFF
:102838000001906F070E916FB00E926FFF0E936FAD
:10284800F9EC5DF011D0C90E0101216F070E226F5E
:102858009B0E236FFF0E246F6AC325F16BC326F10D
:102868006CC327F137EC1EF07D0E0101216F020EBB
:10287800226F9B0E236FFF0E246F67C325F168C379
:1028880026F169C327F137EC1EF0960E216F020E70
:10289800226F9B0E236FFF0E246F64C325F165C35F
:1028A80026F166C327F137EC1EF0E10E216F020E08
:1028B800226FE70E236FFF0E246F50C425F151C419
:1028C80026F137EC1EF0A70E216F030E226FE70EDC
:1028D800236FFF0E246F54C425F155C426F137EC3D
:1028E8001EF0C80E216F020E226FB60E236FFF0E68
:1028F800246F4DC425F14EC426F14FC427F137EC9F
:102908001EF0AF0E216F020E226FE70E236FFF0E2F
:10291800246F49C325F1266B37EC1EF0C00E216FDA
:10292800030E226FD30E236FFF0E246F1BC325F1F6
:102938001CC326F11DC327F137EC1EF08E0E216F44
:10294800030E226FBB0E236FFF0E246F61C325F1A8
:1029580062C326F163C327F137EC1EF0750E216FB1
:10296800030E226FBB0E236FFF0E246F6DC325F17C
:102978006EC326F16FC327F137EC1EF0680E216F86
:10298800010E226F9B0E236FFF0E246F0FC325F1DC
:1029980010C326F111C327F137EC1EF0170E000102
:1029A800A66F050EA76F4C0EA86FFF0EA96F810EBC
:1029B800AA6F010EAB6F5CEC4BF0170EA66F050EFD
:1029C800A76F270EA86FFE0EA96FB30EAA6F010E90
:1029D800AB6F5CEC4BF0170EA66F050EA76F1D0EC4
:1029E800A86FFF0EA96FCC0EAA6F010EAB6F5CEC3F
:1029F8004BF0170EA66F050EA76F650EA86FFE0E9B
:102A0800A96F000EAA6F020EAB6F5CEC4BF0170EAD
:102A1800A66F050EA76F340EA86FFE0EA96FE50E00
:102A2800AA6F010EAB6F5CEC4BF0170EA66F050E8C
:102A3800A76FAA0EA86FFE0EA96F920EAA6FFE0EC0
:102A4800AB6F5CEC4BF0170EA66F050EA76FA90EC7
:102A5800A86FFF0EA96F0C0EAA6F060EAB6F5CEC89
:102A68004BF0170EA66F050EA76F5D0EA86FFF0E31
:102A7800A96F190EAA6F020EAB6F5CEC4BF0170E24
:102A8800A66F050EA76F650EA86FFF0EA96F9A0EA9
:102A9800AA6F010EAB6F5CEC4BF0170EA66F050E1C
:102AA800A76F6D0EA86FFF0EA96FE10EAA6F020E39
:102AB800AB6F5CEC4BF0170EA66F050EA76FA20E5E
:102AC800A86FFF0EA96FA70EAA6F030EAB6F5CEC81
:102AD8004BF0170EA66F050EA76FD60EA86FFE0E49
:102AE800A96FC80EAA6F020EAB6F5CEC4BF0170E05
:102AF800A66F050EA76F430EA86FFF0EA96FAF0E46
:102B0800AA6F020EAB6F5CEC4BF0C60E0101216F91
:102B1800060E226FBB0E236FFF0E246F12C325F122
:102B280013C326F114C327F137EC1EF0170E00016A
:102B3800A66F050EA76F750EA86FFF0EA96FC60EBC
:102B4800AA6F060EAB6F5CEC4BF0170EA66F050E66
:102B5800A76F350EA86FFD0EA96F890EAA6FFE0E1E
:102B6800AB6F5CEC4BF0170EA66F050EA76FD80E77
:102B7800A86FFC0EA96F320EAA6F020EAB6F5CEC49
:102B88004BF0170EA66F050EA76F010EA86FFD0E6E
:102B9800A96F4B0EAA6F020EAB6F5CEC4BF0170ED1
:102BA800A66F050EA76F950EA86FFC0EA96F640E91
:102BB800AA6F020EAB6F5CEC4BF0170EA66F050EFA
:102BC800A76F940EA86FFE0EA96F7D0EAA6F020E56
:102BD800AB6F5CEC4BF0170EA66F050EA76F0D0ED2
:102BE800A86FFE0EA96FC90EAA6F070EAB6F5CEC3B
:102BF8004BF0170EA66F050EA76F450EA86FFD0EBA
:102C0800A96F960EAA6F020EAB6F5CEC4BF0170E15
:102C1800A66F050EA76FCB0EA86FFE0EA96F8E0EBE
:102C2800AA6F030EAB6F5CEC4BF0170EA66F050E88
:102C3800A76FB50EA86FFE0EA96FC00EAA6F030E80
:102C4800AB6F5CEC4BF0170EA66F050EA76FC00EAE
:102C5800A86FFE0EA96F750EAA6F030EAB6F5CEC22
:102C68004BF003013A5144E1560E0201FA6F030199
:102C780039511EE0170E0001A66F050EA76FFA0E58
:102C8800A86F020EA96F920EAA6FFE0EAB6F5CECD6
:102C98004BF0170EA66F050EA76F130EA86FFF0E49
:102CA800A96F920EAA6FFE0EAB6F5CEC4BF01DD0B5
:102CB800170E0001A66F050EA76FFA0EA86F020E79
:102CC800A96FB40EAA6FFF0EAB6F5CEC4BF0170E3A
:102CD800A66F050EA76F130EA86FFF0EA96FB40E8F
:102CE800AA6FFF0EAB6F5CEC4BF0010E03013A6F5D
:102CF8004C5144E1550E0201FD6F03014B511EE09A
:102D0800170E0001A66F050EA76FFD0EA86F020E25
:102D1800A96F920EAA6FFE0EAB6F5CEC4BF0170E0C
:102D2800A66F050EA76F9F0EA86FFE0EA96F920ED5
:102D3800AA6FFE0EAB6F5CEC4BF01DD0170E0001B6
:102D4800A66F050EA76FFD0EA86F020EA96FB40E31
:102D5800AA6FFF0EAB6F5CEC4BF0170EA66F050E5B
:102D6800A76F9F0EA86FFE0EA96FB40EAA6FFF0E75
:102D7800AB6F5CEC4BF0010E03014C6F455142E127
:102D8800570ED96F44511EE0170E0001A66F050EAD
:102D9800A76FD90EA86F030EA96F920EAA6FFE0E29
:102DA800AB6F5CEC4BF0170EA66F050EA76FBE0E4F
:102DB800A86FFD0EA96F920EAA6FFE0EAB6F5CECAA
:102DC8004BF01DD0170E0001A66F050EA76FD90E88
:102DD800A86F030EA96FB40EAA6FFF0EAB6F5CEC61
:102DE8004BF0170EA66F050EA76FBE0EA86FFD0E4F
:102DF800A96FB40EAA6FFF0EAB6F5CEC4BF0010E1F
:102E08000301456F515142E1580EDC6F33511EE00A
:102E1800170E0001A66F050EA76FDC0EA86F030E34
:102E2800A96F920EAA6FFE0EAB6F5CEC4BF0170EFB
:102E3800A66F050EA76F4D0EA86FFE0EA96F920E16
:102E4800AA6FFE0EAB6F5CEC4BF01DD0170E0001A5
:102E5800A66F050EA76FDC0EA86F030EA96FB40E40
:102E6800AA6FFF0EAB6F5CEC4BF0170EA66F050E4A
:102E7800A76F4D0EA86FFE0EA96FB40EAA6FFF0EB6
:102E8800AB6F5CEC4BF0010E0301516F505142E106
:102E98005D0EDF6F4E511EE0170E0001A66F050E86
:102EA800A76FDF0EA86F030EA96F920EAA6FFE0E12
:102EB800AB6F5CEC4BF0170EA66F050EA76F590EA3
:102EC800A86FFE0EA96F920EAA6FFE0EAB6F5CEC98
:102ED8004BF01DD0170E0001A66F050EA76FDF0E71
:102EE800A86F030EA96FB40EAA6FFF0EAB6F5CEC50
:102EF8004BF0170EA66F050EA76F590EA86FFE0EA2
:102F0800A96FB40EAA6FFF0EAB6F5CEC4BF0010E0D
:102F18000301506F475142E15F0EE26F46511EE0D8
:102F2800170E0001A66F050EA76FE20EA86F030E1D
:102F3800A96F920EAA6FFE0EAB6F5CEC4BF0170EEA
:102F4800A66F050EA76F1A0EA86FFE0EA96F920E38
:102F5800AA6FFE0EAB6F5CEC4BF01DD0170E000194
:102F6800A66F050EA76FE20EA86F030EA96FB40E29
:102F7800AA6FFF0EAB6F5CEC4BF0170EA66F050E39
:102F8800A76F1A0EA86FFE0EA96FB40EAA6FFF0ED8
:102F9800AB6F5CEC4BF0010E0301476FA60E00010E
:102FA800906F060E916F6DEC5BF0915103E1020E8C
:102FB800905D0EE3170EA66F050EA76F090EA86F9A
:102FC800FF0EA96FA60EAA6F060EAB6F5CEC4BF056
:102FD8008A0EAD6F0C0EAE6F170EAF6F050EB06F89
:102FE80094EC60F0A60E0001906F060E916F940E9F
:102FF800926FFC0E936FF9EF5DF00AC19DF00BC163
:103008009EF00CC19FF0060E0001A06F020EA26F89
:10301800820EA16FA46B010EA36FA66B800EA56F25
:10302800020EA76F17C1A8F018C1A9F019C1AAF01C
:103038001AC1ABF02CEC48F00AC191F00BC192F028
:10304800080E936F4EEC54F0530E01011B6FCA0E1D
:10305800E82EFED71B2FFCD70AC19DF00BC19EF0AE
:103068000CC19FF0060E0001A06F020EA26F830E26
:10307800A16FA46B010EA36FA66BA56F020EA76FBD
:1030880017C1A8F018C1A9F019C1AAF01AC1ABF06C
:103098002CEC48F00AC191F00BC192F0080E936F26
:1030A8004EEC54F0530E01011B6FCA0EE82EFED7EA
:1030B8001B2FFCD70AC19DF00BC19EF00CC19FF0DD
:1030C800060E0001A06F020EA26F5C0EA16FA46B2A
:1030D800010EA36FA66BA56B020EA76F17C1A8F010
:1030E80018C1A9F019C1AAF01AC1ABF02CEC48F02C
:1030F8000AC191F00BC192F0080E936F4EEC54F098
:10310800530E01011B6FCA0EE82EFED71B2FFCD7EA
:103118000AC100F10BC101F10CC102F117C103F1A1
:1031280018C104F119C105F11AC106F118EC4AF0E9
:103138000AC19DF00BC19EF00CC19FF0060E000164
:10314800A06F040EA26F670EA16FA46B010EA36F90
:10315800A66B030EA56F020EA76F17C1A8F018C1C2
:10316800A9F019C1AAF01AC1ABF02CEC48F00AC1B9
:1031780091F00BC192F0080E936F4EEC54F0530E81
:1031880001011B6FCA0EE82EFED71B2FFCD70AC100
:1031980000F10BC101F10CC102F117C103F118C113
:1031A80004F119C105F11AC106F118EC4AF00AC177
:1031B8009DF00BC19EF00CC19FF0060E0001A06FA0
:1031C800A26BD30EA16FA46B010EA36FA66BA56FA4
:1031D800020EA76F17C1A8F018C1A9F019C1AAF06B
:1031E8001AC1ABF02CEC48F00AC191F00BC192F077
:1031F800080E936F4EEC54F0530E01011B6FCA0E6C
:10320800E82EFED71B2FFCD70AC100F10BC101F134
:103218000CC102F117C103F118C104F119C105F17C
:103228001AC106F118EC4AF00AC19DF00BC19EF0D4
:103238000CC19FF0060E0001A06FA26BD40EA16F07
:10324800A46B010EA36FA66BA56F020EA76F17C123
:10325800A8F018C1A9F019C1AAF01AC1ABF02CEC5A
:1032680048F00AC191F00BC192F0080E936F4EEC32
:1032780054F0530E01011B6FCA0EE82EFED71B2F08
:10328800FCD70AC100F10BC101F10CC102F117C151
:1032980003F118C104F119C105F11AC106F118ECBE
:1032A8004AF00AC19DF00BC19EF00CC19FF0060EBA
:1032B8000001A06FA26BD50EA16FA46B010EA36FC6
:1032C800A66BA56F020EA76F17C1A8F018C1A9F0C9
:1032D80019C1AAF01AC1ABF02CEC48F00AC191F060
:1032E8000BC192F0080E936F4EEC54F0530E01018F
:1032F8001B6FCA0EE82EFED71B2FFCD70AC100F1A0
:103308000BC101F10CC102F117C103F118C104F19D
:1033180019C105F11AC106F118EC4AF00AC19DF06D
:103328000BC19EF00CC19FF0060E0001A06FA26BAE
:10333800D60EA16FA46B010EA36FA66BA56F020E2C
:10334800A76F17C1A8F018C1A9F019C1AAF01AC12E
:10335800ABF02CEC48F00AC191F00BC192F0080ECA
:10336800936F4EEC54F0530E01011B6FCA0EE82EFA
:10337800FED71B2FFCD70AC100F10BC101F10CC10C
:1033880002F117C103F118C104F119C105F11AC1FD
:1033980006F118EC4AF00AC19DF00BC19EF00CC171
:1033A8009FF0060E0001A06FA26BD70EA16FA46B51
:1033B800010EA36FA66BA56F020EA76F17C1A8F029
:1033C80018C1A9F019C1AAF01AC1ABF02CEC48F049
:1033D8000AC191F00BC192F0080E936F4EEC54F0B5
:1033E800530E01011B6FCA0EE82EFED71B2FFCD708
:1033F8000AC100F10BC101F10CC102F117C103F1BF
:1034080018C104F119C105F11AC106F118EC4AF006
:1034180004000AC19DF00BC19EF00CC19FF0060E7E
:103428000001A06FA26BD80EA16FA46B010EA36F51
:10343800A66BA56F020EA76F17C1A8F018C1A9F057
:1034480019C1AAF01AC1ABF02CEC48F00AC191F0EE
:103458000BC192F0080E936F4EEC54F0530E01011D
:103468001B6FCA0EE82EFED71B2FFCD70AC100F12E
:103478000BC101F10CC102F117C103F118C104F12C
:1034880019C105F11AC106F118EC4AF00AC19DF0FC
:103498000BC19EF00CC19FF0060E0001A06FA26B3D
:1034A800D90EA16FA46B010EA36FA66BA56F020EB8
:1034B800A76F17C1A8F018C1A9F019C1AAF01AC1BD
:1034C800ABF02CEC48F00AC191F00BC192F0080E59
:1034D800936F4EEC54F0530E01011B6FCA0EE82E89
:1034E800FED71B2FFCD70AC100F10BC101F10CC19B
:1034F80002F117C103F118C104F119C105F11AC18C
:1035080006F118EC4AF00AC19DF00BC19EF00CC1FF
:103518009FF0060E0001A06FA26BDA0EA16FA46BDC
:10352800010EA36FA66BA56F020EA76F17C1A8F0B7
:1035380018C1A9F019C1AAF01AC1ABF02CEC48F0D7
:103548000AC191F00BC192F0080E936F4EEC54F043
:10355800530E01011B6FCA0EE82EFED71B2FFCD796
:103568000AC100F10BC101F10CC102F117C103F14D
:1035780018C104F119C105F11AC106F118EC4AF095
:103588000AC19DF00BC19EF00CC19FF0060E000110
:10359800A06FA26BDD0EA16FA46B010EA36FA66BCB
:1035A800A56F020EA76F17C1A8F018C1A9F019C11D
:1035B800AAF01AC1ABF02CEC48F00AC191F00BC18B
:1035C80092F0080E936F4EEC54F0530E01011B6FEE
:1035D800CA0EE82EFED71B2FFCD70AC100F10BC17B
:1035E80001F10CC102F117C103F118C104F119C1AD
:1035F80005F11AC106F118EC4AF00AC19DF00BC199
:103608009EF00CC19FF0060E0001A06FA26BDE0EAB
:10361800A16FA46B010EA36FA66BA56F020EA76F17
:1036280017C1A8F018C1A9F019C1AAF01AC1ABF0C6
:103638002CEC48F00AC191F00BC192F0080E936F80
:103648004EEC54F0530E01011B6FCA0EE82EFED744
:103658001B2FFCD70AC100F10BC101F10CC102F10B
:1036680017C103F118C104F119C105F11AC106F116
:1036780018EC4AF00AC19DF00BC19EF00CC19FF0F6
:10368800060E0001A06FA26BDF0EA16FA46B010EE6
:10369800A36FA66BA56F020EA76F17C1A8F018C17C
:1036A800A9F019C1AAF01AC1ABF02CEC48F00AC174
:1036B80091F00BC192F0080E936F4EEC54F0530E3C
:1036C80001011B6FCA0EE82EFED71B2FFCD70AC1BB
:1036D80000F10BC101F10CC102F117C103F118C1CE
:1036E80004F119C105F11AC106F118EC4AF00AC132
:1036F8009DF00BC19EF00CC19FF0060E0001A06F5B
:10370800A26BE00EA16FA46B010EA36FA66BA56F51
:10371800020EA76F17C1A8F018C1A9F019C1AAF025
:103728001AC1ABF02CEC48F00AC191F00BC192F031
:10373800080E936F4EEC54F0530E01011B6FCA0E26
:10374800E82EFED71B2FFCD70AC100F10BC101F1EF
:103758000CC102F117C103F118C104F119C105F137
:103768001AC106F118EC4AF004000AC19DF00BC119
:103778009EF00CC19FF0060E0001A06FA26BE10E37
:10378800A16FA46B010EA36FA66BA56F020EA76FA6
:1037980017C1A8F018C1A9F019C1AAF01AC1ABF055
:1037A8002CEC48F00AC191F00BC192F0080E936F0F
:1037B8004EEC54F0530E01011B6FCA0EE82EFED7D3
:1037C8001B2FFCD70AC100F10BC101F10CC102F19A
:1037D80017C103F118C104F119C105F11AC106F1A5
:1037E80018EC4AF00AC19DF00BC19EF00CC19FF085
:1037F800060E0001A06FA26BE20EA16FA46B010E72
:10380800A36FA66BA56F020EA76F17C1A8F018C10A
:10381800A9F019C1AAF01AC1ABF02CEC48F00AC102
:1038280091F00BC192F0080E936F4EEC54F0530ECA
:1038380001011B6FCA0EE82EFED71B2FFCD70AC149
:1038480000F10BC101F10CC102F117C103F118C15C
:1038580004F119C105F11AC106F118EC4AF00AC1C0
:103868009DF00BC19EF00CC19FF0060E0001A06FE9
:10387800A26BE30EA16FA46B010EA36FA66BA56FDD
:10388800020EA76F17C1A8F018C1A9F019C1AAF0B4
:103898001AC1ABF02CEC48F00AC191F00BC192F0C0
:1038A800080E936F4EEC54F0530E01011B6FCA0EB5
:1038B800E82EFED71B2FFCD70AC100F10BC101F17E
:1038C8000CC102F117C103F118C104F119C105F1C6
:1038D8001AC106F118EC4AF00AC19DF00BC19EF01E
:1038E8000CC19FF0060E0001A06FA26BE40EA16F41
:1038F800A46B010EA36FA66BA56F020EA76F17C16D
:10390800A8F018C1A9F019C1AAF01AC1ABF02CECA3
:1039180048F00AC191F00BC192F0080E936F4EEC7B
:1039280054F0530E01011B6FCA0EE82EFED71B2F51
:10393800FCD70AC100F10BC101F10CC102F117C19A
:1039480003F118C104F119C105F11AC106F118EC07
:103958004AF00AC19DF00BC19EF00CC19FF0060E03
:103968000001A06F010EA26FFA0EA16FA46B010EE9
:10397800A36F13C1A5F014C1A6F0020EA76F17C15B
:10398800A8F018C1A9F019C1AAF01AC1ABF02CEC23
:1039980048F00AC191F00BC192F0080E936F4EECFB
:1039A80054F0530E01011B6FCA0EE82EFED71B2FD1
:1039B800FCD70AC100F10BC101F10CC102F117C11A
:1039C80003F118C104F119C105F11AC106F118EC87
:1039D8004AF00AC19DF00BC19EF00CC19FF0060E83
:1039E8000001A06F010EA26FFB0EA16FA46B010E68
:1039F800A36F0DC1A5F00EC1A6F0020EA76F17C1E7
:103A0800A8F018C1A9F019C1AAF01AC1ABF02CECA2
:103A180048F00AC191F00BC192F0080E936F4EEC7A
:103A280054F0530E01011B6FCA0EE82EFED71B2F50
:103A3800FCD70AC100F10BC101F10CC102F117C199
:103A480003F118C104F119C105F11AC106F118EC06
:103A58004AF00AC19DF00BC19EF00CC19FF0060E02
:103A68000001A06F010EA26FFC0EA16FA46B010EE6
:103A7800A36F0FC1A5F010C1A6F0020EA76F17C162
:103A8800A8F018C1A9F019C1AAF01AC1ABF02CEC22
:103A980048F00AC191F00BC192F0080E936F4EECFA
:103AA80054F0530E01011B6FCA0EE82EFED71B2FD0
:103AB800FCD70AC100F10BC101F10CC102F117C119
:103AC80003F118C104F119C105F11AC106F118EC86
:103AD8004AF004000AC19DF00BC19EF00CC19FF092
:103AE800060E0001A06F010EA26FFD0EA16FA46B60
:103AF800010EA36F11C1A5F012C1A6F0020EA76FA7
:103B080017C1A8F018C1A9F019C1AAF01AC1ABF0E1
:103B18002CEC48F00AC191F00BC192F0080E936F9B
:103B28004EEC54F0530E01011B6FCA0EE82EFED75F
:103B38001B2FFCD70AC100F10BC101F10CC102F126
:103B480017C103F118C104F119C105F11AC106F131
:103B580018EC4AF00AC19DF00BC19EF00CC19FF011
:103B6800060E0001A06F010EA26FFE0EA16FA46BDE
:103B7800010EA36F15C1A5F016C1A6F0020EA76F1E
:103B880017C1A8F018C1A9F019C1AAF01AC1ABF061
:103B98002CEC48F00AC191F00BC192F0080E936F1B
:103BA8004EEC54F0530E01011B6FCA0EE82EFED7DF
:103BB8001B2FFCD70AC100F10BC101F10CC102F1A6
:103BC80017C103F118C104F119C105F11AC106F1B1
:103BD80018EC4AF00AC100F10BC101F10CC102F165
:103BE800020E036F17C104F118C105F119C106F1DE
:103BF8001AC107F1F4EC56F00AC19DF00BC19EF012
:103C08000CC19FF0060E0001A06F020EA26F820E7B
:103C1800A16FA46B010EA36FA66B810EA56F020E98
:103C2800A76F17C1A8F018C1A9F019C1AAF01AC145
:103C3800ABF02CEC48F001011C6F0AC191F00BC1EC
:103C480092F0080E0001936F4EEC54F001011C6FC6
:103C5800530E1B6FCA0EE82EFED71B2FFCD704008D
:103C680001011C511200250E376F010E386F21EF2C
:103C780024F0250E4E190AE021C1D9FF22C1DAFF2E
:103C88004EC1DFFF214B222B21EF24F04A6B4B6BF7
:103C9800486B496B03D04885234B242B23C1F6FF7F
:103CA80024C1F7FFF86A0800F550300AF4E023C190
:103CB800F6FF24C1F7FFF86A0800F550E9EC5FF059
:103CC80032E301014A6B4B6B4AC190F04BC191F052
:103CD8000001936B0A0E926F6EEC5FF090C04AF190
:103CE80091C04BF1D00E01012B6F2C6923C1F6FF57
:103CF80024C1F7FFF86A0800F5502D6F2E6B2B5181
:103D08002D272C512E232D514A272E514B23234B3F
:103D1800242B23C1F6FF24C1F7FFF86A0800F550E9
:103D2800E9EC5FF0D1E223C1F6FF24C1F7FFF86A9E
:103D38000800F5502E0A2FE10101498D234B242B51
:103D48004C6B4D6B1CD00A0E01014C03F3CF2BF1C9
:103D5800F4CF2CF14D03F3502C2723C1F6FF24C1D7
:103D6800F7FFF86A0800F5502B27000E2C23D00E19
:103D78002B254C6FFF0E2C214D6F234B242B23C179
:103D8800F6FF24C1F7FFF86A0800F550E9EC5FF088
:103D980001E28ED0D8D701014C6B4D6B498988D090
:103DA8004985A6D0488FA4D037C1D9FF38C1DAFFDA
:103DB800DECF35F1DDCF36F1020E3727000E38237E
:103DC8003551361104E18D0E356FFF0E366F396BA4
:103DD8003A6B03D00101394B3A2B395135252B6FFA
:103DE8003A5136212C6F2BC1F6FF2CC1F7FF000E7C
:103DF800F86E0F0EF76403D00800F55005D0F6CF23
:103E0800E9FFF7CFEAFFEF500009E4E101014C5167
:103E18004D1109E039514C5D3A514D5904E24CC1FC
:103E280039F14DC13AF14A51395D4B513A5905E2E0
:103E380039514A5F3A514B5B0BD04A6B4B6B08D0F8
:103E480021C1D9FF22C1DAFF200EDF6E214B222BC0
:103E58004A07D8A04B074A29F3E14B291CE0F0D7C1
:103E680035C1F6FF36C1F7FF000EF86E21C1D9FF44
:103E780022C1DAFF0F0EF76403D00800F55005D011
:103E8800F6CFE9FFF7CFEAFFEF50DF6E0101354BC0
:103E9800362B214B222B3907D8A03A073929E0E1E4
:103EA8003A2902E121EF24F0DBD7C00E481320D0D5
:103EB80023C1F6FF24C1F7FF0101234B242BF86A25
:103EC8000800F5CF4EF14E5102E12FEF24F0640ABD
:103ED8000FE0020A01E164D70F0A0AE01A0A01E1B9
:103EE80063D7060AE2E00D0A01E15CD721EF24F06E
:103EF800070E491501E104D349A903D04D6B060EFD
:103F08004C6F37C1D9FF38C1DAFFDECF45F1DECFBC
:103F180046F1DDCF47F1030E3727000E382347AFB0
:103F280011D045C190F046C191F047C192F014EC10
:103F380060F090C045F191C046F192C047F1030E80
:103F4800010148133F6B406B45514611471101E190
:103F580080D0820E2B6F2C6945C12DF146C12EF100
:103F680047C12FF148C130F1100E05D0D890303339
:103F78002F332E332D33E82EF9D72D512B253F6FB4
:103F8800000E2C21406F3F07D8A040073FC190F09A
:103F980040C191F00001936B030E926F6EEC5FF0DD
:103FA80090C03FF191C040F13FC196F040C197F0F9
:103FB800996B0A0E986FCEEC55F096C03FF197C0FA
:103FC80040F1010140AF03D03F07D8A040073F515F
:103FD800000889EC2FF005C13BF106C13CF107C18F
:103FE8003DF13BC1ABF03CC1ACF03DC1ADF045C1CA
:103FF800AEF046C1AFF047C1B0F027EC49F0ABC016
:104008003BF1ACC03CF1ADC03DF13BC190F03CC1CF
:1040180091F03DC192F0936B800E946F3F0E956FB7
:1040280089EC59F005E201013F07D8A0400711D0FB
:104038003BC190F03CC191F03DC192F0936B200ED2
:10404800946F410E956F89EC59F003E301013F4BE2
:10405800402B01014DBF06D04D511BE10D0E4C5DAB
:10406800D8B017D045C10FF146C110F147C111F1C1
:104078004C518AEC3FF005C112F106C113F107C19A
:1040880014F1C3EC42F00FC145F110C146F111C162
:1040980047F1010140BF06D040511CE10A0E3F5DC7
:1040A800D8B018D045514611471150E045C110F11C
:1040B80046C111F147C112F1ADEC4DF0105111118B
:1040C80012111311D8B440BF41D0405103E1020E80
:1040D8003F5D3CE33BC190F03CC191F03DC192F0A3
:1040E800700E0001936F890E946F400E956F89ECE6
:1040F80059F003E20101F70E02D00101F80E3F2743
:10410800FF0E40233F5189EC2FF005C13BF106C15A
:104118003CF107C13DF145C190F046C191F047C15E
:1041280092F03BC193F03CC194F03DC195F0F3ECA3
:104138004AF090C041F191C042F192C043F193C05E
:1041480044F10101456B466B476B31D045C110F115
:1041580046C111F147C112F1ADEC4DF010C141F16A
:1041680011C142F112C143F113C144F145C11BF120
:1041780046C11CF147C11DF141C198F042C199F0F7
:1041880043C19AF044C19BF068EC5AF098C01EF104
:1041980099C01FF19AC020F120EC5DF01BC145F1D8
:1041A8001CC146F11DC147F101013F6B406B010E77
:1041B8004E6F4E51040D0D0EF324F66EFB0EF420D7
:1041C800F76EF86A000EF8220900F550415D090003
:1041D800F55042590900F55043590900F550445922
:1041E80004E34E2B0A0E4E19E4E14EC12BF12C6B61
:1041F8002BBF2C074C512B274D512C233F512B27DC
:1042080040512C232B514A5F2C514B5B4C514D1183
:1042180003E04A07D8A04B0748C12BF1030E2B1720
:1042280003E04A07D8A04B0748A52BD048C12BF17B
:10423800030E2B1714E021C1D9FF22C1DAFF2D0E7E
:10424800DF6E214B222B0BD021C1D9FF22C1DAFF0F
:10425800300EDF6E214B222B4A07D8A04B074BBFED
:104268006DD04B51F1E14A0569E3EED721C1D9FF81
:1042780022C1DAFF200EDF6E214B222B4A07D8A07D
:104288004B074BBF05D04B51F1E14A05D8B0EED7EB
:1042980048C12BF1030E2B1751E021C1D9FF22C1D0
:1042A800DAFF2D0EDF6E214B222B48D041C190F052
:1042B80042C191F043C192F044C193F04E51040DB4
:1042C8000D0EF324F66EFB0EF420F76EF86A000E5E
:1042D800F8220900F5CF94F00900F5CF95F0090010
:1042E800F5CF96F00A00F5CF97F00AEC56F090C09B
:1042F8003BF191C03CF192C03DF193C03EF13BC10E
:104308009DF03CC19EF03DC19FF03EC1A0F00A0E59
:10431800A16FA26BA36BA46B99EC58F09DC03BF105
:104328009EC03CF19FC03DF1A0C03EF101013B5150
:10433800300F21C1D9FF22C1DAFFB4D74E074E2969
:104348000CE0B4D721C1D9FF22C1DAFF300EDF6EED
:10435800214B222B3F07D8A0400740BF05D0405132
:10436800F1E13F05D8B0EED74DBF08D04D5103E17C
:10437800090E4C5D03E3080E4E6F02D04CC14EF19E
:104388004E514C5F000E4EBFFF0E4D5B4E5108E084
:1043980021C1D9FF22C1DAFF2E0EDF6E214B222B5D
:1043A8004E5189EC2FF005C131F106C132F107C138
:1043B80033F145C1AEF046C1AFF047C1B0F031C1ED
:1043C800ABF032C1ACF033C1ADF027EC49F0ABC073
:1043D80010F1ACC011F1ADC012F1ADEC4DF010C14F
:1043E80041F111C142F112C143F113C144F173D03B
:1043F80041C190F042C191F043C192F044C193F0A1
:104408004E51040D0D0EF324F66EFB0EF420F76EDC
:10441800F86A000EF8220900F5CF94F00900F5CFEC
:1044280095F00900F5CF96F00A00F5CF97F00AEC61
:1044380056F090C03BF191C03CF192C03DF193C061
:104448003EF13BC19DF03CC19EF03DC19FF03EC195
:10445800A0F00A0EA16FA26BA36BA46B99EC58F0A5
:104468009DC03BF19EC03CF19FC03DF1A0C03EF114
:1044780001013B51300F21C1D9FF22C1DAFFDF6EA4
:10448800214B222B41C19DF042C19EF043C19FF0B8
:1044980044C1A0F04E51040D0D0EF324F66EFB0E30
:1044A800F420F76EF86A000EF8220900F5CFA1F0A3
:1044B8000900F5CFA2F00900F5CFA3F00A00F5CF67
:1044C800A4F099EC58F09DC041F19EC042F19FC004
:1044D80043F1A0C044F101014E074E290CE088D7F2
:1044E80021C1D9FF22C1DAFF300EDF6E214B222B0A
:1044F8004C07D8A04D074C514D1101E19ED1F0D782
:1045080048C12BF1C00E2B171EE137C1D9FF38C1A6
:10451800DAFFDECF41F1DDCF42F1000E42BFFF0EE0
:10452800436F446F020E3727000E382344AF1DD067
:10453800030E4813441F431F421F416D000E4223C0
:104548004323442312D037C1D9FF38C1DAFFDECF65
:104558002BF1DDCF2CF12BC141F12CC142F1436B82
:10456800446B020E3727000E38234C514D1146E19B
:10457800415142114311441141E14C4B4D2B3ED066
:10458800010E4E6F4E51040D0D0EF324F66EFB0E08
:10459800F420F76EF86A000EF8220900F550415D24
:1045A8000900F55042590900F55043590900F550E2
:1045B80044592BE34E2B0A0E4E1927E0E3D7010E80
:1045C8004E6F4E51040DDD0EF324F66EF80EF420F6
:1045D800F76EF86A000EF8220900F550415D0900EF
:1045E800F55042590900F55043590900F55044590E
:1045F8000CE34E2B080E4E1908E0E3D74851C00BC8
:10460800BFE0800ADCE0400ABBE0800E4EBF7F0EB0
:104618002B6F4C514E5D4D51800A2B5903E24CC112
:104628004EF10FD04D51800A2B6F4E514C5D800ECC
:104638004EBF7F0E2B5905E24E514C6F4D6B4CBF50
:104648004D074A514B1108E048C12BF1030E2B17B7
:1046580003E04A07D8A04B0749AD10D04A514C5D3A
:104668004D51800A2B6F4B51800A2B5905E24C5152
:104678004A5F4D514B5B02D04A6B4B6B800E4EBF6D
:104688007F0E2B6F4A514E5D4B51800A2B5907E222
:104698004E514A5F000E4EBFFF0E4B5B02D04A6B75
:1046A8004B6B48A51DD048C12BF1030E2B1708E012
:1046B80021C1D9FF22C1DAFF2D0EDF6E214B222B3B
:1046C8004A514B1101E1B1D021C1D9FF22C1DAFF12
:1046D800300EDF6E214B222B4A07D8A04B07F0D7AC
:1046E8004A514B110EE021C1D9FF22C1DAFF200E39
:1046F800DF6E214B222B4A07D8A04B074A514B119A
:10470800F2E148C12BF1030E2B1701E18ED021C134
:10471800D9FF22C1DAFF2D0EDF6E214B222B85D067
:104728004CC12BF14DC12CF1D8902B372C37D89098
:104738002B372C370D0E2B25F66EFB0E2C21F76E22
:10474800F86A000EF8220900F5CF94F00900F5CFB9
:1047580095F00900F5CF96F00A00F5CF97F041C122
:1047680090F042C191F043C192F044C193F00AEC39
:1047780056F090C09DF091C09EF092C09FF093C0FB
:10478800A0F00A0EA16FA26BA36BA46B99EC58F072
:104798009D51300F01014E6F41D041C190F042C18F
:1047A80091F043C192F044C193F04CC12BF14DC13B
:1047B8002CF1D8902B372C37D8902B372C37DD0E8F
:1047C8002B25F66EF80E2C21F76EF86A000EF822EB
:1047D8000900F5CF94F00900F5CF95F00900F5CF61
:1047E80096F00A00F5CF97F00AEC56F090510F0BAF
:1047F8000101346F140E3425F66EF76AFD0EF722A8
:10480800F86A000EF8220800F5CF4EF107D048519B
:10481800C00B86E0800AC1E0400A82E021C1D9FFCE
:1048280022C1DAFF4EC1DFFF78D74C07D8A04D0769
:104838004C29EDE14D29D8A4EAD723C1F6FF24C1BC
:10484800F7FF234B242BF86A0800F5CF4EF14E51A1
:1048580002E03DEF1EF021C1D9FF22C1DAFF000EB0
:10486800DF6A12006CEF29F00F6B106B116B326B63
:104878008DEC36F08BEF29F0010E326F0F6B106B59
:10488800116B1B6B1C6B1D6BA3C66DF3A4C66EF37B
:10489800A5C66FF33ED00301326B6A6B6B6B6C6B12
:1048A800646B656B666B326AFA0E336E420E346E59
:1048B80006C335F007C336F008C337F0E3EC59F008
:1048C80007E20301676B500E686F410E696F04D0F1
:1048D8000301676B686B696B326AC80E336E410EF1
:1048E800346E15C335F016C336F017C337F0E3EC52
:1048F80059F009E2000E0301616F040E626F420E67
:10490800636F8BEF29F00301616B626B636B8BEF55
:1049180029F00001C351320ABEE08BEF29F00F6B7A
:10492800280E106F420E116F6A516B116C1107E15E
:1049380050C06AF351C06BF352C06CF321D06AC304
:1049480032F06BC333F06CC334F0356AC80E366E80
:10495800420E376EE3EC59F013E26AC326F06BC3DC
:1049680027F06CC328F0296A800E2A6E3F0E2B6E42
:1049780072EC43F026C06AF327C06BF328C06CF3CF
:1049880003012B512C1102E08BEF29F0000E0101DD
:10499800FF6F030EFE6F320E00018AD0326B326A4F
:1049A800960E336E430E346E15C335F016C336F0CB
:1049B80017C337F0E3EC59F0290ED8B0280E0001E0
:1049C800C36F96D04DBE09D04D504C100BE1580E18
:1049D8004A5C020E4B58D8B005D003016A6B6B6B6A
:1049E8006C6B3AD04DBE24D04D504C1005E1580E9A
:1049F8004A5C020E4B581CE34DBE09D04D504C107A
:104A080017E1B10E4A5C040E4B58D8B011D04E5085
:104A180008E0000E03016A6FB00E6B6F410E6C6FF9
:104A28001BD0CDC06AF3CEC06BF3CFC06CF314D0EB
:104A38006AC326F06BC327F06CC328F0890E296E71
:104A4800880E2A6E3C0E2B6E72EC43F026C06AF379
:104A580027C06BF328C06CF34E5004E00301676B6A
:104A68008C0E03D00301676BC80E686F420E696F26
:104A7800646B656B666B0001C00504E10301616B43
:104A8800960E06D0020EC01906E10301616BC80E2E
:104A9800626F420E636F03011B6B1C6B1D6B000181
:104AA800BDBF09D0BD5103E1790EBC5D04E3310EF1
:104AB800C36F8BEF29F04DBE8BEF29F04D504C1092
:104AC80007E1210E4A5C1C0E4B5802E28BEF29F0DD
:104AD8000101FF6B030EFE6F4A6A4B6A4C6A4D6A0E
:104AE8000301296B2A6B0001BC6BBD6B8BEF29F0AE
:104AF800C351280A01E166D7010AD9E08BEF29F0F2
:104B0800010E6CEC3EF0426EE3D1C0050BE10301EF
:104B1800616BC80E626F420E636F676B480E686FF9
:104B2800420E0ED0020EC0190CE1E5C361F3E6C3D4
:104B380062F3E7C363F30301676B500E686F410EBE
:104B4800696F03016A516B116C1114E14E500CE04E
:104B58000001C00509E1C15107E103016A6BB00E0C
:104B68006B6F410E6C6F06D0CDC06AF3CEC06BF38D
:104B7800CFC06CF30301646B656B666B010E326F1B
:104B88000001BA6BBB6B1F0EC36FC00E326E0F0EE7
:104B9800336E440E346E15C335F016C336F017C3A2
:104BA80037F0E3EC59F001E3A1D10101FF6B040EEA
:104BB800FE6F0A0E0001C36F326A336A346A6AC331
:104BC80035F06BC336F06CC337F0E3EC59F007E20D
:104BD8006AC318F36BC319F36CC31AF306D050C039
:104BE80018F351C019F352C01AF34A6A4B6A4C6A57
:104BF8004D6A0301296B2A6B0001BC6BBD6B030175
:104C0800246B256B266B72D14E50D8B44DBE2ED076
:104C18004D504C1005E1090E4A5C070E4B5826E32F
:104C2800BBBF06D0BB510CE11E0EBA5DD8B008D090
:104C38005C0E0301646F850E656F410E666F16D0BA
:104C4800BBBF12D0BB5103E11E0EBA5D0DE3BBBF63
:104C580006D0BB5109E1780EBA5DD8B005D0030182
:104C6800646B656B666B02D0BA6BBB6B15C332F0B5
:104C780016C333F017C334F0296AC80E2A6EC10E62
:104C88002B6E0CC326F00DC327F00EC328F072EC70
:104C980043F026C035F027C036F028C037F0E3ECE3
:104CA80059F003E2010E0301426F0001C00507E15C
:104CB8000301616BC80E626F420E636F09D0020E6A
:104CC800C01906E1E5C361F3E6C362F3E7C363F322
:104CD800020E421802E1200E57D0420402E1210ED2
:104CE80053D00301425101E101D16AC332F06BC3D1
:104CF80033F06CC334F0CDC035F0CEC036F0CFC041
:104D080037F0E3EC59F015E36AC326F06BC327F0DC
:104D18006CC328F0890E296E880E2A6E3C0E2B6E05
:104D280072EC43F026C06AF327C06BF328C06CF31B
:104D380006D0CDC06AF3CEC06BF3CFC06CF3CD0EF6
:104D4800326EC70E336E420E346E6AC335F06BC3D3
:104D580036F06CC337F0E3EC59F001E3C7D0030138
:104D68006A6BC80E6B6F420E33D04E5006E00301DB
:104D78001B6BC80E1C6F420E1D6F020E4218ABE073
:104D8800030E421804E11F0E0001C36FAFD04E504E
:104D980015E14F5013E1570E03016A6F850E6B6FD3
:104DA800420E6C6F6A516B116C1101E09FD0CDC03F
:104DB8006AF3CEC06BF3CFC06CF398D003016A518D
:104DC8006B116C1101E092D06A6BB00E6B6F410EE3
:104DD8006C6F8CD0030E4218D6E0326A7A0E336EAE
:104DE800440E346E06C335F007C336F008C337F0F7
:104DF800E3EC59F015E24A6A4B6A4C6A4D6A0301C2
:104E0800296B2A6B0001BC6BBD6B0101FF6B060EA1
:104E1800FE6F640E0001C36F040E0301386F66D085
:104E2800420401E15CD7CDC032F0CEC033F0CFC030
:104E380034F06AC335F06BC336F06CC337F0E3EC7B
:104E480059F015E26AC332F06BC333F06CC334F027
:104E5800CD0E356E4C0E366E3D0E376EA8EC5DF0FD
:104E680032C06AF333C06BF334C06CF304D003016F
:104E78006A6B6B6B6C6B4DBE39D04D504C1005E1B5
:104E8800090E4A5C070E4B5831E34E502FE10301DF
:104E980064516511661107E15C0E646F850E656FDC
:104EA800410E666F23D064C326F065C327F066C33E
:104EB80028F0890E296E880E2A6E3C0E2B6E72EC35
:104EC80043F026C064F327C065F328C066F30ED00C
:104ED8000001C3511E0A01E118D6010A01E194D666
:104EE8003F0A01E177D7010A01E13FD7800E326E10
:104EF8003B0E336E450E346E00C335F001C336F0F9
:104F080002C337F0E3EC59F007E2F4C367F3F5C3E3
:104F180068F3F6C369F320D04E5016E04F5014E101
:104F28006AC318F06BC319F06CC31AF01B6AC00E81
:104F38001C6E3F0E1D6E88EC4AF018C067F319C04E
:104F480068F31AC069F308D04F50DFE00301676BBC
:104F5800D00E686F410E696F326AC80E336E420E0A
:104F6800346E67C335F068C336F069C337F0E3ECD5
:104F780059F007E2000E0301676FC80E686F420E12
:104F8800696F4F500AE003016A6B6B6B6C6B61C60B
:104F98001BF362C61CF363C61DF36BEC39F0B7D183
:104FA8008EEC29F0B4D10F6B280E106F420E116FE2
:104FB800060E381901E017D1660E0001C36F13D130
:104FC800650EC36F4E5001E01AD10301676BC80E1E
:104FD800686F420E696F616BC80E626F420E636F35
:104FE8000ED150C032F051C033F052C034F06AC311
:104FF80035F06BC336F06CC337F0E3EC59F001E3DE
:105008008BD0010E416E1B6A400E1C6E1D6E50C087
:1050180018F051C019F052C01AF088EC4AF018C0C4
:1050280032F019C033F01AC034F06AC335F06BC3DC
:1050380036F06CC337F0E3EC59F002E2030E1CD0F3
:105048001B6A1C6A400E1D6E50C018F051C019F042
:1050580052C01AF088EC4AF018C032F019C033F088
:105068001AC034F06AC335F06BC336F06CC337F03E
:10507800E3EC59F002E2020E416E6AC332F06BC3F0
:1050880033F06CC334F0890E1B6E880E1C6E3C0E18
:105098001D6E4150A6EC5FF009C018F00AC019F067
:1050A8000BC01AF088EC4AF018C035F019C036F079
:1050B8001AC037F0A8EC5DF032C06AF333C06BF366
:1050C80034C06CF3326AC80E336E420E346E64C359
:1050D80035F065C336F066C337F0E3EC59F015E2F6
:1050E80064C332F065C333F066C334F0890E356E9D
:1050F800880E366E3C0E376EA8EC5DF032C064F355
:1051080033C065F334C066F324D00301646BC80E62
:10511800656F420E666F1DD0326AFA0E336E430E0B
:10512800346E06C335F007C336F008C337F0E3EC36
:1051380059F00CE250C06AF351C06BF352C06CF3E3
:10514800670E0001C36FBA6BBB6B03D0660E00011C
:10515800C36F0001BA6BBB6B52D006C332F007C3F2
:1051680033F008C334F0356AFA0E366E430E376EE4
:10517800E3EC59F008E30001BBBF0AD0590EBA5D51
:10518800020EBB5905E3660E0001C36FBA6BBB6B19
:10519800BBBF06D0BB5111E13C0EBA5DD8B00DD0F3
:1051A8000301646BC80E656F420E666F50C06AF3E8
:1051B80051C06BF352C06CF322D0BBBFCAD7BB51EE
:1051C80003E13C0EBA5DC5E3BBBF05D02C0EBA5D4A
:1051D800010EBB59BEE203016A6B6B6B6C6B646BAF
:1051E800656B666B0CD00001C351640A01E1E8D617
:1051F800010A01E1F6D6030ACBE0010AAEE0020E8D
:105208000001C01914E14F5012E121C332F022C34A
:1052180033F023C334F0356ADC0E366E420E376E37
:10522800E3EC59F004E203016D6B6E6B6F6B4F504A
:105238004CE0010E0301326F61C61BF362C61CF31A
:1052480063C61DF30401206B216B226BA3C66DF3AB
:10525800A4C66EF3A5C66FF382C667F383C668F368
:1052680084C669F30301646BC80E656F420E666FEE
:105278006AC332F06BC333F06CC334F01B6A1C6A28
:10528800400E1D6E50C018F051C019F052C01AF0EF
:1052980088EC4AF018C035F019C036F01AC037F05B
:1052A800E3EC59F012E250C018F051C019F052C0A6
:1052B8001AF01B6A1C6A400E1D6E88EC4AF018C072
:1052C8006AF319C06BF31AC06CF315EC3CF065D6A1
:1052D800FEC13FF0FFC140F0405019E13F5002E1EC
:1052E800D2EF24F0010A02E138EF24F0030A01E1C9
:1052F80007D4010A02E140EF24F0070A01E150D681
:10530800010A02E193EF24F0030A01E14CD699EC7B
:1053180046F012004E501BE00001C25118E1010E88
:105328000301326FD4C4F1F3D5C4F2F3D6C4F3F356
:105338004E5006E061C61BF362C61CF363C61DF33C
:1053480082C667F383C668F384C669F316D003017F
:10535800326B0001C25107E00301676B700E686F82
:10536800420E696F06D0F4C367F3F5C368F3F6C35A
:1053780069F303011B6B1C6B1D6B4F500EE0FD6B3B
:10538800000E676FA00E686F410E696F000E040172
:10539800206FC80E216F410E226F0301FD510E0EC2
:1053A800D8B4130E0001C36F020EC01906E1A3C6DC
:1053B8006DF3A4C66EF3A5C66FF3C25101E175D2B1
:1053C800100EC36F72D2010E6CEC3EF03D6E6AC3D4
:1053D80032F06BC333F06CC334F0356AC70E366EE7
:1053E800420E376EE3EC59F001E36BD2010E3C6ECE
:1053F80015C332F016C333F017C334F0296AC80E48
:105408002A6EC20E2B6EC4C026F0C5C027F0C6C0D7
:1054180028F072EC43F026C035F027C036F028C0DB
:1054280037F0E3EC59F002E2020E3C6E030E3D1831
:1054380046E103016A516B116C111CE10001B55181
:10544800B611B71107E150C06AF351C06BF352C0EF
:105458006CF309D0B5C06AF3B6C06BF3B7C06CF390
:10546800B56BB66BB76B15C30CF316C30DF317C347
:105478000EF325D06AC326F06BC327F06CC328F05F
:10548800890E1B6E880E1C6E3C0E1D6E3C50A6ECE1
:105498005FF009C018F00AC019F00BC01AF088ECC8
:1054A8004AF018C029F019C02AF01AC02BF072EC83
:1054B80043F026C06AF327C06BF328C06CF3020ED2
:1054C8003D1801E0FED150C032F051C033F052C057
:1054D80034F06AC335F06BC336F06CC337F0E3ECD5
:1054E80059F001E30CD16AC332F06BC333F06CC3DB
:1054F80034F0CD0E356E4C0E366E3D0E376EA8EC80
:105508005DF0F1D0010E6CEC3EF03D6E020E3D18E0
:105518002FE150C032F051C033F052C034F06AC3AA
:1055280035F06BC336F06CC337F0E3EC59F015E295
:105538006AC332F06BC333F06CC334F0CD0E356EF2
:105548004C0E366E3D0E376EA8EC5DF032C06AF335
:1055580033C06BF334C06CF35DD06AC3B5F06BC372
:10556800B6F06CC3B7F003016A6B6B6B6C6B52D00F
:10557800030E3D1833E103016A516B116C1119E1F7
:10558800326A336A346AB5C035F0B6C036F0B7C08F
:1055980037F0E3EC59F033E350C06AF351C06BF3D2
:1055A80052C06CF315C30CF316C30DF317C30EF3F7
:1055B80031D06AC326F06BC327F06CC328F01EC332
:1055C80029F01FC32AF020C32BF072EC43F026C049
:1055D8006AF327C06BF328C06CF31CD003016A512F
:1055E8006B116C1117E1326A336A346AB5C035F051
:1055F800B6C036F0B7C037F0E3EC59F0CDE2B5C02D
:105608006AF3B6C06BF3B7C06CF30001B56BB66B49
:10561800B76BC8D70301185119111A1106E150C008
:1056280018F351C019F352C01AF36AC332F06BC3AE
:1056380033F06CC334F018C335F019C336F01AC30D
:1056480037F0E3EC59F007E26AC318F36BC319F3B8
:105658006CC31AF336D19A0E1B6E990E1C6E3F0E50
:105668001D6E18C318F019C319F01AC31AF088EC84
:105678004AF018C032F019C033F01AC034F06AC3C7
:1056880035F06BC336F06CC337F0E3EC59F001E347
:1056980018D10301FD6B15D1000E6CEC3EF03D6E88
:1056A800020E3D1803E0040E3D1834E150C032F0FC
:1056B80051C033F052C034F06AC335F06BC336F0D2
:1056C8006CC337F0E3EC59F015E26AC332F06BC3F0
:1056D80033F06CC334F0890E356E080E366E3D0E0D
:1056E800376EA8EC5DF032C06AF333C06BF334C098
:1056F8006CF3E7D00001B551B611B71106E16AC3E2
:10570800B5F06BC3B6F06CC3B7F003016A6B6B6B93
:105718006C6BD7D0030E3D1801E08AD003016A51A3
:105728006B116C111AE1326A336A346AB5C035F00C
:10573800B6C036F0B7C037F0E3EC59F001E28AD0D2
:1057480050C06AF351C06BF352C06CF315C30CF32D
:1057580016C30DF317C30EF388D015C332F016C362
:1057680033F017C334F0296A960E2A6EC20E2B6ED8
:105778000CC326F00DC327F00EC328F072EC43F0DB
:1057880026C035F027C036F028C037F0E3EC59F0D2
:105798002BE203016A516B116C1126E015C332F03C
:1057A80016C333F017C334F0296A200E2A6E410E4F
:1057B8002B6E29C426F02AC427F02BC428F072ECDB
:1057C80043F026C035F027C036F028C037F0E3ECA8
:1057D80059F00AE203012751281106E1010E386F3A
:1057E800646B656B666B41D06AC332F06BC333F090
:1057F8006CC334F0EBC335F0ECC336F0EDC337F0CF
:10580800E3EC59F032E26AC326F06BC327F06CC3AD
:1058180028F01EC329F01FC32AF020C32BF072EC16
:1058280043F026C06AF327C06BF328C06CF31DD081
:1058380003016A516B116C1118E1326A336A346AD8
:10584800B5C035F0B6C036F0B7C037F0E3EC59F064
:1058580001E376D7B5C06AF3B6C06BF3B7C06CF393
:105868000001B56BB66BB76B71D74E502AE14F503C
:1058780028E1570E03016A6F850E6B6F420E6C6F3D
:1058880020D0000E03016A6FC80E6B6F410E6C6F5B
:10589800000E616F8C0E626F420E636F000E646FB4
:1058A800A00E656F410E666F0CD0C3510A0A01E164
:1058B8008AD5040A01E126D61E0AE3E0030A01E1BB
:1058C800EBD60001C25101E0BCD0030138054FE01E
:1058D8004E504BE06AC318F06BC319F06CC31AF052
:1058E800EC0E1B6ED10E1C6E3E0E1D6E88EC4AF03F
:1058F80018C064F319C065F31AC066F364C332F0C4
:1059080065C333F066C334F0CAC035F0CBC036F097
:10591800CCC037F0E3EC59F004E20301646B656B2B
:10592800666B030164516511661121E10001BBBF7B
:1059380008D0BB5103E1F10EBA5D03E3BA6BBB6B50
:1059480016D0BBBF06D0BB510BE13C0EBA5DD8B038
:1059580007D0CAC064F3CBC065F3CCC066F307D0E8
:105968000301646B656B666B02D04E50F2E0000178
:10597800C15103E10301415129E06AC318F06BC327
:1059880019F06CC31AF09A0E1B6E990E1C6E3F0E1E
:105998001D6E88EC4AF018C064F319C065F31AC08C
:1059A80066F364C332F065C333F066C334F0CAC02B
:1059B80035F0CBC036F0CCC037F0E3EC59F006E256
:1059C800CAC064F3CBC065F3CCC066F34F5023E084
:1059D8004DAE0FD06AC318F06BC319F06CC31AF040
:1059E8009A0E1B6E590E1C6E3F0E1D6E88EC4AF007
:1059F8000CD06AC318F06BC319F06CC31AF01B6A99
:105A08001C6A400E1D6E88EC4AF018C064F319C079
:105A180065F31AC066F3326AC80E336E420E346EEE
:105A280064C335F065C336F066C337F0E3EC59F06C
:105A380006E20301646BC80E656F420E666F15ECD3
:105A48003CF06BEC39F012003BC0D9FF3CC0DAFFE8
:105A5800DECF32F0DECF33F0DDCF34F03DC035F0AD
:105A68003EC036F03FC037F0A8EC5DF020EE0CF0F9
:105A78003B50D9263C50DA2232C0DEFF33C0DEFF6D
:105A880034C0DEFF20EE06F03B50D9263C50DA2227
:105A9800DE50DE10DE1001E131D120EE1BF03B506C
:105AA800D9263C50DA22DECF1BF0DECF1CF0DDCF4A
:105AB8001DF020EE06F03B50D9263C50DA22DECF0E
:105AC8000CF0DECF0DF0DDCF0EF0096A800E0A6E05
:105AD8003F0E0B6EC5EC4EF009C018F00AC019F065
